{
  "address": "0xBEFBAe2330186F031b469e26283aCc66bb5F8826",
  "abi": [
    {
      "inputs": [
        {
          "internalType": "bytes4",
          "name": "_functionSelector",
          "type": "bytes4"
        }
      ],
      "name": "facetAddress",
      "outputs": [
        {
          "internalType": "address",
          "name": "facetAddress_",
          "type": "address"
        }
      ],
      "stateMutability": "view",
      "type": "function"
    },
    {
      "inputs": [],
      "name": "facetAddresses",
      "outputs": [
        {
          "internalType": "address[]",
          "name": "facetAddresses_",
          "type": "address[]"
        }
      ],
      "stateMutability": "view",
      "type": "function"
    },
    {
      "inputs": [
        {
          "internalType": "address",
          "name": "_facet",
          "type": "address"
        }
      ],
      "name": "facetFunctionSelectors",
      "outputs": [
        {
          "internalType": "bytes4[]",
          "name": "_facetFunctionSelectors",
          "type": "bytes4[]"
        }
      ],
      "stateMutability": "view",
      "type": "function"
    },
    {
      "inputs": [],
      "name": "facets",
      "outputs": [
        {
          "components": [
            {
              "internalType": "address",
              "name": "facetAddress",
              "type": "address"
            },
            {
              "internalType": "bytes4[]",
              "name": "functionSelectors",
              "type": "bytes4[]"
            }
          ],
          "internalType": "struct Facet[]",
          "name": "facets_",
          "type": "tuple[]"
        }
      ],
      "stateMutability": "view",
      "type": "function"
    }
  ],
  "transactionHash": "0x6602822ed8bb15d1f05d00e7414d2c1613ad12b8c0927673444d858ab69e8ac9",
  "args": [],
  "numDeployments": 1,
  "solcInputHash": "9d44d918681c9ad36f866ebee034a3d1",
  "bytecode": "0x6080806040523460155761079e908161001a8239f35b5f80fdfe60806040526004361015610011575f80fd5b5f3560e01c806352ef6b2c146104ba5780637a0ed627146101a6578063adfca15e146100ad5763cdffacc614610045575f80fd5b346100a95760203660031901126100a9576004356001600160e01b031981168091036100a9575f527fc8fcad8db84d3cc18b4c41d551ea0ee66dd599cde068d998e57d5e09332c131c60205260206001600160a01b0360405f205416604051908152f35b5f80fd5b346100a95760203660031901126100a9576004356001600160a01b0381168091036100a9577fc8fcad8db84d3cc18b4c41d551ea0ee66dd599cde068d998e57d5e09332c131b545f6100fe82610740565b915f5b818110610125578284526040516020808252819061012190820187610625565b0390f35b6001600160e01b0319610137826106a0565b90549060031b1c60e01b16805f527fc8fcad8db84d3cc18b4c41d551ea0ee66dd599cde068d998e57d5e09332c131c6020526001600160a01b0360405f2054168614610187575b50600101610101565b8361019f91610199600194968861071e565b52610732565b929061017e565b346100a9575f3660031901126100a9577fc8fcad8db84d3cc18b4c41d551ea0ee66dd599cde068d998e57d5e09332c131b546101e96101e482610688565b610662565b81815290601f196101f982610688565b015f5b81811061046f5750506102116101e482610688565b818152601f1961022083610688565b013660208301375f915f905b8082106102ea5750505f5b8281106102c257505081526040518091602082016020835281518091526040830190602060408260051b8601019301915f905b82821061027957505050500390f35b919360019193955060206102b28192603f198a82030186526040838a516001600160a01b03815116845201519181858201520190610625565b960192019201859493919261026a565b8061ffff6102d26001938561071e565b511660206102e0838861071e565b5101515201610237565b90926001600160e01b03196102fe856106a0565b90549060031b1c60e01b1690815f527fc8fcad8db84d3cc18b4c41d551ea0ee66dd599cde068d998e57d5e09332c131c6020526001600160a01b0360405f2054165f5f5b8381106103c8575b506103bd57610359828861071e565b515261036483610740565b6020610370838961071e565b510152602061037f828861071e565b510151908151156103a95760019260206103a093015282610199828761071e565b935b019061022c565b634e487b7160e01b5f52603260045260245ffd5b5093600191506103a2565b826001600160a01b036103e0838c989c99979961071e565b515116146103f657600101979397949294610342565b905087610425602061040d84889c9899979961071e565b51015161ffff61041d858b61071e565b51169061071e565b5261ffff610433828861071e565b51169061ffff821461045b57600161044e61ffff928961071e565b920116905260018861034a565b634e487b7160e01b5f52601160045260245ffd5b60405190604082019180831067ffffffffffffffff8411176104a6576020926040525f8152606083820152828287010152016101fc565b634e487b7160e01b5f52604160045260245ffd5b346100a9575f3660031901126100a9577fc8fcad8db84d3cc18b4c41d551ea0ee66dd599cde068d998e57d5e09332c131b546104f86101e482610688565b81815261050482610688565b602082019290601f19013684375f905f905b80821061056c5750508152604051918291602083019060208452518091526040830191905f5b81811061054a575050500390f35b82516001600160a01b031684528594506020938401939092019160010161053c565b90916001600160e01b0319610583849695966106a0565b90549060031b1c60e01b165f527fc8fcad8db84d3cc18b4c41d551ea0ee66dd599cde068d998e57d5e09332c131c6020526001600160a01b0360405f2054165f5f5b8381106105f9575b506105ef57816105e3916101996001948961071e565b925b0190939293610516565b50916001906105e5565b6001600160a01b0361060b828a61071e565b5116831461061b576001016105c5565b50506001876105cd565b90602080835192838152019201905f5b8181106106425750505090565b82516001600160e01b031916845260209384019390920191600101610635565b6040519190601f01601f1916820167ffffffffffffffff8111838210176104a657604052565b67ffffffffffffffff81116104a65760051b60200190565b907fc8fcad8db84d3cc18b4c41d551ea0ee66dd599cde068d998e57d5e09332c131b548210156103a9577fc8fcad8db84d3cc18b4c41d551ea0ee66dd599cde068d998e57d5e09332c131b5f52600382901c7f44fefae66705534388ac21ba5f0775616856a675b8eaea9bb0b2507f062387c3019160021b601c1690565b80518210156103a95760209160051b010190565b5f19811461045b5760010190565b9061074d6101e483610688565b828152809261075e601f1991610688565b019060203691013756fea26469706673582212206f714638b72ed4261525ac8071822d26a9f72790ba32f2c588f573d8e8d8fcda64736f6c634300081c0033",
  "devdoc": {
    "author": "Cooper Labs",
    "custom:contact": "security@cooperlabs.xyz",
    "details": "Reference: EIP-2535 DiamondsForked from https://github.com/mudgen/diamond-3/blob/master/contracts/facets/DiamondLoupeFacet.sol by mudgen",
    "kind": "dev",
    "methods": {
      "facetAddress(bytes4)": {
        "details": "If facet is not found return address(0).",
        "params": {
          "_functionSelector": "The function selector."
        },
        "returns": {
          "facetAddress_": "The facet address."
        }
      },
      "facetAddresses()": {
        "returns": {
          "facetAddresses_": "facetAddresses_"
        }
      },
      "facetFunctionSelectors(address)": {
        "params": {
          "_facet": "The facet address."
        },
        "returns": {
          "_facetFunctionSelectors": "facetFunctionSelectors_"
        }
      },
      "facets()": {
        "returns": {
          "facets_": "Facet"
        }
      }
    },
    "title": "DiamondLoupe",
    "version": 1
  },
  "userdoc": {
    "kind": "user",
    "methods": {
      "facetAddress(bytes4)": {
        "notice": "Gets the facet that supports the given selector."
      },
      "facetAddresses()": {
        "notice": "Get all the facet addresses used by a diamond."
      },
      "facetFunctionSelectors(address)": {
        "notice": "Gets all the function selectors supported by a specific facet."
      },
      "facets()": {
        "notice": "Gets all facet addresses and their four byte function selectors."
      }
    },
    "version": 1
  },
  "storageLayout": {
    "storage": [],
    "types": null
  }
}