{
  "address": "0x1b2741dB9F46a0411852e4cC28dDC476851b5179",
  "abi": [
    {
      "inputs": [
        {
          "internalType": "address",
          "name": "target",
          "type": "address"
        }
      ],
      "name": "AddressEmptyCode",
      "type": "error"
    },
    {
      "inputs": [],
      "name": "FailedCall",
      "type": "error"
    },
    {
      "inputs": [
        {
          "internalType": "uint256",
          "name": "balance",
          "type": "uint256"
        },
        {
          "internalType": "uint256",
          "name": "needed",
          "type": "uint256"
        }
      ],
      "name": "InsufficientBalance",
      "type": "error"
    },
    {
      "inputs": [],
      "name": "InvalidChainlinkRate",
      "type": "error"
    },
    {
      "inputs": [],
      "name": "InvalidSwap",
      "type": "error"
    },
    {
      "inputs": [],
      "name": "InvalidTokens",
      "type": "error"
    },
    {
      "inputs": [],
      "name": "NotWhitelisted",
      "type": "error"
    },
    {
      "inputs": [],
      "name": "Paused",
      "type": "error"
    },
    {
      "inputs": [],
      "name": "ReentrantCall",
      "type": "error"
    },
    {
      "inputs": [
        {
          "internalType": "uint8",
          "name": "bits",
          "type": "uint8"
        },
        {
          "internalType": "uint256",
          "name": "value",
          "type": "uint256"
        }
      ],
      "name": "SafeCastOverflowedUintDowncast",
      "type": "error"
    },
    {
      "inputs": [
        {
          "internalType": "address",
          "name": "token",
          "type": "address"
        }
      ],
      "name": "SafeERC20FailedOperation",
      "type": "error"
    },
    {
      "inputs": [],
      "name": "TooBigAmountIn",
      "type": "error"
    },
    {
      "inputs": [],
      "name": "TooLate",
      "type": "error"
    },
    {
      "inputs": [],
      "name": "TooSmallAmountOut",
      "type": "error"
    },
    {
      "anonymous": false,
      "inputs": [
        {
          "indexed": true,
          "internalType": "address",
          "name": "tokenIn",
          "type": "address"
        },
        {
          "indexed": true,
          "internalType": "address",
          "name": "tokenOut",
          "type": "address"
        },
        {
          "indexed": false,
          "internalType": "uint256",
          "name": "amountIn",
          "type": "uint256"
        },
        {
          "indexed": false,
          "internalType": "uint256",
          "name": "amountOut",
          "type": "uint256"
        },
        {
          "indexed": true,
          "internalType": "address",
          "name": "from",
          "type": "address"
        },
        {
          "indexed": false,
          "internalType": "address",
          "name": "to",
          "type": "address"
        }
      ],
      "name": "Swap",
      "type": "event"
    },
    {
      "inputs": [
        {
          "internalType": "uint256",
          "name": "amountIn",
          "type": "uint256"
        },
        {
          "internalType": "address",
          "name": "tokenIn",
          "type": "address"
        },
        {
          "internalType": "address",
          "name": "tokenOut",
          "type": "address"
        }
      ],
      "name": "quoteIn",
      "outputs": [
        {
          "internalType": "uint256",
          "name": "amountOut",
          "type": "uint256"
        }
      ],
      "stateMutability": "view",
      "type": "function"
    },
    {
      "inputs": [
        {
          "internalType": "uint256",
          "name": "amountOut",
          "type": "uint256"
        },
        {
          "internalType": "address",
          "name": "tokenIn",
          "type": "address"
        },
        {
          "internalType": "address",
          "name": "tokenOut",
          "type": "address"
        }
      ],
      "name": "quoteOut",
      "outputs": [
        {
          "internalType": "uint256",
          "name": "amountIn",
          "type": "uint256"
        }
      ],
      "stateMutability": "view",
      "type": "function"
    },
    {
      "inputs": [
        {
          "internalType": "uint256",
          "name": "amountIn",
          "type": "uint256"
        },
        {
          "internalType": "uint256",
          "name": "amountOutMin",
          "type": "uint256"
        },
        {
          "internalType": "address",
          "name": "tokenIn",
          "type": "address"
        },
        {
          "internalType": "address",
          "name": "tokenOut",
          "type": "address"
        },
        {
          "internalType": "address",
          "name": "to",
          "type": "address"
        },
        {
          "internalType": "uint256",
          "name": "deadline",
          "type": "uint256"
        }
      ],
      "name": "swapExactInput",
      "outputs": [
        {
          "internalType": "uint256",
          "name": "amountOut",
          "type": "uint256"
        }
      ],
      "stateMutability": "nonpayable",
      "type": "function"
    },
    {
      "inputs": [
        {
          "internalType": "uint256",
          "name": "amountIn",
          "type": "uint256"
        },
        {
          "internalType": "uint256",
          "name": "amountOutMin",
          "type": "uint256"
        },
        {
          "internalType": "address",
          "name": "tokenIn",
          "type": "address"
        },
        {
          "internalType": "address",
          "name": "to",
          "type": "address"
        },
        {
          "internalType": "uint256",
          "name": "deadline",
          "type": "uint256"
        },
        {
          "internalType": "bytes",
          "name": "permitData",
          "type": "bytes"
        }
      ],
      "name": "swapExactInputWithPermit",
      "outputs": [
        {
          "internalType": "uint256",
          "name": "amountOut",
          "type": "uint256"
        }
      ],
      "stateMutability": "nonpayable",
      "type": "function"
    },
    {
      "inputs": [
        {
          "internalType": "uint256",
          "name": "amountOut",
          "type": "uint256"
        },
        {
          "internalType": "uint256",
          "name": "amountInMax",
          "type": "uint256"
        },
        {
          "internalType": "address",
          "name": "tokenIn",
          "type": "address"
        },
        {
          "internalType": "address",
          "name": "tokenOut",
          "type": "address"
        },
        {
          "internalType": "address",
          "name": "to",
          "type": "address"
        },
        {
          "internalType": "uint256",
          "name": "deadline",
          "type": "uint256"
        }
      ],
      "name": "swapExactOutput",
      "outputs": [
        {
          "internalType": "uint256",
          "name": "amountIn",
          "type": "uint256"
        }
      ],
      "stateMutability": "nonpayable",
      "type": "function"
    },
    {
      "inputs": [
        {
          "internalType": "uint256",
          "name": "amountOut",
          "type": "uint256"
        },
        {
          "internalType": "uint256",
          "name": "amountInMax",
          "type": "uint256"
        },
        {
          "internalType": "address",
          "name": "tokenIn",
          "type": "address"
        },
        {
          "internalType": "address",
          "name": "to",
          "type": "address"
        },
        {
          "internalType": "uint256",
          "name": "deadline",
          "type": "uint256"
        },
        {
          "internalType": "bytes",
          "name": "permitData",
          "type": "bytes"
        }
      ],
      "name": "swapExactOutputWithPermit",
      "outputs": [
        {
          "internalType": "uint256",
          "name": "amountIn",
          "type": "uint256"
        }
      ],
      "stateMutability": "nonpayable",
      "type": "function"
    }
  ],
  "transactionHash": "0x8f55bb29be8b4cd6ecbf2a2cf845c2133bbe397ae74117c4bdeb6067e2284492",
  "args": [],
  "numDeployments": 1,
  "solcInputHash": "9d44d918681c9ad36f866ebee034a3d1",
  "bytecode": "0x60808060405234601557615802908161001a8239f35b5f80fdfe60806040526004361015610011575f80fd5b5f5f3560e01c80633b6a1fe014610ef15780634583aea614610e865780639525f3ab14610e6c578063b92567fa146107d6578063c10a62871461046a5763d92c6cb21461005c575f80fd5b346103195761006a3661164d565b61007982859697949895611c02565b91909261008685846119cd565b97881061045b5761009b918391888780611cb1565b600260ff5f51602061578d5f395f51905f525460a81c161461044c576100e7600160a91b60ff60a81b195f51602061578d5f395f51905f525416175f51602061578d5f395f51905f5255565b83151580610443575b610130575b602087610128600160a81b60ff60a81b195f51602061578d5f395f51905f525416175f51602061578d5f395f51905f5255565b604051908152f35b61015361014e5f5160206157ad5f395f51905f525460801c8961428c565b614242565b6001600160801b03835460281c91168091016001600160d81b03811161042f57835464ffffffffff1660289190911b64ffffffffff19161783556001600160801b035f5160206157ad5f395f51905f52546101b18160801c86611b26565b16016001600160801b03811161041b57610202906001600160801b03166fffffffffffffffffffffffffffffffff195f5160206157ad5f395f51905f525416175f5160206157ad5f395f51905f5255565b80518590156103cd578082602061025694519101826e22d473030f116ddee9f6b43ac78ba35af13d156103c5573d9061023a82611632565b916102486040519384611611565b82523d87602084013e61557e565b505b60ff815416610327575b506001600160a01b031691823b15610319576040516340c10f1960e01b81526001600160a01b038716600482015260248101869052818160448183885af1801561031c57610304575b50506001600160a01b0360209560405192835285878401521660408201527f73adcdbf2d8fee0c1221daefef436a92c3c640e97ff2941e744bf5eef1ab346f60606001600160a01b0333951692a45f80808080806100f5565b61030f828092611611565b61031957806102ab565b80fd5b6040513d84823e3d90fd5b610336600861033b920161188c565b614bda565b90610345816140bf565b61026257610364816020806001600160a01b0394518301019101613f85565b16803b156103c1578380916024604051809481936255f9e960e71b83528860048401525af180156103b65790849161039d575b50610262565b816103a791611611565b6103b257825f610397565b8280fd5b6040513d86823e3d90fd5b8380fd5b60609061557e565b5050805460ff161561040657610401836103f16103ec6008850161188c565b6143da565b336001600160a01b038916614378565b610258565b6104018330336001600160a01b038916614378565b602486634e487b7160e01b81526011600452fd5b602487634e487b7160e01b81526011600452fd5b508615156100f0565b6004856306fda65d60e31b8152fd5b60048663a1aabbe160e01b8152fd5b5034610319576104793661164d565b61048882859697949895611c02565b9190926104958584611bb8565b978089116107c757918391886104ab948b611cb1565b600260ff5f51602061578d5f395f51905f525460a81c161461044c576104f7600160a91b60ff60a81b195f51602061578d5f395f51905f525416175f51602061578d5f395f51905f5255565b861515806107be575b61053757602087610128600160a81b60ff60a81b195f51602061578d5f395f51905f525416175f51602061578d5f395f51905f5255565b61055561014e5f5160206157ad5f395f51905f525460801c8661428c565b6001600160801b03835460281c91168091016001600160d81b03811161042f57835464ffffffffff1660289190911b64ffffffffff19161783556001600160801b035f5160206157ad5f395f51905f52546105b38160801c86611b26565b16016001600160801b03811161041b57610604906001600160801b03166fffffffffffffffffffffffffffffffff195f5160206157ad5f395f51905f525416175f5160206157ad5f395f51905f5255565b8051859015610785578082602061063c94519101826e22d473030f116ddee9f6b43ac78ba35af13d156103c5573d9061023a82611632565b505b60ff8154166106ff575b506001600160a01b031691823b15610319576040516340c10f1960e01b81526001600160a01b038716600482015260248101839052818160448183885af1801561031c576106ea575b50506001600160a01b0360209560405192868452878401521660408201527f73adcdbf2d8fee0c1221daefef436a92c3c640e97ff2941e744bf5eef1ab346f60606001600160a01b0333951692a45f80808080806100f5565b6106f5828092611611565b6103195780610691565b610336600861070e920161188c565b90610718816140bf565b61064857610737816020806001600160a01b0394518301019101613f85565b16803b156103c1578380916024604051809481936255f9e960e71b83528b60048401525af180156103b657908491610770575b50610648565b8161077a91611611565b6103b257825f61076a565b5050805460ff16156107a9576107a4866103f16103ec6008850161188c565b61063e565b6107a48630336001600160a01b038916614378565b50831515610500565b6004876328ac195d60e21b8152fd5b5034610319576107f56107e83661151b565b8284959792939694611739565b9096908715610e5b576108088482611bb8565b965b8711610e4c576040516020986108208a83611611565b838252600260ff5f51602061578d5f395f51905f525460a81c1614610e3d5761086f600160a91b60ff60a81b195f51602061578d5f395f51905f525416175f51602061578d5f395f51905f5255565b881590811580610e34575b6108b1575b8a8a610128600160a81b60ff60a81b195f51602061578d5f395f51905f525416175f51602061578d5f395f51905f5255565b15610b8d57506108d561014e5f5160206157ad5f395f51905f525460801c8761428c565b6001600160801b03835460281c91168091016001600160d81b038111610b7957835464ffffffffff1660289190911b64ffffffffff19161783556001600160801b035f5160206157ad5f395f51905f52546109338160801c86611b26565b16016001600160801b038111610b6557610984906001600160801b03166fffffffffffffffffffffffffffffffff195f5160206157ad5f395f51905f525416175f5160206157ad5f395f51905f5255565b8051839015610b2c5780828b6109d694519101826e22d473030f116ddee9f6b43ac78ba35af13d156103c5573d906109bb82611632565b916109c96040519384611611565b82523d858c84013e61557e565b505b60ff815416610aa7575b506001600160a01b038516803b15610aa3576040516340c10f1960e01b81526001600160a01b0384166004820152602481018590529082908290604490829084905af1801561031c57610a8e575b50506001600160a01b03905b60405192868452878401521660408201527f73adcdbf2d8fee0c1221daefef436a92c3c640e97ff2941e744bf5eef1ab346f60606001600160a01b0380339616941692a45f808080808080808061087f565b610a99828092611611565b6103195780610a30565b5080fd5b6103366008610ab6920161188c565b90610ac0816140bf565b6109e257610ade8189806001600160a01b0394518301019101613f85565b16803b15610aa3578180916024604051809481936255f9e960e71b83528c60048401525af1801561031c57908291610b17575b506109e2565b81610b2191611611565b61031957805f610b11565b5050805460ff1615610b5057610b4b876103f16103ec6008850161188c565b6109d8565b610b4b8730336001600160a01b038916614378565b602484634e487b7160e01b81526011600452fd5b602485634e487b7160e01b81526011600452fd5b905060ff82548a1c16151580610e18575b610e09576b033b2e3c9fd0803ce80000008802908882046b033b2e3c9fd0803ce8000000141715610df55761014e610be8915f5160206157ad5f395f51905f525460801c9061196b565b6001600160801b03825460281c91168091036001600160d81b038111610b6557825464ffffffffff1660289190911b64ffffffffff19161782556001600160801b035f5160206157ad5f395f51905f525416036001600160801b038111610df557610c8a906001600160801b03166fffffffffffffffffffffffffffffffff195f5160206157ad5f395f51905f525416175f5160206157ad5f395f51905f5255565b6001600160a01b038516803b156103b2578280916044604051809481936315a38ec760e11b83528d60048401523360248401525af18015610dea57908391610dd5575b5050805460ff1615610d83576103366008610ce8920161188c565b90610cf2816140bf565b15610d08575b50506001600160a01b0390610a3c565b610d228189806001600160a01b0394518301019101613f85565b16803b15610aa357604051638bfb07c960e01b81526001600160a01b03878116600483015284166024820152604481018590529082908290606490829084905af1801561031c5715610cf857610d79828092611611565b6103195780610cf8565b505060405163a9059cbb60e01b878201526001600160a01b038281166024830152604482018490529190610dd090610dc881606481015b03601f198101835282611611565b838716614b6d565b610a3c565b81610ddf91611611565b610aa357815f610ccd565b6040513d85823e3d90fd5b602483634e487b7160e01b81526011600452fd5b600483630b094f2760e31b8152fd5b50610e2e84610e296006850161188c565b6140dd565b15610b9e565b5086151561087a565b6004846306fda65d60e31b8152fd5b6004826328ac195d60e21b8152fd5b610e66848288611b82565b9661080a565b5034610319576020610128610e8036611571565b916116e9565b503461031957610ea7602091610e9b36611571565b93919250834291611739565b929015610ed65750610ebc61012891836119cd565b91825f5160206157ad5f395f51905f525460801c91611b4f565b610ee4610eec928483611989565b928391611a0e565b610128565b50346114a557610f036107e83661151b565b909690871561150a57610f1684826119cd565b965b87106114fb57604051602098610f2e8a83611611565b5f8252600260ff5f51602061578d5f395f51905f525460a81c16146114ec57610f7d600160a91b60ff60a81b195f51602061578d5f395f51905f525416175f51602061578d5f395f51905f5255565b8515908115806114e3575b610fbe578a8a610128600160a81b60ff60a81b195f51602061578d5f395f51905f525416175f51602061578d5f395f51905f5255565b156112535750610fe261014e5f5160206157ad5f395f51905f525460801c8a61428c565b6001600160801b03835460281c91168091016001600160d81b038111610b7957835464ffffffffff1660289190911b64ffffffffff19161783556001600160801b035f5160206157ad5f395f51905f52546110408160801c86611b26565b16016001600160801b038111610b6557611091906001600160801b03166fffffffffffffffffffffffffffffffff195f5160206157ad5f395f51905f525416175f5160206157ad5f395f51905f5255565b805183901561121a5780828b6110c894519101826e22d473030f116ddee9f6b43ac78ba35af13d156103c5573d906109bb82611632565b505b60ff815416611195575b506001600160a01b038516803b15610aa3576040516340c10f1960e01b81526001600160a01b0384166004820152602481018890529082908290604490829084905af1801561031c57611180575b50506001600160a01b03905b60405192835285878401521660408201527f73adcdbf2d8fee0c1221daefef436a92c3c640e97ff2941e744bf5eef1ab346f60606001600160a01b0380339616941692a45f808080808080808061087f565b61118b828092611611565b6103195780611122565b61033660086111a4920161188c565b906111ae816140bf565b6110d4576111cc8189806001600160a01b0394518301019101613f85565b16803b15610aa3578180916024604051809481936255f9e960e71b83528960048401525af1801561031c57908291611205575b506110d4565b8161120f91611611565b61031957805f6111ff565b5050805460ff161561123e57611239846103f16103ec6008850161188c565b6110ca565b6112398430336001600160a01b038916614378565b905060ff82548a1c161515806114cc575b6114bd576b033b2e3c9fd0803ce80000008502908582046b033b2e3c9fd0803ce80000001417156114a95761014e6112ae915f5160206157ad5f395f51905f525460801c9061196b565b6001600160801b03825460281c91168091036001600160d81b0381116114a957825464ffffffffff1660289190911b64ffffffffff19161782556001600160801b035f5160206157ad5f395f51905f525416036001600160801b0381116114a957611350906001600160801b03166fffffffffffffffffffffffffffffffff195f5160206157ad5f395f51905f525416175f5160206157ad5f395f51905f5255565b6001600160a01b038516803b156114a5575f80916044604051809481936315a38ec760e11b83528a60048401523360248401525af1801561149a57611485575b50805460ff16156114455761033660086113aa920161188c565b906113b4816140bf565b156113ca575b50506001600160a01b039061112e565b6113e48189806001600160a01b0394518301019101613f85565b16803b15610aa357604051638bfb07c960e01b81526001600160a01b03878116600483015284166024820152604481018890529082908290606490829084905af1801561031c57156113ba5761143b828092611611565b61031957806113ba565b505060405163a9059cbb60e01b878201526001600160a01b03828116602483015260448201879052919061148090610dc88160648101610dba565b61112e565b6114929192505f90611611565b5f905f611390565b6040513d5f823e3d90fd5b5f80fd5b634e487b7160e01b5f52601160045260245ffd5b630b094f2760e31b5f5260045ffd5b506114dd84610e296006850161188c565b15611264565b50891515610f88565b6306fda65d60e31b5f5260045ffd5b63a1aabbe160e01b5f5260045ffd5b611515848288611989565b96610f18565b60c09060031901126114a55760043590602435906044356001600160a01b03811681036114a557906064356001600160a01b03811681036114a557906084356001600160a01b03811681036114a5579060a43590565b60609060031901126114a557600435906024356001600160a01b03811681036114a557906044356001600160a01b03811681036114a55790565b606081019081106001600160401b038211176115c657604052565b634e487b7160e01b5f52604160045260245ffd5b604081019081106001600160401b038211176115c657604052565b61012081019081106001600160401b038211176115c657604052565b90601f801991011681019081106001600160401b038211176115c657604052565b6001600160401b0381116115c657601f01601f191660200190565b9060c06003198301126114a55760043591602435916044356001600160a01b03811681036114a557916064356001600160a01b03811681036114a557916084359160a4356001600160401b0381116114a557816023820112156114a5578060040135906116b982611632565b926116c76040519485611611565b828452602483830101116114a557815f92602460209301838601378301015290565b906116f690834291611739565b901561172557611722925061171d5f5160206157ad5f395f51905f525460801c8383611b4f565b611bb8565b90565b82611734838361172296611a0e565b611b82565b914211611864576001600160a01b035f51602061578d5f395f51905f525416806001600160a01b038416145f146117df57506117a691506001600160a01b03165f527f4b2dd303f68b99d244b702089c802b6e9ea1b5d4ef61fd436d6c41abb1178c7a60205260405f2090565b60ff815460101c16156117b7575f91565b7f9e87fac8000000000000000000000000000000000000000000000000000000005f5260045ffd5b906001600160a01b0316145f1461183c5761182a906001600160a01b03165f527f4b2dd303f68b99d244b702089c802b6e9ea1b5d4ef61fd436d6c41abb1178c7a60205260405f2090565b60ff815460081c16156117b757600191565b7f672215de000000000000000000000000000000000000000000000000000000005f5260045ffd5b7fecdd1c29000000000000000000000000000000000000000000000000000000005f5260045ffd5b90604051915f8154908160011c926001831692831561194e575b60208510841461193a57848752869390811561191857506001146118d4575b506118d292500383611611565b565b90505f9291925260205f20905f915b8183106118fc5750509060206118d2928201015f6118c5565b60209193508060019154838589010152019101909184926118e3565b9050602092506118d294915060ff191682840152151560051b8201015f6118c5565b634e487b7160e01b5f52602260045260245ffd5b93607f16936118a6565b818102929181159184041417156114a957565b8115611975570490565b634e487b7160e01b5f52601260045260245ffd5b6119c16119b76119bc611722956119ae60ff956119a86005890161188c565b90611e80565b93909187612186565b611958565b61196b565b915460181c1690613eff565b906119e6906119b76119e16005850161188c565b613fd9565b9060ff815460181c166012019160ff83116114a95761172292611a0891613f4a565b906129d5565b909160ff835416159182159384611af9575b508315611a59575b505050611a3157565b7f11157667000000000000000000000000000000000000000000000000000000005f5260045ffd5b9192509082611a6d575b50505f8080611a28565b6001600160a01b039192506020906024604051809481937f70a08231000000000000000000000000000000000000000000000000000000008352306004840152165afa90811561149a575f91611ac7575b50105f80611a63565b90506020813d602011611af1575b81611ae260209383611611565b810103126114a557515f611abe565b3d9150611ad5565b82919450611b0c6008611b11920161188c565b61441f565b10925f611a20565b919082018092116114a957565b906b033b2e3c9fd0803ce8000000611b44600992845460281c611958565b0491015410611a3157565b916009916b033b2e3c9fd0803ce8000000611b71611b7893865460281c611958565b0490611b19565b91015410611a3157565b61172292611bad611b9c611bb2936119a86005870161188c565b91909260ff865460181c1690613f4a565b61449b565b90613186565b611bd1611bca6119e16005840161188c565b92826137dd565b91670de0b6b3a7640000830292808404670de0b6b3a764000014901517156114a9576119c160ff916117229461196b565b90421161186457611c43906001600160a01b03165f527f4b2dd303f68b99d244b702089c802b6e9ea1b5d4ef61fd436d6c41abb1178c7a60205260405f2090565b60ff815460081c16156117b7576001600160a01b035f51602061578d5f395f51905f52541691565b81601f820112156114a557805190611c8282611632565b92611c906040519485611611565b828452602083830101116114a557815f9260208093018386015e8301015290565b9492909360405190611cc2826115ab565b5f825260208201965f885260408301956060875260ff81541615155f14611e4f57611cfa6103ec60086001600160a01b03930161188c565b1683525b81518201936040838603126114a5576020830151966040840151956001600160401b0387116114a557611de99a6117229a6101449a611d51611e10986020809c816001600160a01b039801920101611c6b565b85528252826040519a611d638c6115da565b168a52888a0152519560405198611d798a6115ab565b89528789019687526040890193845251169260405193611d98856115da565b8452868401525193604051998a977f30f28b7a00000000000000000000000000000000000000000000000000000000888a0152602489019051602080916001600160a01b0381511684520151910152565b51606487015251608486015280516001600160a01b031660a48601526020015160c4850152565b3360e4840152610100610104840152805191829182610124860152018484015e5f838284010152601f801991011681010301601f198101835282611611565b50308352611cfe565b8051821015611e6c5760209160051b010190565b634e487b7160e01b5f52603260045260245ffd5b90915f91670de0b6b3a76400009360405190818260207f4b2dd303f68b99d244b702089c802b6e9ea1b5d4ef61fd436d6c41abb1178c775492838152017f4b2dd303f68b99d244b702089c802b6e9ea1b5d4ef61fd436d6c41abb1178c775f5260205f20925f5b818110611fc2575050611efc92500383611611565b8151925f5b848110611f0f575050505050565b6001600160a01b03611f218286611e58565b51166001600160a01b03831614611faf57611f92611f8d6005611f876001600160a01b03611f4f868a611e58565b51166001600160a01b03165f527f4b2dd303f68b99d244b702089c802b6e9ea1b5d4ef61fd436d6c41abb1178c7a60205260405f2090565b0161188c565b614538565b90505b888110611fa6575b50600101611f01565b97506001611f9d565b9550611fba82614538565b969096611f95565b84546001600160a01b0316835260019485019487945060209093019201611ee7565b805415611e6c575f5260205f20905f90565b9190918054831015611e6c575f52601860205f208360021c019260031b1690565b919082039182116114a957565b905f82633b9aca00039212633b9aca008312811690633b9aca008413901516176114a957565b90633b9ac9ff1982019182136001166114a957565b81810392915f1380158285131691841216176114a957565b90633b9aca008201915f633b9aca00841291129080158216911516176114a957565b9081633b9aca00019182126001166114a957565b9190915f83820193841291129080158216911516176114a957565b5f908015612180578080600114612178576002146121715760016101338210166001600b83101617612163579060019060025b600181116121275750825f1904821161211357500290565b80634e487b7160e01b602492526011600452fd5b92805f1904811161214f5760018416612146575b80029260011c6120fb565b8092029161213b565b602482634e487b7160e01b81526011600452fd5b6002900a9190806121135750565b5050600490565b505050600190565b50505f90565b9060405190612194826115f5565b5f82525f60208301525f60408301525f60608301525f60808301525f60a08301525f60c08301525f60e08301525f6101008301526004600210156125a2575f80835260016020840181905290929091906129ca565b5f5160206157ad5f395f51905f5254946001600160801b0386161580156129c1575b6129985750855460281c80670de0b6b3a7640000810204670de0b6b3a764000014811517156114a9576b033b2e3c9fd0803ce800000061228c612298926001600160801b036001600160401b0361226e828c16670de0b6b3a7640000850261196b565b16998461227f8260801c8095611958565b0460e08901521690611958565b0460e084015190612017565b6101008301525f9482511515805f1461298c578288018392915b6040519182602082549182815201915f5260205f20905f915b8160038401106129485794809387959361230d936123129854918b82821061292f575b828210612912575b8282106128f5575b50106128e7575b500383611611565b6147e4565b915b612389575b5050905115905061235b575f1982019182116114a9576123426123559260026117229601611ff6565b90549060031b1c60070b905b6002614690565b90611b19565b5f1982019182116114a9576123796123559260046117229601611ff6565b90549060031b1c60070b9061234e565b91969094915f1983018381116114a9578610156128dc57835115612828578782016001600160401b036123bc8883611ff6565b90549060031b1c1660408601528887018088116114a9576001600160401b036123e88261241794611ff6565b90549060031b1c166060870152600284016124038982611ff6565b90549060031b1c60070b6080880152611ff6565b90549060031b1c60070b60a085015261243a610100850151606086015190611958565b6060850151633b9aca000390633b9aca0082116114a9576124699161245e9161196b565b60e086015190612017565b60c08501525b6040840151633b9aca00810290808204633b9aca0014901517156114a9570361274c576080830151945b60208401511561270a5760c0840151925b8584106126205750505060208201518490156125075760a06124ce9293015161205f565b926001600160ff1b03821682036114a9576124f6612355946124fc93611722981b908561430c565b906120ad565b60070b906002614690565b50506001600160ff1b03821682036114a95761254061253561252d8560a085015161205f565b84881b611958565b60c0830151906142c5565b9051156125b6576125619061255c61255785612099565b6120c8565b611b19565b61256a81614c20565b9060048610156125a2576125936123559460029361259893896117229a505081800210016120ad565b61204a565b0560070b9061234e565b634e487b7160e01b5f52602160045260245ffd5b9093506125c561255783612024565b90808210156125e257505061172292600261259861235593612077565b6125f9906125f36125fe9394612077565b93612017565b614c20565b92612617612612611722956123559461205f565b6142ee565b60070b9061234e565b959461264d92989361263491989298612017565b946020850151155f146126b8575060c084015190611b19565b946060830151633b9aca00810290808204633b9aca0014901517156114a957905f1981146114a957835190830191901561269f578261269560e086015160c087015190611b19565b60e0860152612314565b826126b360e086015160c087015190612017565b612695565b8451156126e2576123559060026126d860c08801519260a08901516120ad565b60070b05906149cf565b6127059060026126fb60c08801519260a08901516120ad565b60070b0590614963565b612355565b83511561272f5761272960c085015160026126d88960a08901516120ad565b926124aa565b61274760c085015160026126fb8960a08901516120ad565b612729565b608083015160a08401510361276657608083015194612499565b8251156127e95760e0830151612786610100850151604086015190611958565b906040850151633b9aca000390633b9aca0082116114a9576127ae6127b4926127e39461196b565b90612017565b6124f66080860151916127dd6127d2826119b78660a08c015161205f565b9160c0890151611b19565b9061196b565b94612499565b6127fd610100840151604085015190611958565b6040840151633b9aca0003633b9aca0081116114a95761245e612823916127e39361196b565b6127b4565b600382016001600160401b0361283e8883611ff6565b90549060031b1c1660408601528887018088116114a9576001600160401b0361286a8261288594611ff6565b90549060031b1c166060870152600484016124038982611ff6565b90549060031b1c60070b60a085015260e08401516128ad610100860151606087015190611958565b906060860151633b9aca000391633b9aca0083116114a9576128d2926127ae9161196b565b60c085015261246f565b819750829550612319565b60c01c81526020015f612305565b90936020906001600160401b038560801c1681520193018b6122fe565b90936020906001600160401b038560401c1681520193018b6122f6565b6001600160401b0384168552602090940193018b6122ee565b80546001600160401b038082168652604082811c82166020880152608083811c9092169087015260c09190911c6060860152899894019360049390930192016122cb565b600388018392916122b2565b92945050506117229391505f146129b55760026123429101611fe4565b60046123799101611fe4565b5081851461220b565b6003850154926121e9565b604051916129e2836115f5565b5f83525f60208401525f60408401525f60608401525f60808401525f60a08401525f60c08401525f60e08401525f61010084015260045f10156125a25760018084525f6020850152906001830154915f5160206157ad5f395f51905f5254906001600160801b038216908115801561317c575b6131535750845460281c670de0b6b3a76400008102818104670de0b6b3a764000014821517156114a957826b033b2e3c9fd0803ce80000009283612ab66001600160401b03612aaa612acd98612ac19761196b565b169760801c8093611958565b0460e08b0152611958565b0460e087015190612017565b6101008601525f9385511515805f146131495782600183015b604051928391602081549586815201905f5260205f20945f955b8160038801106130f35791612b4196859261230d9454918181106130d9575b8181106130bc575b81811061309f575b10613091575b509b97999b0383611611565b935b5f1987018781116114a95785101561302857825115612f7357600182016001600160401b03612b728783611ff6565b90549060031b1c166040850152600186018087116114a9576001600160401b03612b9f82612bce94611ff6565b90549060031b1c16606086015260028401612bba8882611ff6565b90549060031b1c60070b6080870152611ff6565b90549060031b1c60070b60a0840152612bf1610100840151606085015190611958565b6060840151633b9aca000390633b9aca0082116114a957612c2091612c159161196b565b60e085015190612017565b60c08401525b604083015180633b9aca00810204633b9aca0014811517156114a957633b9aca000203612ea3576080820151955b602083015115612e615760c0830151945b848610612d8f57505050602081015185919015612cbe579060a0612c8a92015161205f565b6001600160ff1b03831683036114a957611722946124f6612cb3926123559560011b908561430c565b60070b905b5f614690565b919250506001600160ff1b03821682036114a957612cef612535612ce68660a085015161205f565b8460011b611958565b905115612d3657612d069061255c61255786612099565b90612d1082614c20565b93612d2c612593600292611722976123559681800210016120ad565b0560070b90612cb8565b612d44612557859395612024565b9080821015612d61575050611722926002612d2c61235593612077565b6125f9906125f3612d729394612077565b92612d86612612611722956123559461205f565b60070b90612cb8565b929693612dbb92969195612da291612017565b936020880151155f14612e28575060c087015190611b19565b936060860151633b9aca00810290808204633b9aca0014901517156114a957915f1981146114a95760010193865115155f14612e1057612e0460e088015160c089015190611b19565b60e08801529591612b43565b612e2360e088015160c089015190612017565b612e04565b875115612e48576123559060026126d860c08b01519260a08c01516120ad565b6127059060026126fb60c08b01519260a08c01516120ad565b825115612e8657612e8060c084015160026126d88a60a08801516120ad565b94612c65565b612e9e60c084015160026126fb8a60a08801516120ad565b612e80565b608082015160a083015103612ebd57608082015195612c54565b815115612f345760e0820151612edd610100840151604085015190611958565b906040840151633b9aca000390633b9aca0082116114a9576127ae612f0592612f2e9461196b565b6124f66080850151916127dd612f23826119b78660a08b015161205f565b9160c0880151611b19565b95612c54565b612f48610100830151604084015190611958565b6040830151633b9aca0003633b9aca0081116114a957612c15612f6e91612f2e9361196b565b612f05565b600382016001600160401b03612f898783611ff6565b90549060031b1c166040850152600186018087116114a9576001600160401b03612fb682612fd194611ff6565b90549060031b1c16606086015260048401612bba8882611ff6565b90549060031b1c60070b60a084015260e0830151612ff9610100850151606086015190611958565b906060850151633b9aca000391633b9aca0083116114a95761301e926127ae9161196b565b60c0840152612c26565b5090519094925015613063575f1982019182116114a9576130526123559260026117229601611ff6565b90549060031b1c60070b905f614690565b5f1982019182116114a9576130816123559260046117229601611ff6565b90549060031b1c60070b90612cb8565b60c01c81526020015f612b35565b9260206001916001600160401b038560801c168152019301612b2f565b9260206001916001600160401b038560401c168152019301612b27565b9260206001916001600160401b0385168152019301612b1f565b9395929450906001608060049286546001600160401b03811682526001600160401b038160401c1660208301526001600160401b0381841c16604083015260c01c60608201520194019201949290879492612b00565b8260038301612ae6565b92949350505061172293505f146131705760026130529101611fe4565b60046130819101611fe4565b5060018514612a55565b60405191613193836115f5565b5f83525f60208401525f60408401525f60608401525f60808401525f60a08401525f60c08401525f60e08401525f6101008401526004600310156125a2575f80845260208401819052906137d2565b5f5160206157ad5f395f51905f5254906001600160801b03821690811580156137c8575b61379f5750845460281c670de0b6b3a76400008102818104670de0b6b3a764000014821517156114a957826b033b2e3c9fd0803ce80000009283612ab66001600160401b03612aaa61325b98612ac19761196b565b6101008601525f9385511515805f146137955782600183015b604051928391602081549586815201905f5260205f20945f955b81600388011061373f57916132cb96859261230d9454918181106130d9578181106130bc5781811061309f571061309157509b97999b0383611611565b935b5f1987018781116114a9578510156136d55782511561363b57600182016001600160401b036132fc8783611ff6565b90549060031b1c166040850152600186018087116114a9576001600160401b03612b9f8261332994611ff6565b90549060031b1c60070b60a084015261334c610100840151606085015190611958565b6060840151633b9aca000390633b9aca0082116114a95761337091612c159161196b565b60c08401525b604083015180633b9aca00810204633b9aca0014811517156114a957633b9aca000203613599576080820151955b6020830151156135575760c0830151945b8486106134d75750505060208101518591901561340f579060a06133da92015161205f565b6001600160ff1b03831683036114a957611722946124f6613403926123559560011b908561430c565b60070b905b6003614690565b919250506001600160ff1b03821682036114a957613437612535612ce68660a085015161205f565b90511561347e5761344e9061255c61255786612099565b9061345882614c20565b93613474612593600292611722976123559681800210016120ad565b0560070b90613408565b61348c612557859395612024565b90808210156134a957505061172292600261347461235593612077565b6125f9906125f36134ba9394612077565b926134ce612612611722956123559461205f565b60070b90613408565b9296936134ea92969195612da291612017565b936060860151633b9aca00810290808204633b9aca0014901517156114a957915f1981146114a95760010193865115155f1461353f5761353360e088015160c089015190611b19565b60e088015295916132cd565b61355260e088015160c089015190612017565b613533565b82511561357c5761357660c084015160026126d88a60a08801516120ad565b946133b5565b61359460c084015160026126fb8a60a08801516120ad565b613576565b608082015160a0830151036135b3576080820151956133a4565b8151156136015760e08201516135d3610100840151604085015190611958565b906040840151633b9aca000390633b9aca0082116114a9576127ae612f05926135fb9461196b565b956133a4565b613615610100830151604084015190611958565b6040830151633b9aca0003633b9aca0081116114a957612c15612f6e916135fb9361196b565b600382016001600160401b036136518783611ff6565b90549060031b1c166040850152600186018087116114a9576001600160401b03612fb68261367e94611ff6565b90549060031b1c60070b60a084015260e08301516136a6610100850151606086015190611958565b906060850151633b9aca000391633b9aca0083116114a9576136cb926127ae9161196b565b60c0840152613376565b5090519094925015613711575f1982019182116114a9576136ff6123559260026117229601611ff6565b90549060031b1c60070b906003614690565b5f1982019182116114a95761372f6123559260046117229601611ff6565b90549060031b1c60070b90613408565b9395929450906001608060049286546001600160401b03811682526001600160401b038160401c1660208301526001600160401b0381841c16604083015260c01c6060820152019401920194929087949261328e565b8260038301613274565b92949350505061172293505f146137bc5760026136ff9101611fe4565b600461372f9101611fe4565b5060018514613206565b6003830154916131e2565b906040516137ea816115f5565b5f81525f60208201525f60408201525f60608201525f60808201525f60a08201525f60c08201525f60e08201525f6101008201526004600110156125a257600180825260208201819052838101545f5160206157ad5f395f51905f5254939092826001600160801b038616158015613ed1575b613ea95750855460281c80670de0b6b3a7640000810204670de0b6b3a764000014811517156114a9576b033b2e3c9fd0803ce80000006138de6138ea926001600160801b036001600160401b036138c0828c16670de0b6b3a7640000850261196b565b1699846138d18260801c8095611958565b0460e08801521690611958565b0460e083015190612017565b6101008201525f9481511515805f14613e9d578488018592915b6040519182602082549182815201915f5260205f20905f915b816003840110613e595794809387959361230d9361395b9854918b82821061292f57828210612912578282106128f55750106128e757500383611611565b915b6139b6575b50505115613998575f1983019283116114a9576139886123559360026117229701611ff6565b90549060031b1c60070b91614690565b5f1983019283116114a9576139886123559360046117229701611ff6565b9096905f1986018681116114a957881015613e5157825115613d9d578482016001600160401b036139e78a83611ff6565b90549060031b1c166040850152858901808a116114a9576001600160401b03613a1382613a2e94611ff6565b90549060031b1c16606086015260028401612bba8b82611ff6565b90549060031b1c60070b60a0840152613a51610100840151606085015190611958565b6060840151633b9aca000390633b9aca0082116114a957613a7591612c159161196b565b60c08401525b604083015180633b9aca00810204633b9aca0014811517156114a957633b9aca000203613cfb576080820151965b602083015115613cb95760c0830151955b848710613be957505050602081015186919015613b10579060a0613adf92015161205f565b6001600160ff1b03841684036114a957611722956124f6613b079261235596861b908561430c565b60070b91614690565b919350506001600160ff1b03831683036114a957613b40612535613b388760a085015161205f565b85851b611958565b905115613b9057613b579061255c61255787612099565b91613b6183614c20565b9460048310156125a257613b86612593600292611722986123559781800210016120ad565b0560070b91614690565b613b9f61255786939496612024565b9080821015613bbd57505090611722936002613b8661235594612077565b6125f990613bcf613bd5939594612077565b94612017565b93613b07612612611722966123559561205f565b95613bfc90613c15939995989298612017565b936020840151155f14613c80575060c083015190611b19565b946060820151633b9aca00810290808204633b9aca0014901517156114a957905f1981146114a9578251908501919015613c675784613c5d60e085015160c086015190611b19565b60e085015261395d565b84613c7b60e085015160c086015190612017565b613c5d565b835115613ca0576123559060026126d860c08701519260a08801516120ad565b6127059060026126fb60c08701519260a08801516120ad565b825115613cde57613cd860c084015160026126d88b60a08801516120ad565b95613aba565b613cf660c084015160026126fb8b60a08801516120ad565b613cd8565b608082015160a083015103613d1557608082015196613aa9565b815115613d635760e0820151613d35610100840151604085015190611958565b906040840151633b9aca000390633b9aca0082116114a9576127ae612f0592613d5d9461196b565b96613aa9565b613d77610100830151604084015190611958565b6040830151633b9aca0003633b9aca0081116114a957612c15612f6e91613d5d9361196b565b600382016001600160401b03613db38a83611ff6565b90549060031b1c166040850152858901808a116114a9576001600160401b03613ddf82613dfa94611ff6565b90549060031b1c16606086015260048401612bba8b82611ff6565b90549060031b1c60070b60a084015260e0830151613e22610100850151606086015190611958565b906060850151633b9aca000391633b9aca0083116114a957613e47926127ae9161196b565b60c0840152613a7b565b819750613962565b80546001600160401b038082168652604082811c82166020880152608083811c9092169087015260c09190911c60608601528b98940193600493909301920161391d565b60038801859291613904565b611722969395509193505015613ec55760026139889101611fe4565b60046139889101611fe4565b5083851461385d565b9060ff8091169116039060ff82116114a957565b60ff16604d81116114a957600a0a90565b9060ff8116806012115f14613f265750906127dd613f21611722936012613eda565b613eee565b60121015613f465790613f40613f21601261172294613eda565b90611958565b5090565b9060ff81166012811115613f6b5750906127dd613f21601261172294613eda565b60121115613f465790613f40613f21611722936012613eda565b908160209103126114a557516001600160a01b03811681036114a55790565b51906001600160801b03821682036114a557565b91908260409103126114a5576117226020613fd284613fa4565b9301613fa4565b613fe290614a2c565b600a859492939510156125a2576001841461403057906001600160801b036140178360208061401f9996518301019101613fb8565b501693614aca565b81929192811061402c5750565b9150565b5050505060206001600160a01b03614052838380600496518301019101613f85565b16604051928380927f5ade93550000000000000000000000000000000000000000000000000000000082525afa90811561149a575f91614090575090565b90506020813d6020116140b7575b816140ab60209383611611565b810103126114a5575190565b3d915061409e565b600111156125a257565b51906001600160a01b03821682036114a557565b805181016040828203126114a55760208201519160018310156114a5576040810151916001600160401b0383116114a55761411f926020809201920101611c6b565b90614129816140bf565b805f527f4b2dd303f68b99d244b702089c802b6e9ea1b5d4ef61fd436d6c41abb1178c7d6020526001600160a01b0360405f20931692835f5260205260405f205461217857815161417c575b5050505f90565b614185816140bf565b15614191575b80614175565b6020818051810103126114a5576141b260206001600160a01b0392016140c9565b1690811561418b575f91604460209260405194859384927f65e4ad9e00000000000000000000000000000000000000000000000000000000845230600485015260248401525af190811561149a575f9161420a575090565b90506020813d60201161423a575b8161422560209383611611565b810103126114a5575180151581036114a55790565b3d9150614218565b6001600160801b03811161425c576001600160801b031690565b7f6dfcc650000000000000000000000000000000000000000000000000000000005f52608060045260245260445ffd5b906142a4816b033b2e3c9fd0803ce80000008461449b565b908015611975576b033b2e3c9fd0803ce80000006117229309151590611b19565b906142d58183633b9aca0061449b565b9080156119755761172292633b9aca0009151590611b19565b6142fb600260018361449b565b600260016117229309151590611b19565b9161431881838561449b565b918115611975576117229309151590611b19565b9061433c81633b9aca008461449b565b90801561197557633b9aca006117229309151590611b19565b614364633b9aca00838361449b565b9061172292633b9aca009109151590611b19565b6040517f23b872dd0000000000000000000000000000000000000000000000000000000060208201526001600160a01b0392831660248201529290911660448301526064808301939093529181526118d2916143d5608483611611565b614b6d565b6143e390614bda565b3092916143ef816140bf565b156143f75750565b9091506020818051810103126114a55761441b60206001600160a01b0392016140c9565b1690565b9061442a5f92614bda565b90614434816140bf565b1561443c5750565b60049192506001600160a01b0361445d826020808095518301019101613f85565b16604051928380927fe8c9bee50000000000000000000000000000000000000000000000000000000082525afa90811561149a575f91614090575090565b91818302915f198185099383808610950394808603951461452b57848311156145135790829109815f0382168092046002816003021880820260020302808202600203028082026002030280820260020302808202600203028091026002030293600183805f03040190848311900302920304170290565b82634e487b715f52156003026011186020526024601cfd5b505090611722925061196b565b61454190614a2c565b600a85949293969510156125a257600184146145ed5794614581939291614579876020806001600160801b039a518301019101613fb8565b971693614aca565b81939193670de0b6b3a764000092838202908282048514831517156114a9576001600160801b031684038481116114a9576145bc9084611958565b11156145dc57508184029184830414841517156114a9576117229161196b565b8190939293106145e95750565b9250565b5050505060406001600160a01b0361461084602080600497518301019101613f85565b168151938480927f4cb44a760000000000000000000000000000000000000000000000000000000082525afa91821561149a575f905f9361465057509190565b9250506040823d60401161467e575b8161466c60409383611611565b810103126114a5576020825192015190565b3d915061465f565b600411156125a257565b91909161469c81614686565b806147315750600781900b905f82126146f0575064e8d4a51000811015611a3157633b9aca00820291808304633b9aca0014901517156114a957633b9aca000180633b9aca00116114a9576117229161196b565b9050633b9aca00820291808304633b9aca0014901517156114a9576147149061494b565b60070b633b9aca0003633b9aca0081116114a9576117229161196b565b61473a81614686565b6001810361474c5750611722916149cf565b60029061475881614686565b036147665761172291614963565b600781900b905f821261479a5750633b8b87c0811015611a3157633b9aca0003633b9aca0081116114a9576117229161432c565b6147a4915061494b565b60070b633b9aca000180633b9aca00116114a9576117229161432c565b906001600160401b03809116911602906001600160401b0382169182036114a957565b91815192831561494357600193808280614909575b80156148c6575b6148b257505b80851061481f57505050505f1981019081116114a95790565b61483081861860011c828716611b19565b90821561488557614858633b9aca006001600160401b036148518589611e58565b51166147c1565b6001600160401b038086169116115b156148725750614806565b9450600181018091116114a95793614806565b61489f633b9aca006001600160401b036148518589611e58565b6001600160401b03808616911610614867565b9450505050505f1981019081116114a95790565b508215801561480057505f1981018181116114a957633b9aca006001600160401b036148516148f59389611e58565b6001600160401b0380861691161015614800565b505f1981018181116114a957633b9aca006001600160401b0361485161492f9389611e58565b6001600160401b03808616911611156147f9565b505050505f90565b60070b677fffffffffffffff1981146114a9575f0390565b90600781900b905f82126149a25750633b8b87c0811015611a3157633b9aca0003633b9aca0081116114a957633b9aca009161499e91611958565b0490565b6149ac915061494b565b60070b633b9aca000180633b9aca00116114a957633b9aca009161499e91611958565b90600781900b905f8212614a05575064e8d4a51000811015611a3157633b9aca000180633b9aca00116114a95761172291614355565b614a0f915061494b565b60070b633b9aca0003633b9aca0081116114a95761172291614355565b8051810160a082602083019203126114a5576020820151600a8110156114a557604083015193600a8510156114a55760608401516001600160401b0381116114a557836020614a7d92870101611c6b565b9360808101516001600160401b0381116114a557846020614aa092840101611c6b565b9360a0820151916001600160401b0383116114a557614ac29201602001611c6b565b919493929190565b939492614adb90614ae29392614dd8565b809461520a565b9280670de0b6b3a764000003670de0b6b3a764000081116114a957614b079084611958565b670de0b6b3a7640000850290858204670de0b6b3a764000014861517156114a95781119182614b3f575b5050614b3957565b91508091565b909150670de0b6b3a76400000180670de0b6b3a7640000116114a957614b659084611958565b115f80614b31565b905f602091828151910182855af11561149a575f513d614bd157506001600160a01b0381163b155b614b9c5750565b6001600160a01b03907f5274afe7000000000000000000000000000000000000000000000000000000005f521660045260245ffd5b60011415614b95565b805181016040828203126114a55760208201519160018310156114a5576040810151916001600160401b0383116114a557614c1c926020809201920101611c6b565b9091565b600181111561172257806001700100000000000000000000000000000000831015614d43575b60048268010000000000000000614cf5941015614d36575b640100000000811015614d29575b62010000811015614d1c575b610100811015614d10575b6010811015614d04575b1015614cfc575b60030260011c614ca4818461196b565b0160011c614cb2818461196b565b0160011c614cc0818461196b565b0160011c614cce818461196b565b0160011c614cdc818461196b565b0160011c614cea818461196b565b0160011c809261196b565b8111900390565b60011b614c94565b811c9160021b91614c8d565b60081c91811b91614c83565b60101c9160081b91614c78565b60201c9160101b91614c6c565b60401c9160201b91614c5e565b5050608081901c68010000000000000000614c46565b6001600160401b0381116115c65760051b60200190565b9080601f830112156114a557815190614d8882614d59565b92614d966040519485611611565b82845260208085019360051b8201019182116114a557602001915b818310614dbe5750505090565b825160ff811681036114a557815260209283019201614db1565b600a8110156125a25780614fe4575090815182019160a081602085019403126114a55760208101516001600160401b0381116114a55781019280603f850112156114a5576020840151614e2a81614d59565b94614e386040519687611611565b8186526020808088019360051b83010101908382116114a557604001915b818310614fc45750505060408201516001600160401b0381116114a557820181603f820112156114a5576020810151614e8e81614d59565b91614e9c6040519384611611565b8183526020808085019360051b83010101908482116114a557604001915b818310614fa75750505060608301516001600160401b0381116114a557826020614ee692860101614d70565b9160808401516001600160401b0381116114a55760a0916020614f0b92870101614d70565b93015160028110156114a557670de0b6b3a7640000614f2e919694929596615621565b938351915f935b838510614f455750505050505090565b90919293949695614f9a6001916001600160a01b03614f64898c611e58565b511660ff614f728a87611e58565b511660ff614f808b89611e58565b51169163ffffffff614f928c8b611e58565b511693615660565b9697950193929190614f35565b825163ffffffff811681036114a557815260209283019201614eba565b82516001600160a01b03811681036114a557815260209283019201614e56565b60038103614ffa575050670de0b6b3a764000090565b60028103615010575050670de0b6b3a764000090565b60048103615063575050604051630f451f7160e31b8152670de0b6b3a7640000600482015260208160248173ae7ab96520de3a18e5e111b5eaab095312d7fe845afa90811561149a575f91614090575090565b600581036150a8575050604051633ba0b9a960e01b815260208160048173be9895146f7af43049ca1c1ae358b0541ea497045afa90811561149a575f91614090575090565b600681036150ed5750506040516339aa885b60e21b815260208160048173ae78736cd615f374d3085123a210448e74fc63935afa90811561149a575f91614090575090565b60078103615132575050604051634ca9858360e11b815260208160048173ac3e018457b222d93114458476f3e3416abbe38f5afa90811561149a575f91614090575090565b600881036151535750602081519181808201938492010103126114a5575190565b6009036151fd576040818051810103126114a557806020604061517f826001600160a01b0395016140c9565b920151916004604051809581937fa035b1fe000000000000000000000000000000000000000000000000000000008352165afa801561149a575f906151c9575b611722925061196b565b506020823d6020116151f5575b816151e360209383611611565b810103126114a55761172291516151bf565b3d91506151d6565b50670de0b6b3a764000090565b92919092600a8110156125a257806153db57508051810160a082602083019203126114a55760208201516001600160401b0381116114a55782019381603f860112156114a557602085015161525e81614d59565b9561526c6040519788611611565b8187526020808089019360051b83010101908482116114a557604001915b8183106153bb5750505060408301516001600160401b0381116114a55783019082603f830112156114a55760208201516152c381614d59565b926152d16040519485611611565b8184526020808086019360051b83010101908582116114a557604001915b81831061539e5750505060608401516001600160401b0381116114a55783602061531b92870101614d70565b9260808501516001600160401b0381116114a55760a091602061534092880101614d70565b9401519060028210156114a55761535b919694929596615621565b938351915f935b8385106153725750505050505090565b909192939496956153916001916001600160a01b03614f64898c611e58565b9697950193929190615362565b825163ffffffff811681036114a5578152602092830192016152ef565b82516001600160a01b03811681036114a55781526020928301920161528a565b91929091600381036153f657505050670de0b6b3a764000090565b600281036154045750905090565b6004810361545857505050604051630f451f7160e31b8152670de0b6b3a7640000600482015260208160248173ae7ab96520de3a18e5e111b5eaab095312d7fe845afa90811561149a575f91614090575090565b6005810361549e57505050604051633ba0b9a960e01b815260208160048173be9895146f7af43049ca1c1ae358b0541ea497045afa90811561149a575f91614090575090565b600681036154e4575050506040516339aa885b60e21b815260208160048173ae78736cd615f374d3085123a210448e74fc63935afa90811561149a575f91614090575090565b6007810361552a57505050604051634ca9858360e11b815260208160048173ac3e018457b222d93114458476f3e3416abbe38f5afa90811561149a575f91614090575090565b6008810361554c575050602081519181808201938492010103126114a5575190565b60090361557957506040818051810103126114a557806020604061517f826001600160a01b0395016140c9565b905090565b9091906155bd575080511561559557805190602001fd5b7fd6bda275000000000000000000000000000000000000000000000000000000005f5260045ffd5b9080511580615609575b6155ce5790565b7f9996b315000000000000000000000000000000000000000000000000000000005f526e22d473030f116ddee9f6b43ac78ba360045260245ffd5b506e22d473030f116ddee9f6b43ac78ba33b156155c7565b60028110156125a2576117225750670de0b6b3a764000090565b519069ffffffffffffffffffff821682036114a557565b604d81116114a957600a0a90565b91909360a06001600160a01b0394956004604051809781937ffeaf968c000000000000000000000000000000000000000000000000000000008352165afa90811561149a575f945f92615736575b505f85139182159261571a575b50506156f25760ff166001036156e2576156dc61172293926127dd92611958565b91615652565b6119bc90613f4061172294615652565b7fae193563000000000000000000000000000000000000000000000000000000005f5260045ffd5b63ffffffff91925061572c9042612017565b9116105f806156bb565b9450905060a0843d60a011615784575b8161575360a09383611611565b810103126114a5576157648461563b565b50602084015161577b60806060870151960161563b565b5093905f6156ae565b3d915061574656fe4b2dd303f68b99d244b702089c802b6e9ea1b5d4ef61fd436d6c41abb1178c754b2dd303f68b99d244b702089c802b6e9ea1b5d4ef61fd436d6c41abb1178c76a26469706673582212208d4b2a0240f9148e30b24246f976cf72b9e329bdfeae4de065d0920b92563f6564736f6c634300081c0033",
  "devdoc": {
    "author": "Cooper Labs",
    "custom:contact": "security@cooperlabs.xyz",
    "details": "In all the functions of this contract, one of `tokenIn` or `tokenOut` must be the stablecoin, and one of `tokenOut` or `tokenIn` must be an accepted collateral. Depending on the `tokenIn` or `tokenOut` given, the functions will either handle a mint or a burn operationIn case of a burn, they will also revert if the system does not have enough of `amountOut` for `tokenOut`. This balance must be available either directly on the contract or, when applicable, through the underlying strategies that manage the collateralFunctions here may be paused for some collateral assets (for either mint or burn), in which case they'll revertIn case of a burn again, the swap functions will revert if the call concerns a collateral that requires a whitelist but the `to` address does not have it. The quote functions will not revert in this case.Calling one of the swap functions in a burn case does not require any prior token approvalThis contract is an authorized fork of Angle's `Swapper` contract https://github.com/AngleProtocol/angle-transmuter/blob/main/contracts/transmuter/facets/Swapper.sol",
    "errors": {
      "AddressEmptyCode(address)": [
        {
          "details": "There's no code at `target` (it is not a contract)."
        }
      ],
      "FailedCall()": [
        {
          "details": "A call to an address target failed. The target may have reverted."
        }
      ],
      "InsufficientBalance(uint256,uint256)": [
        {
          "details": "The ETH balance of the account is not enough to perform the operation."
        }
      ],
      "SafeCastOverflowedUintDowncast(uint8,uint256)": [
        {
          "details": "Value doesn't fit in an uint of `bits` size."
        }
      ],
      "SafeERC20FailedOperation(address)": [
        {
          "details": "An operation with an ERC-20 token failed."
        }
      ]
    },
    "kind": "dev",
    "methods": {
      "swapExactInput(uint256,uint256,address,address,address,uint256)": {
        "details": "`msg.sender` must have approved this contract for at least `amountIn` for `tokenIn` for mint transactions",
        "params": {
          "amountIn": "Amount of `tokenIn` to bring",
          "amountOutMin": "Minimum amount of `tokenOut` to get: if `amountOut` is inferior to this amount, the function will revert",
          "deadline": "Timestamp before which the transaction must be executed",
          "to": "Address to which `tokenOut` must be sent",
          "tokenIn": "Token to bring for the swap",
          "tokenOut": "Token to get out of the swap"
        },
        "returns": {
          "amountOut": "Amount of `tokenOut` obtained through the swap"
        }
      },
      "swapExactInputWithPermit(uint256,uint256,address,address,uint256,bytes)": {
        "details": "Can only be used to mint, hence `tokenOut` is not needed"
      },
      "swapExactOutput(uint256,uint256,address,address,address,uint256)": {
        "details": "`msg.sender` must have approved this contract for an amount bigger than what `amountIn` will be before calling this function for a mint. Approving the contract for `tokenIn` with `amountInMax` will always be enough in this case",
        "params": {
          "amountInMax": "Maximum amount of `tokenIn` to bring in order to get `amountOut` of `tokenOut`",
          "amountOut": "Amount of `tokenOut` to obtain from the swap",
          "deadline": "Timestamp before which the transaction must be executed",
          "to": "Address to which `tokenOut` must be sent",
          "tokenIn": "Token to bring for the swap",
          "tokenOut": "Token to get out of the swap"
        },
        "returns": {
          "amountIn": "Amount of `tokenIn` used to perform the swap"
        }
      },
      "swapExactOutputWithPermit(uint256,uint256,address,address,uint256,bytes)": {
        "details": "Can only be used to mint, hence `tokenOut` is not needed"
      }
    },
    "title": "Swapper",
    "version": 1
  },
  "userdoc": {
    "kind": "user",
    "methods": {
      "quoteIn(uint256,address,address)": {
        "notice": "Simulates what a call to `swapExactInput` with `amountIn` of `tokenIn` for `tokenOut` would give. If called right before and at the same block, the `amountOut` outputted by this function is exactly the amount that will be obtained with `swapExactInput`"
      },
      "quoteOut(uint256,address,address)": {
        "notice": "Simulates what a call to `swapExactOutput` for `amountOut` of `tokenOut` with `tokenIn` would give. If called right before and at the same block, the `amountIn` outputted by this function is exactly the amount that will be obtained with `swapExactOutput`"
      },
      "swapExactInput(uint256,uint256,address,address,address,uint256)": {
        "notice": "Swaps (that is to say mints or burns) an exact amount of `tokenIn` for an amount of `tokenOut`"
      },
      "swapExactInputWithPermit(uint256,uint256,address,address,uint256,bytes)": {
        "notice": "Same as `swapExactInput`, but using Permit2 signatures for `tokenIn`"
      },
      "swapExactOutput(uint256,uint256,address,address,address,uint256)": {
        "notice": "Swaps (that is to say mints or burns) an amount of `tokenIn` for an exact amount of `tokenOut`"
      },
      "swapExactOutputWithPermit(uint256,uint256,address,address,uint256,bytes)": {
        "notice": "Same as `swapExactOutput`, but using Permit2 signatures for `tokenIn`"
      }
    },
    "version": 1
  },
  "storageLayout": {
    "storage": [],
    "types": null
  }
}