{
  "address": "0x0d45b129dc868963025db79a9074ea9c9e32cae4",
  "abi": [
    {
      "inputs": [
        {
          "internalType": "address",
          "name": "initialTokenTransferAddress",
          "type": "address"
        },
        {
          "internalType": "address",
          "name": "initialSwapRouter",
          "type": "address"
        },
        {
          "internalType": "contract ITokenP",
          "name": "definitivetokenP",
          "type": "address"
        },
        {
          "internalType": "contract IParallelizer",
          "name": "definitiveParallelizer",
          "type": "address"
        },
        {
          "internalType": "address",
          "name": "initialAuthority",
          "type": "address"
        },
        {
          "internalType": "contract IERC3156FlashLender",
          "name": "definitiveFlashloan",
          "type": "address"
        }
      ],
      "stateMutability": "nonpayable",
      "type": "constructor"
    },
    {
      "inputs": [
        {
          "internalType": "address",
          "name": "authority",
          "type": "address"
        }
      ],
      "name": "AccessManagedInvalidAuthority",
      "type": "error"
    },
    {
      "inputs": [
        {
          "internalType": "address",
          "name": "caller",
          "type": "address"
        },
        {
          "internalType": "uint32",
          "name": "delay",
          "type": "uint32"
        }
      ],
      "name": "AccessManagedRequiredDelay",
      "type": "error"
    },
    {
      "inputs": [
        {
          "internalType": "address",
          "name": "caller",
          "type": "address"
        }
      ],
      "name": "AccessManagedUnauthorized",
      "type": "error"
    },
    {
      "inputs": [],
      "name": "InvalidParam",
      "type": "error"
    },
    {
      "inputs": [],
      "name": "NotTrusted",
      "type": "error"
    },
    {
      "inputs": [],
      "name": "NotTrustedOrGuardian",
      "type": "error"
    },
    {
      "inputs": [
        {
          "internalType": "address",
          "name": "token",
          "type": "address"
        }
      ],
      "name": "SafeERC20FailedOperation",
      "type": "error"
    },
    {
      "inputs": [],
      "name": "SwapError",
      "type": "error"
    },
    {
      "inputs": [],
      "name": "ZeroAddress",
      "type": "error"
    },
    {
      "inputs": [],
      "name": "ZeroAmount",
      "type": "error"
    },
    {
      "anonymous": false,
      "inputs": [
        {
          "indexed": false,
          "internalType": "address",
          "name": "authority",
          "type": "address"
        }
      ],
      "name": "AuthorityUpdated",
      "type": "event"
    },
    {
      "anonymous": false,
      "inputs": [
        {
          "indexed": false,
          "internalType": "address",
          "name": "token",
          "type": "address"
        },
        {
          "indexed": false,
          "internalType": "uint256",
          "name": "amount",
          "type": "uint256"
        },
        {
          "indexed": false,
          "internalType": "address",
          "name": "to",
          "type": "address"
        }
      ],
      "name": "Recovered",
      "type": "event"
    },
    {
      "anonymous": false,
      "inputs": [
        {
          "indexed": false,
          "internalType": "address",
          "name": "newSwapRouter",
          "type": "address"
        }
      ],
      "name": "SwapRouterUpdated",
      "type": "event"
    },
    {
      "anonymous": false,
      "inputs": [
        {
          "indexed": false,
          "internalType": "address",
          "name": "newTokenTransferAddress",
          "type": "address"
        }
      ],
      "name": "TokenTransferAddressUpdated",
      "type": "event"
    },
    {
      "anonymous": false,
      "inputs": [
        {
          "indexed": false,
          "internalType": "address",
          "name": "trusted",
          "type": "address"
        },
        {
          "indexed": false,
          "internalType": "bool",
          "name": "status",
          "type": "bool"
        }
      ],
      "name": "TrustedToggled",
      "type": "event"
    },
    {
      "inputs": [],
      "name": "CALLBACK_SUCCESS",
      "outputs": [
        {
          "internalType": "bytes32",
          "name": "",
          "type": "bytes32"
        }
      ],
      "stateMutability": "view",
      "type": "function"
    },
    {
      "inputs": [
        {
          "internalType": "uint256",
          "name": "amount",
          "type": "uint256"
        },
        {
          "internalType": "address",
          "name": "receiver",
          "type": "address"
        }
      ],
      "name": "addBudget",
      "outputs": [],
      "stateMutability": "nonpayable",
      "type": "function"
    },
    {
      "inputs": [],
      "name": "authority",
      "outputs": [
        {
          "internalType": "address",
          "name": "",
          "type": "address"
        }
      ],
      "stateMutability": "view",
      "type": "function"
    },
    {
      "inputs": [
        {
          "internalType": "address",
          "name": "",
          "type": "address"
        }
      ],
      "name": "budget",
      "outputs": [
        {
          "internalType": "uint256",
          "name": "",
          "type": "uint256"
        }
      ],
      "stateMutability": "view",
      "type": "function"
    },
    {
      "inputs": [
        {
          "internalType": "address",
          "name": "yieldBearingAsset",
          "type": "address"
        }
      ],
      "name": "computeRebalanceAmount",
      "outputs": [
        {
          "internalType": "uint8",
          "name": "increase",
          "type": "uint8"
        },
        {
          "internalType": "uint256",
          "name": "amount",
          "type": "uint256"
        }
      ],
      "stateMutability": "view",
      "type": "function"
    },
    {
      "inputs": [],
      "name": "flashloan",
      "outputs": [
        {
          "internalType": "contract IERC3156FlashLender",
          "name": "",
          "type": "address"
        }
      ],
      "stateMutability": "view",
      "type": "function"
    },
    {
      "inputs": [
        {
          "internalType": "address",
          "name": "yieldBearingAsset",
          "type": "address"
        },
        {
          "internalType": "uint256",
          "name": "scale",
          "type": "uint256"
        },
        {
          "internalType": "bytes",
          "name": "extraData",
          "type": "bytes"
        }
      ],
      "name": "harvest",
      "outputs": [],
      "stateMutability": "nonpayable",
      "type": "function"
    },
    {
      "inputs": [],
      "name": "isConsumingScheduledOp",
      "outputs": [
        {
          "internalType": "bytes4",
          "name": "",
          "type": "bytes4"
        }
      ],
      "stateMutability": "view",
      "type": "function"
    },
    {
      "inputs": [
        {
          "internalType": "address",
          "name": "",
          "type": "address"
        }
      ],
      "name": "isTrusted",
      "outputs": [
        {
          "internalType": "bool",
          "name": "",
          "type": "bool"
        }
      ],
      "stateMutability": "view",
      "type": "function"
    },
    {
      "inputs": [
        {
          "internalType": "address",
          "name": "",
          "type": "address"
        }
      ],
      "name": "maxTokenSlippage",
      "outputs": [
        {
          "internalType": "uint96",
          "name": "",
          "type": "uint96"
        }
      ],
      "stateMutability": "view",
      "type": "function"
    },
    {
      "inputs": [
        {
          "internalType": "address",
          "name": "initiator",
          "type": "address"
        },
        {
          "internalType": "address",
          "name": "",
          "type": "address"
        },
        {
          "internalType": "uint256",
          "name": "amount",
          "type": "uint256"
        },
        {
          "internalType": "uint256",
          "name": "fee",
          "type": "uint256"
        },
        {
          "internalType": "bytes",
          "name": "data",
          "type": "bytes"
        }
      ],
      "name": "onFlashLoan",
      "outputs": [
        {
          "internalType": "bytes32",
          "name": "",
          "type": "bytes32"
        }
      ],
      "stateMutability": "nonpayable",
      "type": "function"
    },
    {
      "inputs": [],
      "name": "parallelizer",
      "outputs": [
        {
          "internalType": "contract IParallelizer",
          "name": "",
          "type": "address"
        }
      ],
      "stateMutability": "view",
      "type": "function"
    },
    {
      "inputs": [
        {
          "internalType": "address",
          "name": "tokenAddress",
          "type": "address"
        },
        {
          "internalType": "uint256",
          "name": "amountToRecover",
          "type": "uint256"
        },
        {
          "internalType": "address",
          "name": "to",
          "type": "address"
        }
      ],
      "name": "recoverERC20",
      "outputs": [],
      "stateMutability": "nonpayable",
      "type": "function"
    },
    {
      "inputs": [
        {
          "internalType": "uint256",
          "name": "amount",
          "type": "uint256"
        },
        {
          "internalType": "address",
          "name": "receiver",
          "type": "address"
        }
      ],
      "name": "removeBudget",
      "outputs": [],
      "stateMutability": "nonpayable",
      "type": "function"
    },
    {
      "inputs": [
        {
          "internalType": "address",
          "name": "newAuthority",
          "type": "address"
        }
      ],
      "name": "setAuthority",
      "outputs": [],
      "stateMutability": "nonpayable",
      "type": "function"
    },
    {
      "inputs": [
        {
          "internalType": "address",
          "name": "yieldBearingAsset",
          "type": "address"
        },
        {
          "internalType": "uint96",
          "name": "newMaxSlippage",
          "type": "uint96"
        }
      ],
      "name": "setMaxSlippage",
      "outputs": [],
      "stateMutability": "nonpayable",
      "type": "function"
    },
    {
      "inputs": [
        {
          "internalType": "address",
          "name": "newSwapRouter",
          "type": "address"
        }
      ],
      "name": "setSwapRouter",
      "outputs": [],
      "stateMutability": "nonpayable",
      "type": "function"
    },
    {
      "inputs": [
        {
          "internalType": "address",
          "name": "yieldBearingAsset",
          "type": "address"
        },
        {
          "internalType": "uint64",
          "name": "targetExposure",
          "type": "uint64"
        }
      ],
      "name": "setTargetExposure",
      "outputs": [],
      "stateMutability": "nonpayable",
      "type": "function"
    },
    {
      "inputs": [
        {
          "internalType": "address",
          "name": "newTokenTransferAddress",
          "type": "address"
        }
      ],
      "name": "setTokenTransferAddress",
      "outputs": [],
      "stateMutability": "nonpayable",
      "type": "function"
    },
    {
      "inputs": [
        {
          "internalType": "address",
          "name": "yieldBearingAsset",
          "type": "address"
        },
        {
          "internalType": "address",
          "name": "asset",
          "type": "address"
        },
        {
          "internalType": "uint64",
          "name": "targetExposure",
          "type": "uint64"
        },
        {
          "internalType": "uint64",
          "name": "minExposure",
          "type": "uint64"
        },
        {
          "internalType": "uint64",
          "name": "maxExposure",
          "type": "uint64"
        },
        {
          "internalType": "uint64",
          "name": "overrideExposures",
          "type": "uint64"
        },
        {
          "internalType": "uint96",
          "name": "maxSlippage",
          "type": "uint96"
        }
      ],
      "name": "setYieldBearingAssetData",
      "outputs": [],
      "stateMutability": "nonpayable",
      "type": "function"
    },
    {
      "inputs": [],
      "name": "swapRouter",
      "outputs": [
        {
          "internalType": "address",
          "name": "",
          "type": "address"
        }
      ],
      "stateMutability": "view",
      "type": "function"
    },
    {
      "inputs": [
        {
          "internalType": "address",
          "name": "trusted",
          "type": "address"
        }
      ],
      "name": "toggleTrusted",
      "outputs": [],
      "stateMutability": "nonpayable",
      "type": "function"
    },
    {
      "inputs": [],
      "name": "tokenP",
      "outputs": [
        {
          "internalType": "contract ITokenP",
          "name": "",
          "type": "address"
        }
      ],
      "stateMutability": "view",
      "type": "function"
    },
    {
      "inputs": [],
      "name": "tokenTransferAddress",
      "outputs": [
        {
          "internalType": "address",
          "name": "",
          "type": "address"
        }
      ],
      "stateMutability": "view",
      "type": "function"
    },
    {
      "inputs": [
        {
          "internalType": "address",
          "name": "yieldBearingAsset",
          "type": "address"
        }
      ],
      "name": "updateLimitExposuresYieldAsset",
      "outputs": [],
      "stateMutability": "nonpayable",
      "type": "function"
    },
    {
      "inputs": [
        {
          "internalType": "address",
          "name": "",
          "type": "address"
        }
      ],
      "name": "yieldBearingData",
      "outputs": [
        {
          "internalType": "address",
          "name": "asset",
          "type": "address"
        },
        {
          "internalType": "uint64",
          "name": "targetExposure",
          "type": "uint64"
        },
        {
          "internalType": "uint64",
          "name": "maxExposure",
          "type": "uint64"
        },
        {
          "internalType": "uint64",
          "name": "minExposure",
          "type": "uint64"
        },
        {
          "internalType": "uint64",
          "name": "overrideExposures",
          "type": "uint64"
        },
        {
          "internalType": "uint96",
          "name": "maxSlippage",
          "type": "uint96"
        }
      ],
      "stateMutability": "view",
      "type": "function"
    }
  ],
  "contractName": "GenericHarvester",
  "sourceName": "contracts/helpers/GenericHarvester.sol",
  "bytecode": "0x60e080604052346101e95760c08161270c803803809161001f828561020f565b8339810103126101e95761003281610246565b9061003f60208201610246565b6040820151926001600160a01b038416918285036101e95760608401516001600160a01b03811681036101e95760a061007a60808701610246565b950151956001600160a01b038716958688036101e9575f80546001600160a01b0319166001600160a01b0390921691821790556040519081527f2f658b440c35314f52658ea8a740e05b284cdc84dc9ae01e891f21b8933e7cad90602090a160a052608052600480546001600160a01b039283166001600160a01b0319918216179091556005805493909216921691909117905581156102005760446020925f9460c052604051948593849263095ea7b360e01b84526004840152811960248401525af180156101f5576101b9575b6040516124b1908161025b823960805181818161027601528181610ce601528181610e1e01528181611cd70152612069015260a0518181816103bf0152818161066c01528181610e4b015281816115790152611600015260c05181818161040701528181610d5b01526115bd0152f35b6020813d6020116101ed575b816101d26020938361020f565b810103126101e95751801515036101e9575f610149565b5f80fd5b3d91506101c5565b6040513d5f823e3d90fd5b63d92e233d60e01b5f5260045ffd5b601f909101601f19168101906001600160401b0382119082101761023257604052565b634e487b7160e01b5f52604160045260245ffd5b51906001600160a01b03821682036101e95756fe60806040526004361015610011575f80fd5b5f5f3560e01c80630dd3932d1461166a57806313047520146116245780631978a5ed146115e15780631b89b61a1461159e578063212c8fb1146114e557806323e30c8b14610d0a57806335b37d1a14610cc75780634127365714610c455780635a7cb38f14610c1f578063641bd50314610b6d5780637a9e5e4b14610a9f5780637ee8434914610a0e5780638195001d146109ed5780638237e538146109b35780638fb360371461094057806396d64879146109035780639ae784861461082e578063b51609b4146107a7578063bf7e214f14610782578063c31c9c071461075c578063c5e6d5ea146106cb578063c9c6667414610693578063d2d0ec101461062a578063da94e205146105b1578063e234b903146105025763edf0ef0314610138575f80fd5b346104ae5760603660031901126104ae576101516118c0565b60243560443567ffffffffffffffff81116104ae576101749036906004016118ec565b9290633b9aca0083116104da578161018d600293611a33565b6001600160a01b03811690815f5283602052633b9aca0061022c61022460405f206bffffffffffffffffffffffff6040519889926101ca84611972565b67ffffffffffffffff81546001600160a01b038116865260a01c16602085015267ffffffffffffffff60018201548181166040870152818160401c16606087015260801c1660808501520154169460a08201958652611cca565b979097611a79565b049586156104b2578301926040818503126104ae5780359360028510156104ae57602082013567ffffffffffffffff81116104ae5761026b92016119e0565b936001600160a01b037f000000000000000000000000000000000000000000000000000000000000000016803b156104ae575f80916024604051809481937f1cb44dfc0000000000000000000000000000000000000000000000000000000083528960048401525af1610492575b506001600160a01b036bffffffffffffffffffffffff915116915116633b9aca00036bffffffffffffffffffffffff811161047e5760ff946103fa97946103849460209894633b9aca0061033e6bffffffffffffffffffffffff61037697168a611a79565b0491604051998a97338d8a01521660408801526060870152608086015260a085015260c084015260e0808401526101008301906122a3565b03601f1981018452836119a2565b60405193849283927f5cffe9de0000000000000000000000000000000000000000000000000000000084523060048501526001600160a01b037f000000000000000000000000000000000000000000000000000000000000000016602485015260448401526080606484015260848301906122a3565b0381856001600160a01b037f0000000000000000000000000000000000000000000000000000000000000000165af1801561047357610437575080f35b6020813d60201161046b575b81610450602093836119a2565b810103126104675751801515036104645780f35b80fd5b5080fd5b3d9150610443565b6040513d84823e3d90fd5b602488634e487b7160e01b81526011600452fd5b61049f9198505f906119a2565b5f966001600160a01b036102d9565b5f80fd5b7f1f2a2005000000000000000000000000000000000000000000000000000000005f5260045ffd5b7fd2529034000000000000000000000000000000000000000000000000000000005f5260045ffd5b346104ae5760203660031901126104ae576001600160a01b036105236118c0565b610536336105313633611a8c565b61191a565b168015610589576020817ffd238617dbf7bc2e2e9c11b00a61a76432989bf0d6ca3a5aa34381a8752db4039273ffffffffffffffffffffffffffffffffffffffff196005541617600555604051908152a1005b7fd92e233d000000000000000000000000000000000000000000000000000000005f5260045ffd5b346104ae5760403660031901126104ae576105ca6118c0565b602435906bffffffffffffffffffffffff82168092036104ae576105f2336105313633611a8c565b633b9aca0082116104da576001600160a01b03165f52600160205260405f20906bffffffffffffffffffffffff198254161790555f80f35b346104ae5760403660031901126104ae576106916004356106496118d6565b335f52600660205260405f20610660838254611a26565b90556001600160a01b037f00000000000000000000000000000000000000000000000000000000000000001661224c565b005b346104ae5760203660031901126104ae576001600160a01b036106b46118c0565b165f526006602052602060405f2054604051908152f35b346104ae5760203660031901126104ae576001600160a01b036106ec6118c0565b165f52600260205260c060405f2080549067ffffffffffffffff6bffffffffffffffffffffffff60026001840154930154169181604051946001600160a01b038116865260a01c1660208501528181166040850152818160401c16606085015260801c16608083015260a0820152f35b346104ae575f3660031901126104ae5760206001600160a01b0360045416604051908152f35b346104ae575f3660031901126104ae5760206001600160a01b035f5416604051908152f35b346104ae5760603660031901126104ae576107c06118c0565b6024356044356001600160a01b0381168082036104ae577fb197f0a554c4d7840105e6ae65f0e275e9e8605a969dffa8caa7f1f118a2e1f560606106919561080c336105313633611a8c565b6001600160a01b036040519116938482528660208301526040820152a161224c565b346104ae5760403660031901126104ae576108476118c0565b60243567ffffffffffffffff811681036104ae57335f52600360205260ff60405f20541615806108f2575b6108ca576001600160a01b0361069192165f52600260205260405f20907fffffffff0000000000000000ffffffffffffffffffffffffffffffffffffffff67ffffffffffffffff60a01b83549260a01b169116179055565b7f0dcc030f000000000000000000000000000000000000000000000000000000005f5260045ffd5b506108fd3633611a8c565b15610872565b346104ae5760203660031901126104ae576001600160a01b036109246118c0565b165f526003602052602060ff60405f2054166040519015158152f35b346104ae575f3660031901126104ae575f5460a01c60ff16156109ab5760207f8fb36037000000000000000000000000000000000000000000000000000000005b7fffffffff0000000000000000000000000000000000000000000000000000000060405191168152f35b60205f610981565b346104ae575f3660031901126104ae5760206040517f439148f0bbc682ca079e46d6e2c2f0c1e3b820f1a291b069d8882abf8cf18dd98152f35b346104ae5760203660031901126104ae57610691610a096118c0565b611a33565b346104ae5760203660031901126104ae576001600160a01b03610a2f6118c0565b610a3d336105313633611a8c565b16805f5260036020527f7628ea5f6112a16b36a8239aa208395a8e8f221688cfb3a5461faffb9700abcd604060ff815f20541681519084825215156020820152a15f908152600360205260409020805460ff818116151660ff19909116179055005b346104ae5760203660031901126104ae57610ab86118c0565b5f54906001600160a01b0382163303610b5b57803b15610b265773ffffffffffffffffffffffffffffffffffffffff197f2f658b440c35314f52658ea8a740e05b284cdc84dc9ae01e891f21b8933e7cad926001600160a01b036020931691829116175f55604051908152a1005b6001600160a01b03907fc2f31e5e000000000000000000000000000000000000000000000000000000005f521660045260245ffd5b62d1953b60e31b5f523360045260245ffd5b346104ae5760203660031901126104ae576040610c10610b8b6118c0565b6001600160a01b0381165f526002602052825f20906bffffffffffffffffffffffff6002855193610bbb85611972565b67ffffffffffffffff81546001600160a01b038116875260a01c16602086015267ffffffffffffffff60018201548181168988015281818a1c16606088015260801c16608086015201541660a0830152611cca565b60ff8351921682526020820152f35b346104ae575f3660031901126104ae5760206001600160a01b0360055416604051908152f35b346104ae5760203660031901126104ae576001600160a01b03610c666118c0565b610c74336105313633611a8c565b168015610589576020817f36db479a3b4d3672bd6f5fca4484283f60b5ac70647b1ceec13ecbb1d030a2df9273ffffffffffffffffffffffffffffffffffffffff196004541617600455604051908152a1005b346104ae575f3660031901126104ae5760206040516001600160a01b037f0000000000000000000000000000000000000000000000000000000000000000168152f35b346104ae5760a03660031901126104ae57610d236118c0565b610d2b6118d6565b5060443560843567ffffffffffffffff81116104ae57610d4f9036906004016118ec565b90926001600160a01b037f0000000000000000000000000000000000000000000000000000000000000000163314908115916114d1575b5080156114c6575b61149e5782019060e0838303126104ae57610da88361195e565b92610db56040820161195e565b610dc16060830161195e565b9360a08301359060028210156104ae5760c08401359067ffffffffffffffff82116104ae57610dfc6001600160a01b039291839287016119e0565b9616921694600160208501351495865f146114985792915b6001600160a01b037f0000000000000000000000000000000000000000000000000000000000000000169687916001600160a01b037f00000000000000000000000000000000000000000000000000000000000000001694604051926301db50ff60e51b84528960048501525f602485015286604485015260208460c4815f6001600160a01b038716998a60648401523060848401524260a48401525af19384156110c9575f94611464575b505f92600181036112c357505050506001600160a01b03851690604051936370a0823160e01b8552306004860152602085602481865afa9485156110c9575f9561128f575b50604093845192610f1686856119a2565b60018452601f1986019182366020870137610f3085612029565b52855192610f3e87856119a2565b600184525f5b83811061127e5750610f5584612029565b52610f5f83612029565b50855191610f6d87846119a2565b60018352366020840137610f8082612029565b528251925f5b84811061111c57505050505060206024918351928380926370a0823160e01b82523060048301525afa91821561111357505f916110d4575b5060809660c4936001600160a01b03610fdc60209897955f95611a26565b945b610fe9868583611c29565b6040519a8b9889976301db50ff60e51b895260048901520135602487015216604485015260648401523060848401524260a48401525af19182156110c9575f92611095575b50818111611061575b60206040517f439148f0bbc682ca079e46d6e2c2f0c1e3b820f1a291b069d8882abf8cf18dd98152f35b6001600160a01b039161107391611a26565b91165f52600660205261108b60405f20918254611a26565b9055808080611037565b9091506020813d6020116110c1575b816110b1602093836119a2565b810103126104ae5751908361102e565b3d91506110a4565b6040513d5f823e3d90fd5b905060209493919294813d60201161110b575b816110f4602093836119a2565b810103126104ae5751929390929091906080610fbe565b3d91506110e7565b513d5f823e3d90fd5b6001600160a01b0361112e828461204a565b51166001600160a01b036005541690611147838661204a565b518951636eb1769f60e11b81523060048201526001600160a01b03841660248201529290602084604481865afa938415611274575f94611241575b50808410611225575b505050505f8061119b838761204a565b516001600160a01b036004541682602083519301915af13d1561121d573d906111c3826119c4565b916111d08a5193846119a2565b82523d5f602084013e5b156111e85750600101610f86565b80519081611218577f7c3eb9ca000000000000000000000000000000000000000000000000000000005f5260045ffd5b602001fd5b6060906111da565b6112389361123291611a26565b91612334565b8e80808061118b565b9093506020813d821161126c575b8161125c602093836119a2565b810103126104ae5751925f611182565b3d915061124f565b8b513d5f823e3d90fd5b806060602080938801015201610f44565b9094506020813d6020116112bb575b816112ab602093836119a2565b810103126104ae5751938b610f05565b3d915061129e565b9091939492989a979550156112f0575b50505050925f6080969360c4936001600160a01b03602097610fde565b9396509192869290156113ba5750611309918391611c29565b604051907f6e553f6500000000000000000000000000000000000000000000000000000000825260048201523060248201526020816044815f6001600160a01b0389165af19081156110c9575f91611380575b50925f6080969360c4936001600160a01b036020975b9750829699508195506112d3565b95929390506020863d6020116113b2575b8161139e602093836119a2565b810103126104ae579451919492915f61135c565b3d9150611391565b90506020915060645f9360405194859384927fba08765200000000000000000000000000000000000000000000000000000000845260048401523060248401523060448401525af19081156110c9575f9161142a575b50925f6080969360c4936001600160a01b03602097611372565b95929390506020863d60201161145c575b81611448602093836119a2565b810103126104ae579451919492915f611410565b3d915061143b565b9093506020813d602011611490575b81611480602093836119a2565b810103126104ae5751928c610ec0565b3d9150611473565b91610e14565b7fc22a648e000000000000000000000000000000000000000000000000000000005f5260045ffd5b506064351515610d8e565b6001600160a01b0316301415905084610d86565b346104ae5760403660031901126104ae576106916004356001600160a01b0361150c6118d6565b165f52600660205260405f2061152382825461193d565b9055604051907f23b872dd00000000000000000000000000000000000000000000000000000000602083015233602483015230604483015260648201526064815261156f6084826119a2565b6001600160a01b037f0000000000000000000000000000000000000000000000000000000000000000166122c7565b346104ae575f3660031901126104ae5760206040516001600160a01b037f0000000000000000000000000000000000000000000000000000000000000000168152f35b346104ae575f3660031901126104ae5760206040516001600160a01b037f0000000000000000000000000000000000000000000000000000000000000000168152f35b346104ae5760203660031901126104ae576001600160a01b036116456118c0565b165f52600160205260206bffffffffffffffffffffffff60405f205416604051908152f35b346104ae5760e03660031901126104ae576116836118c0565b61168b6118d6565b6044359167ffffffffffffffff8316918284036104ae576064359267ffffffffffffffff8416918285036104ae576084359567ffffffffffffffff87168097036104ae5760a4359467ffffffffffffffff8616908187036104ae5760c435906bffffffffffffffffffffffff82168092036104ae576001600160a01b0390611717336105313633611a8c565b165f526002602052633b9aca0060405f20956001600160a01b03861673ffffffffffffffffffffffffffffffffffffffff1988541617875510156104da57633b9aca008110156104da576117a460019386907fffffffff0000000000000000ffffffffffffffffffffffffffffffffffffffff67ffffffffffffffff60a01b83549260a01b169116179055565b828501967fffffffffffffffff0000000000000000ffffffffffffffffffffffffffffffff77ffffffffffffffff0000000000000000000000000000000089549260801b16911617875560028501906bffffffffffffffffffffffff19825416179055145f1461187857505083633b9aca0081109182159261186d575b50506104da576106919267ffffffffffffffff19825416178155906fffffffffffffffff0000000000000000196fffffffffffffffff000000000000000083549260401b169116179055565b101590508385611821565b929150925061069193507002000000000000000000000000000000007fffffffffffffffff0000000000000000ffffffffffffffffffffffffffffffff82541617905561205e565b600435906001600160a01b03821682036104ae57565b602435906001600160a01b03821682036104ae57565b9181601f840112156104ae5782359167ffffffffffffffff83116104ae57602083818601950101116104ae57565b156119225750565b6001600160a01b039062d1953b60e31b5f521660045260245ffd5b9190820180921161194a57565b634e487b7160e01b5f52601160045260245ffd5b35906001600160a01b03821682036104ae57565b60c0810190811067ffffffffffffffff82111761198e57604052565b634e487b7160e01b5f52604160045260245ffd5b90601f8019910116810190811067ffffffffffffffff82111761198e57604052565b67ffffffffffffffff811161198e57601f01601f191660200190565b81601f820112156104ae578035906119f7826119c4565b92611a0560405194856119a2565b828452602083830101116104ae57815f926020809301838601378301015290565b9190820391821161194a57565b6001600160a01b03165f52600260205260405f20600267ffffffffffffffff600183015460801c1614611a635750565b806001600160a01b03611a7792541661205e565b565b8181029291811591840414171561194a57565b905f915f54916001600160a01b03831692816004116104ae575f5f9060405f8151966001600160a01b0360208901917fb700961300000000000000000000000000000000000000000000000000000000835216978860248201523060448201527fffffffff00000000000000000000000000000000000000000000000000000000833516606482015260648152611b246084826119a2565b828052826020525190895afa611c16575b15611b46575b505050505050600190565b63ffffffff1615611c0d5760ff60a01b191674010000000000000000000000000000000000000000175f55823b156104ae576064925f92836040519586809581947f94c7d7ee0000000000000000000000000000000000000000000000000000000083526004830152604060248301528060448301528084848401378181018301849052601f01601f191681010301925af180156110c957611bfa575b5060ff60a01b1981541690555f8080808080611b3b565b611c0691505f906119a2565b5f5f611be3565b50505050505f90565b50505f516020518060201c150290611b35565b604051636eb1769f60e11b81523060048201526001600160a01b038381166024830152909391169190602084604481865afa9384156110c9575f94611c80575b508310611c7557505050565b611a77921991612334565b9093506020813d602011611cac575b81611c9c602093836119a2565b810103126104ae5751925f611c69565b3d9150611c8f565b91908260409103126104ae576020825192015190565b915f926001600160a01b037f000000000000000000000000000000000000000000000000000000000000000016906001600160a01b0360405191634a71aecf60e11b8352166004820152604081602481855afa9081156110c9575f905f92611ee6575b5060406001600160a01b038651166024825180968193634a71aecf60e11b835260048301525afa9283156110c9575f93611eb4575b50611d7b8267ffffffffffffffff602088015116611a79565b633b9aca008202828104633b9aca00148315171561194a57811015611e2b576040611dba611dc39493633b9aca0067ffffffffffffffff940490611a26565b96015116611a79565b633b9aca008202828104633b9aca00148315171561194a57811015611de957505f925050565b611df3848361193d565b633b9aca00810290808204633b9aca00149015171561194a578110611e16575050565b611e28929350633b9aca009004611a26565b90565b95509067ffffffffffffffff6060611dba611e4e94633b9aca0060019a04611a26565b633b9aca008202828104633b9aca00148315171561194a5781811015611e7657505f93505050565b633b9aca008502858104633b9aca00148615171561194a57611e98908361193d565b11611ea1575050565b611e28929350633b9aca00900490611a26565b611ed791935060403d604011611edf575b611ecf81836119a2565b810190611cb4565b50915f611d62565b503d611ec5565b9050611f01915060403d604011611edf57611ecf81836119a2565b905f611d2d565b67ffffffffffffffff811161198e5760051b60200190565b91906040838203126104ae57825167ffffffffffffffff81116104ae57830181601f820112156104ae578051611f5581611f08565b91611f6360405193846119a2565b81835260208084019260051b820101908482116104ae57602001915b818310612008575050509260208101519067ffffffffffffffff82116104ae57019080601f830112156104ae57815190611fb882611f08565b92611fc660405194856119a2565b82845260208085019360051b8201019182116104ae57602001915b818310611fee5750505090565b82518060070b81036104ae57815260209283019201611fe1565b825167ffffffffffffffff811681036104ae57815260209283019201611f7f565b8051156120365760200190565b634e487b7160e01b5f52603260045260245ffd5b80518210156120365760209160051b010190565b906001600160a01b037f000000000000000000000000000000000000000000000000000000000000000016916001600160a01b03604051917fb85780bc000000000000000000000000000000000000000000000000000000008352168060048301525f82602481875afa9182156110c9575f9261222f575b508151600181116121e9575060018301805467ffffffffffffffff1916633b9aca001790555f91505b6024604051809581937f847da7be00000000000000000000000000000000000000000000000000000000835260048301525afa9182156110c9575f926121c4575b508151916001831161216a575060010180546fffffffffffffffff00000000000000001916905550565b600119830192831161194a5767ffffffffffffffff61218e611a779460019361204a565b51169101906fffffffffffffffff0000000000000000196fffffffffffffffff000000000000000083549260401b169116179055565b6121e19192503d805f833e6121d981836119a2565b810190611f20565b50905f612140565b600119810190811161194a5761220967ffffffffffffffff915f9461204a565b511667ffffffffffffffff60018501911667ffffffffffffffff198254161790556120ff565b6122449192503d805f833e6121d981836119a2565b50905f6120d6565b6040517fa9059cbb0000000000000000000000000000000000000000000000000000000060208201526001600160a01b0390921660248301526044820192909252611a779161229e8260648101610376565b6122c7565b805180835260209291819084018484015e5f828201840152601f01601f1916010190565b905f602091828151910182855af1156110c9575f513d61232b57506001600160a01b0381163b155b6122f65750565b6001600160a01b03907f5274afe7000000000000000000000000000000000000000000000000000000005f521660045260245ffd5b600114156122ef565b604051636eb1769f60e11b81523060048201526001600160a01b038381166024830152929392821692602082604481875afa80156110c9575f90612447575b61237d925061193d565b9160205f604051946123c8866123ba8582019363095ea7b360e01b85528a60248401602090939291936001600160a01b0360408201951681520152565b03601f1981018852876119a2565b85519082865af1903d5f519083612428575b505050156123e757505050565b61229e611a77936001600160a01b036040519163095ea7b360e01b60208401521660248201525f6044820152604481526124226064826119a2565b826122c7565b9192509061243d57503b15155b5f80806123da565b6001915014612435565b506020823d602011612473575b81612461602093836119a2565b810103126104ae5761237d9151612373565b3d915061245456fea2646970667358221220c91ca8ea8899ca08b3839156df940b48fa1be932a747ba5243a6a03e6a682f0564736f6c634300081c0033",
  "linkReferences": {},
  "deployedLinkReferences": {},
  "immutableReferences": {
    "7707": [
      {
        "length": 32,
        "start": 630
      },
      {
        "length": 32,
        "start": 3302
      },
      {
        "length": 32,
        "start": 3614
      },
      {
        "length": 32,
        "start": 7383
      },
      {
        "length": 32,
        "start": 8297
      }
    ],
    "7711": [
      {
        "length": 32,
        "start": 959
      },
      {
        "length": 32,
        "start": 1644
      },
      {
        "length": 32,
        "start": 3659
      },
      {
        "length": 32,
        "start": 5497
      },
      {
        "length": 32,
        "start": 5632
      }
    ],
    "8438": [
      {
        "length": 32,
        "start": 1031
      },
      {
        "length": 32,
        "start": 3419
      },
      {
        "length": 32,
        "start": 5565
      }
    ]
  },
  "inputSourceName": "project/contracts/helpers/GenericHarvester.sol",
  "devdoc": {
    "author": "Cooper Labs",
    "custom:contact": "security@cooperlabs.xyz",
    "details": "Generic contract for anyone to permissionlessly adjust the reserves of Angle ParallelizerThis contract is an authorized fork of Angle's GenericHarvester contract: https://github.com/AngleProtocol/angle-transmuter/blob/main/contracts/helpers/GenericHarvester.sol",
    "errors": {
      "SafeERC20FailedOperation(address)": [
        {
          "details": "An operation with an ERC-20 token failed."
        }
      ]
    },
    "events": {
      "AuthorityUpdated(address)": {
        "details": "Authority that manages this contract was updated."
      }
    },
    "kind": "dev",
    "methods": {
      "addBudget(uint256,address)": {
        "params": {
          "amount": "amount of tokenP to add to the budget",
          "receiver": "address of the receiver"
        }
      },
      "authority()": {
        "details": "Returns the current authority."
      },
      "computeRebalanceAmount(address)": {
        "params": {
          "yieldBearingAsset": "address of the yield bearing asset"
        },
        "returns": {
          "amount": "amount to be rebalanced",
          "increase": "whether the exposure should be increased"
        }
      },
      "harvest(address,uint256,bytes)": {
        "details": "This transaction either reduces the exposure to `yieldBearingAsset` in the Parallelizer or frees up some yieldBearingAsset that can then be used for people looking to burn deposit tokensDue to potential transaction fees within the Parallelizer, this function doesn't exactly bring `yieldBearingAsset` to the target exposurescale is a number between 0 and 1e9 that represents the proportion of the tokenP to harvest, it is used to lower the amount of the asset to harvest for example to have a lower slippage"
      },
      "isConsumingScheduledOp()": {
        "details": "Returns true only in the context of a delayed restricted call, at the moment that the scheduled operation is being consumed. Prevents denial of service for delayed restricted calls in the case that the contract performs attacker controlled calls."
      },
      "onFlashLoan(address,address,uint256,uint256,bytes)": {
        "details": "Receive a flash loan.",
        "params": {
          "amount": "The amount of tokens lent.",
          "data": "Arbitrary data structure, intended to contain user-defined parameters.",
          "fee": "The additional amount of tokens to repay.",
          "initiator": "The initiator of the loan.",
          "token": "The loan currency."
        },
        "returns": {
          "_0": "The keccak256 hash of \"ERC3156FlashBorrower.onFlashLoan\""
        }
      },
      "recoverERC20(address,uint256,address)": {
        "params": {
          "amountToRecover": "amount to recover",
          "to": "address to send the recovered tokens",
          "tokenAddress": "address of the token to recover"
        }
      },
      "removeBudget(uint256,address)": {
        "params": {
          "amount": "amount of tokenP to remove from the budget",
          "receiver": "address of the receiver"
        }
      },
      "setAuthority(address)": {
        "details": "Transfers control to a new authority. The caller must be the current authority."
      },
      "setMaxSlippage(address,uint96)": {
        "params": {
          "newMaxSlippage": "new max allowed slippage"
        }
      },
      "setSwapRouter(address)": {
        "params": {
          "newSwapRouter": "address of the swap router"
        }
      },
      "setTargetExposure(address,uint64)": {
        "params": {
          "targetExposure": "target exposure to the yield bearing asset used",
          "yieldBearingAsset": "address of the yield bearing asset"
        }
      },
      "setTokenTransferAddress(address)": {
        "params": {
          "newTokenTransferAddress": "address of the token transfer contract"
        }
      },
      "setYieldBearingAssetData(address,address,uint64,uint64,uint64,uint64,uint96)": {
        "params": {
          "asset": "address of the asset",
          "maxExposure": "maximum exposure within the Parallelizer to the asset",
          "minExposure": "minimum exposure within the Parallelizer to the asset",
          "overrideExposures": "whether limit exposures should be overriden or read onchain through the Parallelizer",
          "targetExposure": "target exposure to the yieldBearingAsset asset used",
          "yieldBearingAsset": "address of the yieldBearingAsset"
        }
      },
      "toggleTrusted(address)": {
        "params": {
          "trusted": "address to toggle the trusted status"
        }
      },
      "updateLimitExposuresYieldAsset(address)": {
        "params": {
          "yieldBearingAsset": "address of the yield bearing asset"
        }
      }
    },
    "title": "GenericHarvester",
    "version": 1
  },
  "evm": {
    "gasEstimates": {
      "creation": {
        "codeDepositCost": "1878600",
        "executionCost": "infinite",
        "totalCost": "infinite"
      },
      "external": {
        "CALLBACK_SUCCESS()": "433",
        "addBudget(uint256,address)": "infinite",
        "authority()": "2663",
        "budget(address)": "2862",
        "computeRebalanceAmount(address)": "infinite",
        "flashloan()": "infinite",
        "harvest(address,uint256,bytes)": "infinite",
        "isConsumingScheduledOp()": "2606",
        "isTrusted(address)": "2742",
        "maxTokenSlippage(address)": "2428",
        "onFlashLoan(address,address,uint256,uint256,bytes)": "infinite",
        "parallelizer()": "infinite",
        "recoverERC20(address,uint256,address)": "infinite",
        "removeBudget(uint256,address)": "infinite",
        "setAuthority(address)": "28360",
        "setMaxSlippage(address,uint96)": "infinite",
        "setSwapRouter(address)": "infinite",
        "setTargetExposure(address,uint64)": "infinite",
        "setTokenTransferAddress(address)": "infinite",
        "setYieldBearingAssetData(address,address,uint64,uint64,uint64,uint64,uint96)": "infinite",
        "swapRouter()": "2686",
        "toggleTrusted(address)": "infinite",
        "tokenP()": "infinite",
        "tokenTransferAddress()": "2444",
        "updateLimitExposuresYieldAsset(address)": "infinite",
        "yieldBearingData(address)": "7217"
      },
      "internal": {
        "_adjustYieldExposure(uint256,uint8,address,address,uint256,enum SwapType,bytes memory)": "infinite",
        "_swapToTokenOut(uint256,address,address,uint256,enum SwapType,bytes memory)": "infinite",
        "_swapToTokenOutSwap(address,address,uint256,bytes memory)": "infinite",
        "_swapToTokenOutVault(uint256,address,address,uint256)": "infinite"
      }
    }
  },
  "storageLayout": {
    "storage": [
      {
        "astId": 22488,
        "contract": "project/contracts/helpers/GenericHarvester.sol:GenericHarvester",
        "label": "_authority",
        "offset": 0,
        "slot": "0",
        "type": "t_address"
      },
      {
        "astId": 22490,
        "contract": "project/contracts/helpers/GenericHarvester.sol:GenericHarvester",
        "label": "_consumingSchedule",
        "offset": 20,
        "slot": "0",
        "type": "t_bool"
      },
      {
        "astId": 7716,
        "contract": "project/contracts/helpers/GenericHarvester.sol:GenericHarvester",
        "label": "maxTokenSlippage",
        "offset": 0,
        "slot": "1",
        "type": "t_mapping(t_address,t_uint96)"
      },
      {
        "astId": 7722,
        "contract": "project/contracts/helpers/GenericHarvester.sol:GenericHarvester",
        "label": "yieldBearingData",
        "offset": 0,
        "slot": "2",
        "type": "t_mapping(t_address,t_struct(YieldBearingParams)7657_storage)"
      },
      {
        "astId": 7727,
        "contract": "project/contracts/helpers/GenericHarvester.sol:GenericHarvester",
        "label": "isTrusted",
        "offset": 0,
        "slot": "3",
        "type": "t_mapping(t_address,t_bool)"
      },
      {
        "astId": 23206,
        "contract": "project/contracts/helpers/GenericHarvester.sol:GenericHarvester",
        "label": "swapRouter",
        "offset": 0,
        "slot": "4",
        "type": "t_address"
      },
      {
        "astId": 23209,
        "contract": "project/contracts/helpers/GenericHarvester.sol:GenericHarvester",
        "label": "tokenTransferAddress",
        "offset": 0,
        "slot": "5",
        "type": "t_address"
      },
      {
        "astId": 8443,
        "contract": "project/contracts/helpers/GenericHarvester.sol:GenericHarvester",
        "label": "budget",
        "offset": 0,
        "slot": "6",
        "type": "t_mapping(t_address,t_uint256)"
      }
    ],
    "types": {
      "t_address": {
        "encoding": "inplace",
        "label": "address",
        "numberOfBytes": "20"
      },
      "t_bool": {
        "encoding": "inplace",
        "label": "bool",
        "numberOfBytes": "1"
      },
      "t_mapping(t_address,t_bool)": {
        "encoding": "mapping",
        "key": "t_address",
        "label": "mapping(address => bool)",
        "numberOfBytes": "32",
        "value": "t_bool"
      },
      "t_mapping(t_address,t_struct(YieldBearingParams)7657_storage)": {
        "encoding": "mapping",
        "key": "t_address",
        "label": "mapping(address => struct YieldBearingParams)",
        "numberOfBytes": "32",
        "value": "t_struct(YieldBearingParams)7657_storage"
      },
      "t_mapping(t_address,t_uint256)": {
        "encoding": "mapping",
        "key": "t_address",
        "label": "mapping(address => uint256)",
        "numberOfBytes": "32",
        "value": "t_uint256"
      },
      "t_mapping(t_address,t_uint96)": {
        "encoding": "mapping",
        "key": "t_address",
        "label": "mapping(address => uint96)",
        "numberOfBytes": "32",
        "value": "t_uint96"
      },
      "t_struct(YieldBearingParams)7657_storage": {
        "encoding": "inplace",
        "label": "struct YieldBearingParams",
        "members": [
          {
            "astId": 7646,
            "contract": "project/contracts/helpers/GenericHarvester.sol:GenericHarvester",
            "label": "asset",
            "offset": 0,
            "slot": "0",
            "type": "t_address"
          },
          {
            "astId": 7648,
            "contract": "project/contracts/helpers/GenericHarvester.sol:GenericHarvester",
            "label": "targetExposure",
            "offset": 20,
            "slot": "0",
            "type": "t_uint64"
          },
          {
            "astId": 7650,
            "contract": "project/contracts/helpers/GenericHarvester.sol:GenericHarvester",
            "label": "maxExposure",
            "offset": 0,
            "slot": "1",
            "type": "t_uint64"
          },
          {
            "astId": 7652,
            "contract": "project/contracts/helpers/GenericHarvester.sol:GenericHarvester",
            "label": "minExposure",
            "offset": 8,
            "slot": "1",
            "type": "t_uint64"
          },
          {
            "astId": 7654,
            "contract": "project/contracts/helpers/GenericHarvester.sol:GenericHarvester",
            "label": "overrideExposures",
            "offset": 16,
            "slot": "1",
            "type": "t_uint64"
          },
          {
            "astId": 7656,
            "contract": "project/contracts/helpers/GenericHarvester.sol:GenericHarvester",
            "label": "maxSlippage",
            "offset": 0,
            "slot": "2",
            "type": "t_uint96"
          }
        ],
        "numberOfBytes": "96"
      },
      "t_uint256": {
        "encoding": "inplace",
        "label": "uint256",
        "numberOfBytes": "32"
      },
      "t_uint64": {
        "encoding": "inplace",
        "label": "uint64",
        "numberOfBytes": "8"
      },
      "t_uint96": {
        "encoding": "inplace",
        "label": "uint96",
        "numberOfBytes": "12"
      }
    }
  },
  "userdoc": {
    "events": {
      "SwapRouterUpdated(address)": {
        "notice": "Event emitted when the swap router is updated"
      },
      "TokenTransferAddressUpdated(address)": {
        "notice": "Event emitted when the token proxy is updated"
      }
    },
    "kind": "user",
    "methods": {
      "addBudget(uint256,address)": {
        "notice": "Add budget to be spent by the receiver during the flashloan"
      },
      "budget(address)": {
        "notice": "Budget of tokenP available for each users"
      },
      "computeRebalanceAmount(address)": {
        "notice": "Compute the amount needed to rebalance the Parallelizer"
      },
      "flashloan()": {
        "notice": "Parallel stablecoin flashloan contract"
      },
      "harvest(address,uint256,bytes)": {
        "notice": "Invests or divests from the yield asset associated to `yieldBearingAsset` based on the current exposure  to this yieldBearingAsset"
      },
      "isTrusted(address)": {
        "notice": "trusted addresses that can update target exposure and do others non critical operations"
      },
      "maxTokenSlippage(address)": {
        "notice": "Max slippage when dealing with the Parallelizer"
      },
      "parallelizer()": {
        "notice": "Reference to the `parallelizer` implementation this contract aims at rebalancing"
      },
      "recoverERC20(address,uint256,address)": {
        "notice": "Recover ERC20 tokens"
      },
      "removeBudget(uint256,address)": {
        "notice": "Remove budget from the owner and send it to the receiver"
      },
      "setMaxSlippage(address,uint96)": {
        "notice": "Set the max allowed slippage"
      },
      "setSwapRouter(address)": {
        "notice": "Set the swap router"
      },
      "setTargetExposure(address,uint64)": {
        "notice": "Set the target exposure of a yield bearing asset"
      },
      "setTokenTransferAddress(address)": {
        "notice": "Set the token transfer address"
      },
      "setYieldBearingAssetData(address,address,uint64,uint64,uint64,uint64,uint96)": {
        "notice": "Set the yieldBearingAsset data"
      },
      "swapRouter()": {
        "notice": "address of the router/aggregator"
      },
      "toggleTrusted(address)": {
        "notice": "Toggle the trusted status of an address"
      },
      "tokenP()": {
        "notice": "TokenP handled by the `parallelizer` of interest"
      },
      "tokenTransferAddress()": {
        "notice": "address to approve to transfer tokens to"
      },
      "updateLimitExposuresYieldAsset(address)": {
        "notice": "Set the limit exposures to the asset linked to the yield bearing asset"
      },
      "yieldBearingData(address)": {
        "notice": "Data associated to a yield bearing asset"
      }
    },
    "version": 1
  },
  "argsData": "0x00000000000000000000000088de50b233052e4fb783d4f6db78cc34fea3e9fc00000000000000000000000088de50b233052e4fb783d4f6db78cc34fea3e9fc0000000000000000000000009ee1963f05553ef838604dd39403be21cef26aa400000000000000000000000041d58951cbd12d4ef49b0437897677bbf5547c80000000000000000000000000fd28f108e95f4d41daae9dbfff707d677985998e0000000000000000000000009e0dcf7a33bbde6689560c5c807dd2a3df991277",
  "transaction": {
    "hash": "0xf9fdb881ae9b14af38626a6adee579e13a3946b210c7409a354a6d8751eec211",
    "nonce": "0x78",
    "origin": "0x66ccec236bbce5f1bbd1b2fc0a4014e57a55ad02"
  }
}