{
  "address": "0xA19c5D1013A8682aC76206a085Ec24aC89F7c025",
  "abi": [
    {
      "inputs": [],
      "name": "AlreadyAdded",
      "type": "error"
    },
    {
      "inputs": [],
      "name": "InvalidAccessManager",
      "type": "error"
    },
    {
      "inputs": [],
      "name": "InvalidChainlinkRate",
      "type": "error"
    },
    {
      "inputs": [],
      "name": "InvalidNegativeFees",
      "type": "error"
    },
    {
      "inputs": [],
      "name": "InvalidParams",
      "type": "error"
    },
    {
      "inputs": [],
      "name": "NotCollateral",
      "type": "error"
    },
    {
      "inputs": [],
      "name": "NotGovernor",
      "type": "error"
    },
    {
      "anonymous": false,
      "inputs": [
        {
          "indexed": true,
          "internalType": "address",
          "name": "collateral",
          "type": "address"
        }
      ],
      "name": "CollateralAdded",
      "type": "event"
    },
    {
      "anonymous": false,
      "inputs": [
        {
          "indexed": true,
          "internalType": "address",
          "name": "collateral",
          "type": "address"
        },
        {
          "indexed": false,
          "internalType": "uint64[]",
          "name": "xFee",
          "type": "uint64[]"
        },
        {
          "indexed": false,
          "internalType": "int64[]",
          "name": "yFee",
          "type": "int64[]"
        },
        {
          "indexed": false,
          "internalType": "bool",
          "name": "mint",
          "type": "bool"
        }
      ],
      "name": "FeesSet",
      "type": "event"
    },
    {
      "anonymous": false,
      "inputs": [
        {
          "indexed": true,
          "internalType": "address",
          "name": "collateral",
          "type": "address"
        },
        {
          "indexed": false,
          "internalType": "bytes",
          "name": "oracleConfig",
          "type": "bytes"
        }
      ],
      "name": "OracleSet",
      "type": "event"
    },
    {
      "anonymous": false,
      "inputs": [
        {
          "indexed": true,
          "internalType": "address",
          "name": "previousOwner",
          "type": "address"
        },
        {
          "indexed": true,
          "internalType": "address",
          "name": "newOwner",
          "type": "address"
        }
      ],
      "name": "OwnershipTransferred",
      "type": "event"
    },
    {
      "anonymous": false,
      "inputs": [
        {
          "indexed": true,
          "internalType": "address",
          "name": "collateral",
          "type": "address"
        },
        {
          "indexed": false,
          "internalType": "uint256",
          "name": "pausedType",
          "type": "uint256"
        },
        {
          "indexed": false,
          "internalType": "bool",
          "name": "isPaused",
          "type": "bool"
        }
      ],
      "name": "PauseToggled",
      "type": "event"
    },
    {
      "anonymous": false,
      "inputs": [
        {
          "indexed": false,
          "internalType": "uint64[]",
          "name": "xFee",
          "type": "uint64[]"
        },
        {
          "indexed": false,
          "internalType": "int64[]",
          "name": "yFee",
          "type": "int64[]"
        }
      ],
      "name": "RedemptionCurveParamsSet",
      "type": "event"
    },
    {
      "inputs": [
        {
          "internalType": "contract IAccessManager",
          "name": "_accessManager",
          "type": "address"
        },
        {
          "internalType": "address",
          "name": "_tokenP",
          "type": "address"
        },
        {
          "components": [
            {
              "internalType": "address",
              "name": "token",
              "type": "address"
            },
            {
              "internalType": "bytes",
              "name": "oracleConfig",
              "type": "bytes"
            },
            {
              "internalType": "uint64[]",
              "name": "xMintFee",
              "type": "uint64[]"
            },
            {
              "internalType": "int64[]",
              "name": "yMintFee",
              "type": "int64[]"
            },
            {
              "internalType": "uint64[]",
              "name": "xBurnFee",
              "type": "uint64[]"
            },
            {
              "internalType": "int64[]",
              "name": "yBurnFee",
              "type": "int64[]"
            }
          ],
          "internalType": "struct CollateralSetup[]",
          "name": "_collaterals",
          "type": "tuple[]"
        },
        {
          "components": [
            {
              "internalType": "uint64[]",
              "name": "xRedeemFee",
              "type": "uint64[]"
            },
            {
              "internalType": "int64[]",
              "name": "yRedeemFee",
              "type": "int64[]"
            }
          ],
          "internalType": "struct RedemptionSetup",
          "name": "_redemptionSetup",
          "type": "tuple"
        }
      ],
      "name": "initialize",
      "outputs": [],
      "stateMutability": "nonpayable",
      "type": "function"
    }
  ],
  "transactionHash": "0xd1b6b8fbf5d548aaea0f7e4e80093a42b080974e58030007a52f7010b665a2ab",
  "args": [],
  "numDeployments": 1,
  "solcInputHash": "9d44d918681c9ad36f866ebee034a3d1",
  "bytecode": "0x6080806040523460155761323c908161001a8239f35b5f80fdfe60806040526004361015610011575f80fd5b5f5f3560e01c6377dabb7b14610025575f80fd5b34611a1c576080366003190112611a1c576004356001600160a01b038116809103611a1c576024356001600160a01b038116809103611a1c57604435906001600160401b038211611a1c5736602383011215611a1c57816004013561008981611ba6565b926100976040519485611b85565b8184526024602085019260051b82010190368211611a1c5760248101925b828410611a205750505050606435926001600160401b038411611a1c5760406003198536030112611a1c5760405193604085018581106001600160401b038211176116205760405280600401356001600160401b038111611a1c576101209060043691840101611bd8565b85526024810135906001600160401b038211611a1c5760046101459236920101611c46565b6020850152803b156119f4576001600160a01b037fc8fcad8db84d3cc18b4c41d551ea0ee66dd599cde068d998e57d5e09332c131d54168173ffffffffffffffffffffffffffffffffffffffff197fc8fcad8db84d3cc18b4c41d551ea0ee66dd599cde068d998e57d5e09332c131d5416177fc8fcad8db84d3cc18b4c41d551ea0ee66dd599cde068d998e57d5e09332c131d557f8be0079c531659141344cd1fd0a4f28419497f9722a3daafe3b4186f6b6457e05f80a37f4b2dd303f68b99d244b702089c802b6e9ea1b5d4ef61fd436d6c41abb1178c7580547f4b2dd303f68b99d244b702089c802b6e9ea1b5d4ef61fd436d6c41abb1178c7680546fffffffffffffffffffffffffffffffff167b033b2e3c9fd0803ce8000000000000000000000000000000000000001790557fffffffffffffffffffff00ff00000000000000000000000000000000000000001691909117750100000000000000000000000000000000000000000017905580515f915b818310610be6575050508051516102cf575080f35b90808015610b4c5750610312816001600160a01b03165f527f4b2dd303f68b99d244b702089c802b6e9ea1b5d4ef61fd436d6c41abb1178c7a60205260405f2090565b80549060ff8260181c1615610b3d5782610b29575f809161033860ff8560101c16611ddc565b9362ff00008560101b169062ff000019161790555b6104a157507f3da495aea17ab24773f3161f4707961a797e39147ce4f8a8fbac0309a4a2d2e46040839260ff8251916002835216156020820152a2602082519201519180519280518414801590610b21575b610b12578283848015610a56575b50610a47575f198501948511948491865b610a3357818310156104b557806104a157508491858680156103f9575b506103ea5760010191866103be565b600486635435b28960e11b8152fd5b905061048d5760016001600160401b036104138388611ccf565b5116908201808311610479576104316001600160401b039188611ccf565b511611801590610463575b8015610449575b866103db565b50633b9aca006104598286611ccf565b5160070b13610443565b508561046f8286611ccf565b5160070b1261043c565b602488634e487b7160e01b81526011600452fd5b602486634e487b7160e01b81526021600452fd5b80634e487b7160e01b602492526021600452fd5b9295505050806104c485611cae565b5160070b126108c8575b5080516001600160401b0381116107c457600160401b81116107c4577f4b2dd303f68b99d244b702089c802b6e9ea1b5d4ef61fd436d6c41abb1178c7854817f4b2dd303f68b99d244b702089c802b6e9ea1b5d4ef61fd436d6c41abb1178c7855808210610875575b5060208201907f4b2dd303f68b99d244b702089c802b6e9ea1b5d4ef61fd436d6c41abb1178c788452602084208160021c91855b838110610830575060031981169003806107d8575b505050508251926001600160401b0384116107c457600160401b84116107c4577f4b2dd303f68b99d244b702089c802b6e9ea1b5d4ef61fd436d6c41abb1178c7954847f4b2dd303f68b99d244b702089c802b6e9ea1b5d4ef61fd436d6c41abb1178c795580851061074f575b5060208101937f4b2dd303f68b99d244b702089c802b6e9ea1b5d4ef61fd436d6c41abb1178c798452602084208160021c91855b83811061070a5750600319811690038061068d575b5050507fdd1690e851f57f138700d42b0a081b3b1b9a97dd2cb2aabc25c92658736290649293509061068761067992604051938493604085526040850190611d6a565b908382036020850152611da6565b0390a180f35b958596865b8181106106d257505050019390935590918291906106876106797fdd1690e851f57f138700d42b0a081b3b1b9a97dd2cb2aabc25c9265873629064610636565b90919760206107006001928b5160070b908560031b6001600160401b03809160031b9316831b921b19161790565b9901929101610692565b86875b60048110610722575083820155600101610621565b89519099916001916020916001600160401b0360068e901b81811b199092169216901b179201990161070d565b61079d907f4b2dd303f68b99d244b702089c802b6e9ea1b5d4ef61fd436d6c41abb1178c79855260208520600380880160021c820192601889831b16806107a3575b500160021c0190611cf1565b5f6105ed565b6107be905f198601908154905f199060200360031b1c169055565b5f610791565b602483634e487b7160e01b81526041600452fd5b928593865b8181106107f25750505001555f808080610580565b90919460206108266001926001600160401b03895116908560031b6001600160401b03809160031b9316831b921b19161790565b96019291016107dd565b86875b6004811061084857508382015560010161056b565b86519096916001916020916001600160401b0360068b901b81811b199092169216901b1792019601610833565b6108c2907f4b2dd303f68b99d244b702089c802b6e9ea1b5d4ef61fd436d6c41abb1178c78855260208520600380850160021c820192601886831b16806107a357500160021c0190611cf1565b5f610537565b604460406001600160a01b037fc8fcad8db84d3cc18b4c41d551ea0ee66dd599cde068d998e57d5e09332c131d54168151928380926368fc2b7760e11b8252600a60048301523360248301525afa908115610a285782916109d6575b50156109c757806040518060207f4b2dd303f68b99d244b702089c802b6e9ea1b5d4ef61fd436d6c41abb1178c77549182815201907f4b2dd303f68b99d244b702089c802b6e9ea1b5d4ef61fd436d6c41abb1178c7784526020842090845b8181106109a557505050908061099a920390611b85565b6104a15750816104ce565b82546001600160a01b0316845286955060209093019260019283019201610983565b80633b8d9d7560e21b60049252fd5b90506040813d604011610a20575b816109f160409383611b85565b81010312610a1c578051908115158203610a18576020610a11910161283e565b505f610924565b8280fd5b5080fd5b3d91506109e4565b6040513d84823e3d90fd5b80634e487b7160e01b602492526011600452fd5b600484635435b28960e11b8152fd5b9050610afe575f1985018581119081610aea57633b9aca006001600160401b03610a808388611ccf565b511611918215610ad0575b8215610a9a575b5050846103ad565b909150610abc57610ab0633b9aca009184611ccf565b5160070b135f80610a92565b602485634e487b7160e01b81526011600452fd5b5085915081610adf8286611ccf565b5160070b1291610a8b565b602486634e487b7160e01b81526011600452fd5b602484634e487b7160e01b81526021600452fd5b600483635435b28960e11b8152fd5b50831561039f565b602483634e487b7160e01b81526021600452fd5b600483630dcfc57f60e21b8152fd5b7f4b2dd303f68b99d244b702089c802b6e9ea1b5d4ef61fd436d6c41abb1178c75549080610b7f60ff8460a01c16611ddc565b927fffffffffffffffffffffff00ffffffffffffffffffffffffffffffffffffffff74ff00000000000000000000000000000000000000008560a01b169116177f4b2dd303f68b99d244b702089c802b6e9ea1b5d4ef61fd436d6c41abb1178c755561034d565b909193610bf38583611ccf565b5180516001600160a01b03165f8181527f4b2dd303f68b99d244b702089c802b6e9ea1b5d4ef61fd436d6c41abb1178c7a60205260409020805460ff8160181c166119cc576040517f313ce567000000000000000000000000000000000000000000000000000000008152602081600481875afa80156119c1578690611981575b63ff000000915060181b169063ff00000019161790557f4b2dd303f68b99d244b702089c802b6e9ea1b5d4ef61fd436d6c41abb1178c7754600160401b81101561196d5760018101807f4b2dd303f68b99d244b702089c802b6e9ea1b5d4ef61fd436d6c41abb1178c7755811015611959577f4b2dd303f68b99d244b702089c802b6e9ea1b5d4ef61fd436d6c41abb1178c7784527f83745245930c5ea665f7d67c93434aa3e54c73e6ed3f6f245cc3d5c311286bfa01805473ffffffffffffffffffffffffffffffffffffffff1916821790557f7db05e63d635a68c62fd7fd8f3107ae8ab584a383e102d1bd8a40f4c977e465f8380a26001600160a01b038151166020820151610db6826001600160a01b03165f527f4b2dd303f68b99d244b702089c802b6e9ea1b5d4ef61fd436d6c41abb1178c7a60205260405f2090565b60ff815460181c161561194a57600590610dcf83611e0a565b500181516001600160401b0381116113b6578154600181811c91168015611940575b602082101461192c57601f81116118f1575b506020601f821160011461186b5792602092826040937fba11329c0b0f98b91c254755aa8d698feac3b46fab65b65fe5ab7570de2ff928968a91611860575b508160011b915f199060031b1c19161790555b815192839181835280519182918282860152018484015e8181018301889052601f01601f19168101030190a26001600160a01b0381511660408201516060830151610ed0836001600160a01b03165f527f4b2dd303f68b99d244b702089c802b6e9ea1b5d4ef61fd436d6c41abb1178c7a60205260405f2090565b60ff815460181c161561185157610ee886838561205f565b8251600182016001600160401b03821161183d57600160401b821161183d57610f1682825481845583611d2e565b60208501908852602088208260021c91895b8381106117f857506003198416909303928361179f575b505050506002018151906001600160401b03821161146f57600160401b821161146f57610f7182825481845583611d2e565b60208301908752602087208260021c91885b83811061175a5750600319841690930392836116e4575b505050507f8abfb482e6f6ae87066f0006f10aff1738f4182d4f66b7a084685e4a6c51cfad91610fdb61067992604051938493606085526060850190611d6a565b600160408301520390a26001600160a01b038151169160808201519260a083015193611037826001600160a01b03165f527f4b2dd303f68b99d244b702089c802b6e9ea1b5d4ef61fd436d6c41abb1178c7a60205260405f2090565b9460ff865460181c16156116d55760019561105387838561205f565b84156114835786810183516001600160401b03811161146f57600160401b811161146f5761108681835481855584611d2e565b602085019187526020872090875b8160021c811061142b57506003198116810392836113ca575b505050506002018151906001600160401b0382116113b657600160401b82116113b6576110df82825481845583611d2e565b60208301908652602086208260021c91875b8381106113725750600319841690930392836112fb575b505050507f8abfb482e6f6ae87066f0006f10aff1738f4182d4f66b7a084685e4a6c51cfad9161114a610679925b604051938493606085526060850190611d6a565b8560408301520390a26001600160a01b0382511690611199826001600160a01b03165f527f4b2dd303f68b99d244b702089c802b6e9ea1b5d4ef61fd436d6c41abb1178c7a60205260405f2090565b9060ff825460181c16156112ec57806104a157808254926111bf60ff8560081c16611ddc565b9361ff008560081b169061ff0019161790556104a15750907f3da495aea17ab24773f3161f4707961a797e39147ce4f8a8fbac0309a4a2d2e460406001600160a01b03949360ff8251915f835216156020820152a2511694611251866001600160a01b03165f527f4b2dd303f68b99d244b702089c802b6e9ea1b5d4ef61fd436d6c41abb1178c7a60205260405f2090565b9586549260ff8460181c16156112dd575f809861127360ff8760101c16611ddc565b9562ff00008760101b169062ff000019161790556112c95760407f3da495aea17ab24773f3161f4707961a797e39147ce4f8a8fbac0309a4a2d2e49160ff600196835192835216156020820152a20191906102ba565b634e487b7160e01b5f52602160045260245ffd5b630dcfc57f60e21b5f5260045ffd5b80630dcfc57f60e21b60049252fd5b879388905b8b81831061133b575050505001558161114a6106797f8abfb482e6f6ae87066f0006f10aff1738f4182d4f66b7a084685e4a6c51cfad611108565b90919295611368602091885160070b908660031b6001600160401b03809160031b9316831b921b19161790565b9601920190611300565b8a90898a5b6004811061138a575081850155016110f1565b84516020909501948e946001600160401b03918216600684901b90811b92901b19909316179101611377565b602486634e487b7160e01b81526041600452fd5b889389905b8c8183106113ee5750505050906002939291841c0155905f80806110ad565b909192956114216020916001600160401b03895116908660031b6001600160401b03809160031b9316831b921b19161790565b96019201906113cf565b8a90898a5b6004811061144357508185015501611094565b86516020909701968e946001600160401b03918216600684901b90811b92901b19909316179101611430565b602487634e487b7160e01b81526041600452fd5b6003810183516001600160401b03811161162057600160401b8111611620576114b181835481855584611d2e565b60208501915f5260205f20905f5b8160021c81106116915750600319811681039283611634575b505050506004018151906001600160401b03821161162057600160401b82116116205761150a82825481845583611d2e565b60208301905f5260205f208260021c915f5b8381106115dc575060031984169093039283611565575b505050507f8abfb482e6f6ae87066f0006f10aff1738f4182d4f66b7a084685e4a6c51cfad9161114a61067992611136565b5f935f905b8b8183106115a5575050505001558161114a6106797f8abfb482e6f6ae87066f0006f10aff1738f4182d4f66b7a084685e4a6c51cfad611533565b909192956115d2602091885160070b908660031b6001600160401b03809160031b9316831b921b19161790565b960192019061156a565b8a905f5f5b600481106115f45750818501550161151c565b84516020909501948e946001600160401b03918216600684901b90811b92901b199093161791016115e1565b634e487b7160e01b5f52604160045260245ffd5b5f935f905b8c818310611654575050505060021c015560045f80806114d8565b909192956116876020916001600160401b03895116908660031b6001600160401b03809160031b9316831b921b19161790565b9601920190611639565b8a905f5f5b600481106116a9575081850155016114bf565b86516020909701968e946001600160401b03918216600684901b90811b92901b19909316179101611696565b600484630dcfc57f60e21b8152fd5b889389905b80821061172257505050015581610fdb6106797f8abfb482e6f6ae87066f0006f10aff1738f4182d4f66b7a084685e4a6c51cfad610f9a565b9091946020611750600192885160070b908660031b6001600160401b03809160031b9316831b921b19161790565b96019201906116e9565b898a5b60048110611772575083820155600101610f83565b83519093916001916020916001600160401b03600688901b81811b199092169216901b179201930161175d565b89938a905b8082106117ba57505050015560025f8080610f3f565b90919460206117ee6001926001600160401b03895116908660031b6001600160401b03809160031b9316831b921b19161790565b96019201906117a4565b8a8b5b60048110611810575083820155600101610f28565b83519093916001916020916001600160401b03600688901b81811b199092169216901b17920193016117fb565b602488634e487b7160e01b81526041600452fd5b600486630dcfc57f60e21b8152fd5b90508301515f610e42565b82875280872090601f198316885b8181106118d95750837fba11329c0b0f98b91c254755aa8d698feac3b46fab65b65fe5ab7570de2ff928969360209693604096600194106118c1575b5050811b019055610e55565b8501515f1960f88460031b161c191690555f806118b5565b9192602060018192868a015181550194019201611879565b61191c9083885260208820601f840160051c81019160208510611922575b601f0160051c0190611cf1565b5f610e03565b909150819061190f565b602487634e487b7160e01b81526022600452fd5b90607f1690610df1565b600485630dcfc57f60e21b8152fd5b602484634e487b7160e01b81526032600452fd5b602484634e487b7160e01b81526041600452fd5b506020813d82116119b9575b8161199a60209383611b85565b810103126119b5576119b063ff00000091611ce3565b610c74565b8580fd5b3d915061198d565b6040513d88823e3d90fd5b6004857ff411c327000000000000000000000000000000000000000000000000000000008152fd5b7fa98154e2000000000000000000000000000000000000000000000000000000005f5260045ffd5b5f80fd5b83356001600160401b038111611a1c57820160c06023198236030112611a1c576040519160c083018381106001600160401b038211176116205760405260248201356001600160a01b0381168103611a1c57835260448201356001600160401b038111611a1c5760249083010136601f82011215611a1c578035611aa381611bbd565b91611ab16040519384611b85565b8183523660208383010111611a1c57815f9260208093018386013783010152602084015260648201356001600160401b038111611a1c57611af89060243691850101611bd8565b604084015260848201356001600160401b038111611a1c57611b209060243691850101611c46565b606084015260a48201356001600160401b038111611a1c57611b489060243691850101611bd8565b608084015260c4820135926001600160401b038411611a1c57611b75602094936024869536920101611c46565b60a08201528152019301926100b5565b90601f801991011681019081106001600160401b0382111761162057604052565b6001600160401b0381116116205760051b60200190565b6001600160401b03811161162057601f01601f191660200190565b9080601f83011215611a1c57813590611bf082611ba6565b92611bfe6040519485611b85565b82845260208085019360051b820101918211611a1c57602001915b818310611c265750505090565b82356001600160401b0381168103611a1c57815260209283019201611c19565b9080601f83011215611a1c57813590611c5e82611ba6565b92611c6c6040519485611b85565b82845260208085019360051b820101918211611a1c57602001915b818310611c945750505090565b82358060070b8103611a1c57815260209283019201611c87565b805115611cbb5760200190565b634e487b7160e01b5f52603260045260245ffd5b8051821015611cbb5760209160051b010190565b519060ff82168203611a1c57565b818110611cfc575050565b5f8155600101611cf1565b81810292918115918404141715611d1a57565b634e487b7160e01b5f52601160045260245ffd5b9190808210611d3c57505050565b611d68925f52600360205f2091601882850160021c840194831b16806107a357500160021c0190611cf1565b565b90602080835192838152019201905f5b818110611d875750505090565b82516001600160401b0316845260209384019390920191600101611d7a565b90602080835192838152019201905f5b818110611dc35750505090565b825160070b845260209384019390920191600101611db6565b60ff166001039060ff8211611d1a57565b51906fffffffffffffffffffffffffffffffff82168203611a1c57565b908151820160a08360208301920312611a1c57602083015190600a821015611a1c57604084015193600a851015611a1c5760608101516001600160401b038111611a1c57826020611e5d928401016127f8565b9060808101516001600160401b038111611a1c57836020611e80928401016127f8565b9260a0820151916001600160401b038311611a1c57611ea292016020016127f8565b60018414611f9157604081805181010312611a1c57611ef7926fffffffffffffffffffffffffffffffff82611ee86040611ee16020611ef09701611ded565b9201611ded565b5016966128d2565b8093612ceb565b9280670de0b6b3a764000003670de0b6b3a76400008111611d1a57611f1c9083611d07565b670de0b6b3a7640000850290858204670de0b6b3a76400001486151715611d1a5781119182611f63575b5050611f5b575b828110611f575750565b9150565b915081611f4d565b909150670de0b6b3a76400000180670de0b6b3a764000011611d1a57611f899083611d07565b115f80611f46565b5080939450602092508091505181010312611a1c57602001516001600160a01b038116809103611a1c576020600491604051928380927f5ade93550000000000000000000000000000000000000000000000000000000082525afa90811561202c575f91611ffd575090565b90506020813d602011612024575b8161201860209383611b85565b81010312611a1c575190565b3d915061200b565b6040513d5f823e3d90fd5b9060070b9060070b0190677fffffffffffffff198212677fffffffffffffff831317611d1a57565b90929192815193815185148015906127f0575b6120de576003811015806112c957811594858061277a575b80156126e9575b828115612659575b506120de575f198701968711965f885b611d1a578181101561225557836112c95787806121ec575b8015612175575b8481156120ed575b506120de57600101886120a9565b635435b28960e11b5f5260045ffd5b90506112c9576002851480612103575b846120d0565b506001600160401b036121168289611ccf565b511660018201808311611d1a576121356001600160401b03918a611ccf565b51161180159061215f575b806120fd5750633b9aca006121558288611ccf565b5160070b136120fd565b505f61216b8288611ccf565b5160070b12612140565b505f93506001851480156120c857506001600160401b036121968289611ccf565b51166001820190818311611d1a576001600160401b036121b6838b611ccf565b511610908115916121c8575b506120c8565b6121d3915087611ccf565b5160070b6121e18288611ccf565b5160070b135f6121c2565b506001600160401b036121ff8289611ccf565b51166001820190818311611d1a576001600160401b0361221f838b611ccf565b51161190811591612231575b506120c1565b61223c915087611ccf565b5160070b61224a8288611ccf565b5160070b135f61222b565b5050955092509290925f61226885611cae565b5160070b12612278575b50505050565b604460406001600160a01b037fc8fcad8db84d3cc18b4c41d551ea0ee66dd599cde068d998e57d5e09332c131d54168151928380926368fc2b7760e11b8252600a60048301523360248301525afa90811561202c575f9161260f575b50156126005760405191828360207f4b2dd303f68b99d244b702089c802b6e9ea1b5d4ef61fd436d6c41abb1178c775492838152017f4b2dd303f68b99d244b702089c802b6e9ea1b5d4ef61fd436d6c41abb1178c775f5260205f20925f5b8181106125de57505061234892500384611b85565b8251936112c957612501575b600114612362575b80612272565b5f5b828110612371575061235c565b60026123c06001600160a01b036123888486611ccf565b51166001600160a01b03165f527f4b2dd303f68b99d244b702089c802b6e9ea1b5d4ef61fd436d6c41abb1178c7a60205260405f2090565b016040519081602082549182815201915f5260205f20905f915b8160038401106124c45793612439938193612419935f9754918181106124b0575b818110612499575b818110612482575b10612471575b500382611b85565b61242f61242588611cae565b5160070b91611cae565b5160070b90612037565b60070b1261244957600101612364565b7f11336121000000000000000000000000000000000000000000000000000000005f5260045ffd5b60c01d60070b81526020015f612411565b9260206001918460801c60070b815201930161240b565b9260206001918460401c60070b8152019301612403565b9260206001918460070b81520193016123fb565b926001608060049286548060070b82528060401c60070b602083015280831c60070b604083015260c01d60070b60608201520194019201916123da565b5f5b8381106125105750612354565b60046125276001600160a01b036123888487611ccf565b016040519081602082549182815201915f5260205f20905f915b8160038401106125a1578461259194612584945f979461257f9454918181106124b05781811061249957818110612482571061247157500382611b85565b611cae565b5160070b61242f88611cae565b60070b1261244957600101612503565b926001608060049286548060070b82528060401c60070b602083015280831c60070b604083015260c01d60070b6060820152019401920191612541565b84546001600160a01b0316835260019485019488945060209093019201612333565b633b8d9d7560e21b5f5260045ffd5b90506040813d604011612651575b8161262a60409383611b85565b81010312611a1c578051908115158203611a1c57602061264a910161283e565b505f6122d4565b3d915061261d565b90506112c957600283148061266f575b82612099565b505f1987018781119081611d1a57633b9aca006001600160401b03612694838a611ccf565b5116119182156126cf575b82156126ad575b5050612669565b909150611d1a576126c3633b9aca009186611ccf565b5160070b135f806126a6565b505f9150816126de8288611ccf565b5160070b129161269f565b505f915060018314806126fc575b612091565b50633b9aca006001600160401b0361271387611cae565b511614801590612755575b8061209157506001871180156126f7575061273884611cae565b5160070b845160011015611cbb57604085015160070b1415612091565b505f198701878111611d1a57612770633b9aca009186611ccf565b5160070b1361271e565b505f198701878111611d1a57633b9aca006001600160401b0361279d8389611ccf565b511610908115916127d3575b81156127b6575b5061208a565b64e8d4a5100091506127c89086611ccf565b5160070b135f6127b0565b90506001600160401b036127e687611cae565b51161515906127a9565b508415612072565b81601f82011215611a1c5780519061280f82611bbd565b9261281d6040519485611b85565b82845260208383010111611a1c57815f9260208093018386015e8301015290565b519063ffffffff82168203611a1c57565b8115612859570490565b634e487b7160e01b5f52601260045260245ffd5b9080601f83011215611a1c57815161288481611ba6565b926128926040519485611b85565b81845260208085019260051b820101928311611a1c57602001905b8282106128ba5750505090565b602080916128c784611ce3565b8152019101906128ad565b600a8110156112c95780612ada575090815182019160a08160208501940312611a1c5760208101516001600160401b038111611a1c5781019280603f85011215611a1c57602084015161292481611ba6565b946129326040519687611b85565b8186526020808088019360051b8301010190838211611a1c57604001915b818310612aba5750505060408201516001600160401b038111611a1c57820181603f82011215611a1c5760208101519061298982611ba6565b916129976040519384611b85565b8083526020808085019260051b8401010191848311611a1c57604001905b828210612aa25750505060608301516001600160401b038111611a1c578260206129e19286010161286d565b9160808401516001600160401b038111611a1c5760a0916020612a069287010161286d565b9301516002811015611a1c57670de0b6b3a7640000612a2991969492959661308c565b938351915f935b838510612a405750505050505090565b90919293949695612a956001916001600160a01b03612a5f898c611ccf565b511660ff612a6d8a87611ccf565b511660ff612a7b8b89611ccf565b51169163ffffffff612a8d8c8b611ccf565b5116936130cb565b9697950193929190612a30565b60208091612aaf8461283e565b8152019101906129b5565b82516001600160a01b0381168103611a1c57815260209283019201612950565b60038103612af0575050670de0b6b3a764000090565b60028103612b06575050670de0b6b3a764000090565b60048103612b59575050604051630f451f7160e31b8152670de0b6b3a7640000600482015260208160248173ae7ab96520de3a18e5e111b5eaab095312d7fe845afa90811561202c575f91611ffd575090565b60058103612b9e575050604051633ba0b9a960e01b815260208160048173be9895146f7af43049ca1c1ae358b0541ea497045afa90811561202c575f91611ffd575090565b60068103612be35750506040516339aa885b60e21b815260208160048173ae78736cd615f374d3085123a210448e74fc63935afa90811561202c575f91611ffd575090565b60078103612c28575050604051634ca9858360e11b815260208160048173ac3e018457b222d93114458476f3e3416abbe38f5afa90811561202c575f91611ffd575090565b60088103612c49575060208151918180820193849201010312611a1c575190565b600903612cde57604081805181010312611a1c5760208101516001600160a01b038116809103611a1c57602060406004930151916040519384809263501ad8ff60e11b82525afa801561202c575f90612caa575b612ca7925061284f565b90565b506020823d602011612cd6575b81612cc460209383611b85565b81010312611a1c57612ca79151612c9d565b3d9150612cb7565b50670de0b6b3a764000090565b92919092600a8110156112c95780612eb857508051810160a08260208301920312611a1c5760208201516001600160401b038111611a1c5782019381603f86011215611a1c576020850151612d3f81611ba6565b95612d4d6040519788611b85565b8187526020808089019360051b8301010190848211611a1c57604001915b818310612e985750505060408301516001600160401b038111611a1c5783019082603f83011215611a1c57602082015191612da583611ba6565b92612db36040519485611b85565b8084526020808086019260051b8401010191858311611a1c57604001905b828210612e805750505060608401516001600160401b038111611a1c57836020612dfd9287010161286d565b9260808501516001600160401b038111611a1c5760a0916020612e229288010161286d565b940151906002821015611a1c57612e3d91969492959661308c565b938351915f935b838510612e545750505050505090565b90919293949695612e736001916001600160a01b03612a5f898c611ccf565b9697950193929190612e44565b60208091612e8d8461283e565b815201910190612dd1565b82516001600160a01b0381168103611a1c57815260209283019201612d6b565b9192909160038103612ed357505050670de0b6b3a764000090565b60028103612ee15750905090565b60048103612f3557505050604051630f451f7160e31b8152670de0b6b3a7640000600482015260208160248173ae7ab96520de3a18e5e111b5eaab095312d7fe845afa90811561202c575f91611ffd575090565b60058103612f7b57505050604051633ba0b9a960e01b815260208160048173be9895146f7af43049ca1c1ae358b0541ea497045afa90811561202c575f91611ffd575090565b60068103612fc1575050506040516339aa885b60e21b815260208160048173ae78736cd615f374d3085123a210448e74fc63935afa90811561202c575f91611ffd575090565b6007810361300757505050604051634ca9858360e11b815260208160048173ac3e018457b222d93114458476f3e3416abbe38f5afa90811561202c575f91611ffd575090565b6008810361302957505060208151918180820193849201010312611a1c575190565b6009036130875750604081805181010312611a1c5760208101516001600160a01b038116809103611a1c57602060406004930151916040519384809263501ad8ff60e11b82525afa801561202c575f90612caa57612ca7925061284f565b905090565b60028110156112c957612ca75750670de0b6b3a764000090565b519069ffffffffffffffffffff82168203611a1c57565b604d8111611d1a57600a0a90565b91909360a06001600160a01b0394956004604051809781937ffeaf968c000000000000000000000000000000000000000000000000000000008352165afa90811561202c575f945f926131b0575b505f851391821592613196575b505061316e5760ff1660010361315357613147612ca7939261314d92611d07565b916130bd565b9061284f565b61316990613163612ca7946130bd565b90611d07565b61284f565b7fae193563000000000000000000000000000000000000000000000000000000005f5260045ffd5b4290810392508211611d1a5763ffffffff16105f80613126565b9450905060a0843d60a0116131fe575b816131cd60a09383611b85565b81010312611a1c576131de846130a6565b5060208401516131f56080606087015196016130a6565b5093905f613119565b3d91506131c056fea264697066735822122011fe342fd5ac7da6ff1664e4d4eaa7adc90c36dab7984085d65dfe6b69ac19ca64736f6c634300081c0033",
  "devdoc": {
    "details": "This contract is used only once to initialize the diamond proxy.",
    "kind": "dev",
    "methods": {},
    "version": 1
  },
  "userdoc": {
    "kind": "user",
    "methods": {},
    "version": 1
  },
  "storageLayout": {
    "storage": [],
    "types": null
  }
}