{
  "address": "0x2b822194bea84cbf5b52956eb3435e58d20abd1f",
  "abi": [
    {
      "inputs": [],
      "name": "InvalidChainlinkRate",
      "type": "error"
    },
    {
      "inputs": [],
      "name": "NotCollateral",
      "type": "error"
    },
    {
      "inputs": [],
      "name": "ReentrantCall",
      "type": "error"
    },
    {
      "inputs": [
        {
          "internalType": "uint8",
          "name": "bits",
          "type": "uint8"
        },
        {
          "internalType": "uint256",
          "name": "value",
          "type": "uint256"
        }
      ],
      "name": "SafeCastOverflowedUintDowncast",
      "type": "error"
    },
    {
      "inputs": [],
      "name": "accessManager",
      "outputs": [
        {
          "internalType": "address",
          "name": "",
          "type": "address"
        }
      ],
      "stateMutability": "view",
      "type": "function"
    },
    {
      "inputs": [
        {
          "internalType": "address",
          "name": "collateral",
          "type": "address"
        }
      ],
      "name": "getCollateralBurnFees",
      "outputs": [
        {
          "internalType": "uint64[]",
          "name": "xFeeBurn",
          "type": "uint64[]"
        },
        {
          "internalType": "int64[]",
          "name": "yFeeBurn",
          "type": "int64[]"
        }
      ],
      "stateMutability": "view",
      "type": "function"
    },
    {
      "inputs": [
        {
          "internalType": "address",
          "name": "collateral",
          "type": "address"
        }
      ],
      "name": "getCollateralDecimals",
      "outputs": [
        {
          "internalType": "uint8",
          "name": "",
          "type": "uint8"
        }
      ],
      "stateMutability": "view",
      "type": "function"
    },
    {
      "inputs": [
        {
          "internalType": "address",
          "name": "collateral",
          "type": "address"
        }
      ],
      "name": "getCollateralInfo",
      "outputs": [
        {
          "components": [
            {
              "internalType": "uint8",
              "name": "isManaged",
              "type": "uint8"
            },
            {
              "internalType": "uint8",
              "name": "isMintLive",
              "type": "uint8"
            },
            {
              "internalType": "uint8",
              "name": "isBurnLive",
              "type": "uint8"
            },
            {
              "internalType": "uint8",
              "name": "decimals",
              "type": "uint8"
            },
            {
              "internalType": "uint8",
              "name": "onlyWhitelisted",
              "type": "uint8"
            },
            {
              "internalType": "uint216",
              "name": "normalizedStables",
              "type": "uint216"
            },
            {
              "internalType": "uint64[]",
              "name": "xFeeMint",
              "type": "uint64[]"
            },
            {
              "internalType": "int64[]",
              "name": "yFeeMint",
              "type": "int64[]"
            },
            {
              "internalType": "uint64[]",
              "name": "xFeeBurn",
              "type": "uint64[]"
            },
            {
              "internalType": "int64[]",
              "name": "yFeeBurn",
              "type": "int64[]"
            },
            {
              "internalType": "bytes",
              "name": "oracleConfig",
              "type": "bytes"
            },
            {
              "internalType": "bytes",
              "name": "whitelistData",
              "type": "bytes"
            },
            {
              "components": [
                {
                  "internalType": "contract IERC20[]",
                  "name": "subCollaterals",
                  "type": "address[]"
                },
                {
                  "internalType": "bytes",
                  "name": "config",
                  "type": "bytes"
                }
              ],
              "internalType": "struct ManagerStorage",
              "name": "managerData",
              "type": "tuple"
            },
            {
              "internalType": "uint256",
              "name": "stablecoinCap",
              "type": "uint256"
            }
          ],
          "internalType": "struct Collateral",
          "name": "",
          "type": "tuple"
        }
      ],
      "stateMutability": "view",
      "type": "function"
    },
    {
      "inputs": [],
      "name": "getCollateralList",
      "outputs": [
        {
          "internalType": "address[]",
          "name": "",
          "type": "address[]"
        }
      ],
      "stateMutability": "view",
      "type": "function"
    },
    {
      "inputs": [
        {
          "internalType": "address",
          "name": "collateral",
          "type": "address"
        }
      ],
      "name": "getCollateralMintFees",
      "outputs": [
        {
          "internalType": "uint64[]",
          "name": "xFeeMint",
          "type": "uint64[]"
        },
        {
          "internalType": "int64[]",
          "name": "yFeeMint",
          "type": "int64[]"
        }
      ],
      "stateMutability": "view",
      "type": "function"
    },
    {
      "inputs": [],
      "name": "getCollateralRatio",
      "outputs": [
        {
          "internalType": "uint64",
          "name": "collatRatio",
          "type": "uint64"
        },
        {
          "internalType": "uint256",
          "name": "stablecoinsIssued",
          "type": "uint256"
        }
      ],
      "stateMutability": "view",
      "type": "function"
    },
    {
      "inputs": [
        {
          "internalType": "address",
          "name": "collateral",
          "type": "address"
        }
      ],
      "name": "getCollateralSurplus",
      "outputs": [
        {
          "internalType": "uint256",
          "name": "collateralSurplus",
          "type": "uint256"
        },
        {
          "internalType": "uint256",
          "name": "stableSurplus",
          "type": "uint256"
        }
      ],
      "stateMutability": "view",
      "type": "function"
    },
    {
      "inputs": [
        {
          "internalType": "address",
          "name": "collateral",
          "type": "address"
        }
      ],
      "name": "getCollateralWhitelistData",
      "outputs": [
        {
          "internalType": "bytes",
          "name": "",
          "type": "bytes"
        }
      ],
      "stateMutability": "view",
      "type": "function"
    },
    {
      "inputs": [
        {
          "internalType": "address",
          "name": "collateral",
          "type": "address"
        }
      ],
      "name": "getIssuedByCollateral",
      "outputs": [
        {
          "internalType": "uint256",
          "name": "stablecoinsFromCollateral",
          "type": "uint256"
        },
        {
          "internalType": "uint256",
          "name": "stablecoinsIssued",
          "type": "uint256"
        }
      ],
      "stateMutability": "view",
      "type": "function"
    },
    {
      "inputs": [],
      "name": "getLastReleasedAt",
      "outputs": [
        {
          "internalType": "uint256",
          "name": "",
          "type": "uint256"
        }
      ],
      "stateMutability": "view",
      "type": "function"
    },
    {
      "inputs": [
        {
          "internalType": "address",
          "name": "collateral",
          "type": "address"
        }
      ],
      "name": "getManagerData",
      "outputs": [
        {
          "internalType": "bool",
          "name": "",
          "type": "bool"
        },
        {
          "internalType": "contract IERC20[]",
          "name": "",
          "type": "address[]"
        },
        {
          "internalType": "bytes",
          "name": "",
          "type": "bytes"
        }
      ],
      "stateMutability": "view",
      "type": "function"
    },
    {
      "inputs": [
        {
          "internalType": "address",
          "name": "collateral",
          "type": "address"
        }
      ],
      "name": "getOracle",
      "outputs": [
        {
          "internalType": "enum OracleReadType",
          "name": "oracleType",
          "type": "uint8"
        },
        {
          "internalType": "enum OracleReadType",
          "name": "targetType",
          "type": "uint8"
        },
        {
          "internalType": "bytes",
          "name": "oracleData",
          "type": "bytes"
        },
        {
          "internalType": "bytes",
          "name": "targetData",
          "type": "bytes"
        },
        {
          "internalType": "bytes",
          "name": "hyperparameters",
          "type": "bytes"
        }
      ],
      "stateMutability": "view",
      "type": "function"
    },
    {
      "inputs": [
        {
          "internalType": "address",
          "name": "collateral",
          "type": "address"
        }
      ],
      "name": "getOracleValues",
      "outputs": [
        {
          "internalType": "uint256",
          "name": "mint",
          "type": "uint256"
        },
        {
          "internalType": "uint256",
          "name": "burn",
          "type": "uint256"
        },
        {
          "internalType": "uint256",
          "name": "ratio",
          "type": "uint256"
        },
        {
          "internalType": "uint256",
          "name": "minRatio",
          "type": "uint256"
        },
        {
          "internalType": "uint256",
          "name": "redemption",
          "type": "uint256"
        }
      ],
      "stateMutability": "view",
      "type": "function"
    },
    {
      "inputs": [],
      "name": "getPayees",
      "outputs": [
        {
          "internalType": "address[]",
          "name": "",
          "type": "address[]"
        },
        {
          "internalType": "uint256[]",
          "name": "",
          "type": "uint256[]"
        }
      ],
      "stateMutability": "view",
      "type": "function"
    },
    {
      "inputs": [],
      "name": "getRedemptionFees",
      "outputs": [
        {
          "internalType": "uint64[]",
          "name": "xRedemptionCurve",
          "type": "uint64[]"
        },
        {
          "internalType": "int64[]",
          "name": "yRedemptionCurve",
          "type": "int64[]"
        }
      ],
      "stateMutability": "view",
      "type": "function"
    },
    {
      "inputs": [
        {
          "internalType": "address",
          "name": "payee",
          "type": "address"
        }
      ],
      "name": "getShares",
      "outputs": [
        {
          "internalType": "uint256",
          "name": "",
          "type": "uint256"
        }
      ],
      "stateMutability": "view",
      "type": "function"
    },
    {
      "inputs": [
        {
          "internalType": "address",
          "name": "collateral",
          "type": "address"
        }
      ],
      "name": "getSlippageTolerance",
      "outputs": [
        {
          "internalType": "uint256",
          "name": "",
          "type": "uint256"
        }
      ],
      "stateMutability": "view",
      "type": "function"
    },
    {
      "inputs": [
        {
          "internalType": "address",
          "name": "collateral",
          "type": "address"
        }
      ],
      "name": "getStablecoinCap",
      "outputs": [
        {
          "internalType": "uint256",
          "name": "",
          "type": "uint256"
        }
      ],
      "stateMutability": "view",
      "type": "function"
    },
    {
      "inputs": [],
      "name": "getTotalIssued",
      "outputs": [
        {
          "internalType": "uint256",
          "name": "",
          "type": "uint256"
        }
      ],
      "stateMutability": "view",
      "type": "function"
    },
    {
      "inputs": [],
      "name": "getTotalShares",
      "outputs": [
        {
          "internalType": "uint256",
          "name": "",
          "type": "uint256"
        }
      ],
      "stateMutability": "view",
      "type": "function"
    },
    {
      "inputs": [],
      "name": "isConsumingScheduledOp",
      "outputs": [
        {
          "internalType": "bytes4",
          "name": "",
          "type": "bytes4"
        }
      ],
      "stateMutability": "view",
      "type": "function"
    },
    {
      "inputs": [
        {
          "internalType": "address",
          "name": "collateral",
          "type": "address"
        },
        {
          "internalType": "enum ActionType",
          "name": "action",
          "type": "uint8"
        }
      ],
      "name": "isPaused",
      "outputs": [
        {
          "internalType": "bool",
          "name": "",
          "type": "bool"
        }
      ],
      "stateMutability": "view",
      "type": "function"
    },
    {
      "inputs": [
        {
          "internalType": "address",
          "name": "sender",
          "type": "address"
        }
      ],
      "name": "isTrusted",
      "outputs": [
        {
          "internalType": "bool",
          "name": "",
          "type": "bool"
        }
      ],
      "stateMutability": "view",
      "type": "function"
    },
    {
      "inputs": [
        {
          "internalType": "address",
          "name": "sender",
          "type": "address"
        }
      ],
      "name": "isTrustedSeller",
      "outputs": [
        {
          "internalType": "bool",
          "name": "",
          "type": "bool"
        }
      ],
      "stateMutability": "view",
      "type": "function"
    },
    {
      "inputs": [
        {
          "internalType": "bytes4",
          "name": "selector",
          "type": "bytes4"
        }
      ],
      "name": "isValidSelector",
      "outputs": [
        {
          "internalType": "bool",
          "name": "",
          "type": "bool"
        }
      ],
      "stateMutability": "view",
      "type": "function"
    },
    {
      "inputs": [
        {
          "internalType": "address",
          "name": "collateral",
          "type": "address"
        }
      ],
      "name": "isWhitelistedCollateral",
      "outputs": [
        {
          "internalType": "bool",
          "name": "",
          "type": "bool"
        }
      ],
      "stateMutability": "view",
      "type": "function"
    },
    {
      "inputs": [
        {
          "internalType": "address",
          "name": "collateral",
          "type": "address"
        },
        {
          "internalType": "address",
          "name": "sender",
          "type": "address"
        }
      ],
      "name": "isWhitelistedForCollateral",
      "outputs": [
        {
          "internalType": "bool",
          "name": "",
          "type": "bool"
        }
      ],
      "stateMutability": "nonpayable",
      "type": "function"
    },
    {
      "inputs": [
        {
          "internalType": "enum WhitelistType",
          "name": "whitelistType",
          "type": "uint8"
        },
        {
          "internalType": "address",
          "name": "sender",
          "type": "address"
        }
      ],
      "name": "isWhitelistedForType",
      "outputs": [
        {
          "internalType": "bool",
          "name": "",
          "type": "bool"
        }
      ],
      "stateMutability": "view",
      "type": "function"
    },
    {
      "inputs": [],
      "name": "tokenP",
      "outputs": [
        {
          "internalType": "contract ITokenP",
          "name": "",
          "type": "address"
        }
      ],
      "stateMutability": "view",
      "type": "function"
    }
  ],
  "contractName": "Getters",
  "sourceName": "contracts/parallelizer/facets/Getters.sol",
  "bytecode": "0x60808060405234601557613236908161001a8239f35b5f80fdfe60806040526004361015610011575f80fd5b5f3560e01c80630baaa34d146117255780630d126627146116e957806310d3d22e146116685780631978a5ed1461162357806327f38113146114f257806331da6b13146114c857806333352210146111a357806338c269eb1461107a5780634ea3e3431461102757806377dc342914610fa9578063782513bd14610f71578063847da7be14610f445780638db9653f14610ee45780638fb3603714610e5157806394e35d9e14610d9957806396d6487914610d3f57806399eeca4914610cc6578063a52aefd414610c2f578063ad33ddd014610acc578063adc9d1f714610840578063b718136114610811578063b85780bc146107c9578063cd377c531461036d578063cfad0a3214610331578063d5002f2e146102f5578063eb7aac5f146102c8578063f04da65b1461026b578063f9839d8914610206578063fdcb6068146101c15763fe7d0c5414610163575f80fd5b346101bd5760203660031901126101bd576001600160a01b0361018461177c565b165f527f4b2dd303f68b99d244b702089c802b6e9ea1b5d4ef61fd436d6c41abb1178c7c6020526020600160405f205414604051908152f35b5f80fd5b346101bd575f3660031901126101bd5760206001600160a01b037fc8fcad8db84d3cc18b4c41d551ea0ee66dd599cde068d998e57d5e09332c131d5416604051908152f35b346101bd5760203660031901126101bd576020600160ff61025e61022861177c565b6001600160a01b03165f527f4b2dd303f68b99d244b702089c802b6e9ea1b5d4ef61fd436d6c41abb1178c7a60205260405f2090565b54831c1614604051908152f35b346101bd5760203660031901126101bd5760206102bf61028961177c565b6001600160a01b03165f527f4b2dd303f68b99d244b702089c802b6e9ea1b5d4ef61fd436d6c41abb1178c8260205260405f2090565b54604051908152f35b346101bd5760203660031901126101bd57602060ff6102e861022861177c565b5460181c16604051908152f35b346101bd575f3660031901126101bd5760207f4b2dd303f68b99d244b702089c802b6e9ea1b5d4ef61fd436d6c41abb1178c8054604051908152f35b346101bd575f3660031901126101bd5760207f4b2dd303f68b99d244b702089c802b6e9ea1b5d4ef61fd436d6c41abb1178c7f54604051908152f35b346101bd575f3660031901126101bd57600260ff7f4b2dd303f68b99d244b702089c802b6e9ea1b5d4ef61fd436d6c41abb1178c755460a81c16146107a1575f6103b5611e8c565b80515f916103c282611a30565b5f905b8382106107325750506103e06103da84611a30565b93611a30565b5f5f945b8486106104fe57866104417f4b2dd303f68b99d244b702089c802b6e9ea1b5d4ef61fd436d6c41abb1178c76546b033b2e3c9fd0803ce80000006001600160801b0382169160801c610437828285612ff2565b920915159061247e565b908115806104ea5761045883633b9aca0084612ff2565b906104d65782633b9aca00610470930915159061247e565b9067ffffffffffffffff82116104a55767ffffffffffffffff60409216905b67ffffffffffffffff8351921682526020820152f35b507f6dfcc650000000000000000000000000000000000000000000000000000000005f52604060045260245260445ffd5b634e487b7160e01b5f52601260045260245ffd5b505060409067ffffffffffffffff9061048f565b9091929394956105516001600160a01b036105198988611ab8565b51166001600160a01b03165f527f4b2dd303f68b99d244b702089c802b6e9ea1b5d4ef61fd436d6c41abb1178c7a60205260405f2090565b8054909360ff821615610655576007850161057661057160088801611cbe565b612688565b92908051925f908054915b8581106105e857505050506105dc936105cf6001969460ff6105c46105bf60056105b7670de0b6b3a7640000996105d59961247e565b9d5b01611cbe565b6121b0565b9360181c1690612602565b90611e65565b049061247e565b960194939291906103e4565b8281101561064157600190825f528c61061b6001600160a01b038360205f2001541691610615848a61247e565b90611ab8565b526106268186611ab8565b5161063a610634838961247e565b8d611ab8565b5201610581565b634e487b7160e01b5f52603260045260245ffd5b93916024919260206001600160a01b0361066f8c8b611ab8565b5116604051948580926370a0823160e01b82523060048301525afa928315610727575f936106f4575b50826106a48b8a611ab8565b516001600160a01b03166106b8888a611ab8565b526106c28761248b565b966106cd9087611ab8565b526105d56001946105cf6105dc9560ff6105c46105bf6005670de0b6b3a7640000986105b9565b9092506020813d821161071f575b8161070f602093836119f6565b810103126101bd5751918a610698565b3d9150610702565b6040513d5f823e3d90fd5b9091929360019060ff6107506001600160a01b036105198789611ab8565b54166107785761075f9061248b565b925b8361076c8285611ab8565b520190939291936103c5565b61079b9060076107936001600160a01b03610519888a611ab8565b01549061247e565b92610761565b7f37ed32e8000000000000000000000000000000000000000000000000000000005f5260045ffd5b346101bd5760203660031901126101bd576107e561022861177c565b6107fd60026107f660018401611acc565b9201611bd8565b9061080d6040519283928361189c565b0390f35b346101bd575f3660031901126101bd5761080d61082c611e8c565b6040519182916020835260208301906117ed565b346101bd575f3660031901126101bd576040517f4b2dd303f68b99d244b702089c802b6e9ea1b5d4ef61fd436d6c41abb1178c785480825281602081017f4b2dd303f68b99d244b702089c802b6e9ea1b5d4ef61fd436d6c41abb1178c785f5260205f20925f905b806003830110610a77576108de945491818110610a5c575b818110610a3e575b818110610a20575b10610a12575b5003826119f6565b604051907f4b2dd303f68b99d244b702089c802b6e9ea1b5d4ef61fd436d6c41abb1178c795480835282602081017f4b2dd303f68b99d244b702089c802b6e9ea1b5d4ef61fd436d6c41abb1178c795f5260205f20925f905b8060038301106109cf5761096d9454918181106109bb575b8181106109a4575b81811061098d575b1061097c575b5003836119f6565b61080d6040519283928361189c565b60c01d60070b815260200185610965565b9260206001918460801c60070b815201930161095f565b9260206001918460401c60070b8152019301610957565b9260206001918460070b815201930161094f565b916004919350608060019186548060070b82528060401c60070b602083015280831c60070b604083015260c01d60070b6060820152019401920185929391610937565b60c01c8152602001846108d6565b92602060019167ffffffffffffffff8560801c1681520193016108d0565b92602060019167ffffffffffffffff8560401c1681520193016108c8565b92602060019167ffffffffffffffff851681520193016108c0565b9160049193506080600191865467ffffffffffffffff8116825267ffffffffffffffff8160401c16602083015267ffffffffffffffff81841c16604083015260c01c60608201520194019201849293916108a8565b346101bd5760203660031901126101bd57610ae561177c565b604051906370a0823160e01b82523060048301526020826024816001600160a01b0385165afa918215610727575f92610bf9575b50610b54906001600160a01b03165f527f4b2dd303f68b99d244b702089c802b6e9ea1b5d4ef61fd436d6c41abb1178c7a60205260405f2090565b90610b73610b6c610b6760058501611cbe565b6120ca565b9182611e65565b91549160ff8360181c1692836012019160ff8311610be557610ba292610b9891612602565b9060281c90611f6f565b90670de0b6b3a7640000820292828404670de0b6b3a76400001483151715610be557610bd3610bd892604095611e78565b61264c565b9082519182526020820152f35b634e487b7160e01b5f52601160045260245ffd5b9091506020813d602011610c27575b81610c15602093836119f6565b810103126101bd575190610b54610b19565b3d9150610c08565b346101bd5760403660031901126101bd576020610c4a61177c565b610c8c610c55611792565b916001600160a01b03165f527f4b2dd303f68b99d244b702089c802b6e9ea1b5d4ef61fd436d6c41abb1178c7a60205260405f2090565b9060ff8254841c1615918215610ca9575b50506040519015158152f35b610cbf92506006610cba9101611cbe565b61230a565b8280610c9d565b346101bd5760403660031901126101bd5760043560018110156101bd57610ceb611792565b90610cf581611e82565b5f527f4b2dd303f68b99d244b702089c802b6e9ea1b5d4ef61fd436d6c41abb1178c7d6020526001600160a01b0360405f2091165f52602052602060405f20541515604051908152f35b346101bd5760203660031901126101bd576001600160a01b03610d6061177c565b165f527f4b2dd303f68b99d244b702089c802b6e9ea1b5d4ef61fd436d6c41abb1178c7b6020526020600160405f205414604051908152f35b346101bd5760203660031901126101bd576040610db461177c565b6b033b2e3c9fd0803ce8000000610e44610e336001600160801b0383610e3c7f4b2dd303f68b99d244b702089c802b6e9ea1b5d4ef61fd436d6c41abb1178c7654968760801c9485916001600160a01b03165f527f4b2dd303f68b99d244b702089c802b6e9ea1b5d4ef61fd436d6c41abb1178c7a60205260405f2090565b5460281c611e65565b049416611e65565b0482519182526020820152f35b346101bd575f3660031901126101bd577f4b2dd303f68b99d244b702089c802b6e9ea1b5d4ef61fd436d6c41abb1178c755460b01c60ff1615610edc5760207f8fb36037000000000000000000000000000000000000000000000000000000005b7fffffffff0000000000000000000000000000000000000000000000000000000060405191168152f35b60205f610eb2565b346101bd575f3660031901126101bd5760206b033b2e3c9fd0803ce8000000610f3b7f4b2dd303f68b99d244b702089c802b6e9ea1b5d4ef61fd436d6c41abb1178c76546001600160801b038160801c9116611e65565b04604051908152f35b346101bd5760203660031901126101bd57610f6061022861177c565b6107fd60046107f660038401611acc565b346101bd5760203660031901126101bd5761080d610f9560066105b961022861177c565b6040519182916020835260208301906117c9565b346101bd5760203660031901126101bd576004357fffffffff0000000000000000000000000000000000000000000000000000000081168091036101bd575f527fc8fcad8db84d3cc18b4c41d551ea0ee66dd599cde068d998e57d5e09332c131c60205260206001600160a01b0360405f2054161515604051908152f35b346101bd5760203660031901126101bd5761080d61104b61104661177c565b611dd9565b61106c604094929451948594151585526060602086015260608501906117ed565b9083820360408501526117c9565b346101bd5760203660031901126101bd5761109361177c565b6110d260056105b9836001600160a01b03165f527f4b2dd303f68b99d244b702089c802b6e9ea1b5d4ef61fd436d6c41abb1178c7a60205260405f2090565b6110db81611f7c565b670de0b6b3a7640000906110ed611e8c565b8051906001600160a01b035f9716965b82811061113a5750505060a0945061111d611117856120ca565b946121b0565b926040519485526020850152604084015260608301526080820152f35b876001600160a01b0361114d8385611ab8565b5116146111935761117661117160056105b96001600160a01b036105198688611ab8565b611f7c565b90505b85811061118a575b506001016110fd565b94506001611181565b61119c87611f7c565b9050611179565b346101bd5760203660031901126101bd576111bc61177c565b6040516111c8816119a9565b5f8152602081015f9052604081015f9052606081015f9052608081015f905260a081015f905260c081016060905260e081016060905261010081016060905261012081016060905261014081016060905261016081016060905260405161122e816119da565b6060815260208101606090526101808201526101a0015f9052611281906001600160a01b03165f527f4b2dd303f68b99d244b702089c802b6e9ea1b5d4ef61fd436d6c41abb1178c7a60205260405f2090565b60405161128d816119a9565b815460ff8116825260208201928160081c60ff16845260408301918060101c60ff16835260608401908060181c60ff16825260808501908060201c60ff16825260a086019060281c8152600184016112e490611acc565b60c087019081526112f760028601611bd8565b60e0880190815261130a60038701611acc565b61010089019081529161131f60048801611bd8565b6101208a019081529361133460058901611cbe565b6101408b019081529561134960068a01611cbe565b976101608c019889526040519961135f8b6119da565b61136b60078201611d88565b8b5261137960088201611cbe565b60208c01526101808d019a8b52600901549a6101a08d019b8c52604051809e819e602083525160ff1660208301525160ff1690604001525160ff1660608d01525160ff1660808c01525160ff1660a08b0152517affffffffffffffffffffffffffffffffffffffffffffffffffffff1660c08a01525160e089016101c090526101e0890161140691611829565b9051888203601f19016101008a015261141f9190611866565b9051878203601f19016101208901526114389190611829565b9051868203601f19016101408801526114519190611866565b9051858203601f190161016087015261146a91906117c9565b9051848203601f190161018086015261148391906117c9565b9051601f19848303016101a0850152805160408352604083016114a5916117ed565b90602001519180820390602001526114bc916117c9565b90516101c08301520390f35b346101bd5760203660031901126101bd57602060096114e861022861177c565b0154604051908152f35b346101bd575f3660031901126101bd577f4b2dd303f68b99d244b702089c802b6e9ea1b5d4ef61fd436d6c41abb1178c815461152d81611a30565b9061153781611a30565b905f5b8181106115985761155a84846040519283926040845260408401906117ed565b8281036020840152602080835192838152019201905f5b81811061157f575050500390f35b8251845285945060209384019390920191600101611571565b806001600160a01b036115ac600193611a62565b90549060031b1c166115be8287611ab8565b526116116001600160a01b036115d383611a62565b90549060031b1c166001600160a01b03165f527f4b2dd303f68b99d244b702089c802b6e9ea1b5d4ef61fd436d6c41abb1178c8260205260405f2090565b5461161c8286611ab8565b520161153a565b346101bd575f3660031901126101bd5760206001600160a01b037f4b2dd303f68b99d244b702089c802b6e9ea1b5d4ef61fd436d6c41abb1178c755416604051908152f35b346101bd5760203660031901126101bd576116b26116bc61080d6116cd6116db6116a061169b60056105b961022861177c565b612499565b959260409891949851998a809a6117a8565b60208901906117a8565b60a0604088015260a08701906117c9565b9085820360608701526117c9565b9083820360808501526117c9565b346101bd5760403660031901126101bd5761170261177c565b6024359060038210156101bd5760209161171b916118c4565b6040519015158152f35b346101bd5760203660031901126101bd576001600160a01b0361174661177c565b165f527f4b2dd303f68b99d244b702089c802b6e9ea1b5d4ef61fd436d6c41abb1178c7e602052602060405f2054604051908152f35b600435906001600160a01b03821682036101bd57565b602435906001600160a01b03821682036101bd57565b90600a8210156117b55752565b634e487b7160e01b5f52602160045260245ffd5b805180835260209291819084018484015e5f828201840152601f01601f1916010190565b90602080835192838152019201905f5b81811061180a5750505090565b82516001600160a01b03168452602093840193909201916001016117fd565b90602080835192838152019201905f5b8181106118465750505090565b825167ffffffffffffffff16845260209384019390920191600101611839565b90602080835192838152019201905f5b8181106118835750505090565b825160070b845260209384019390920191600101611876565b90916118b36118c193604084526040840190611829565b916020818403910152611866565b90565b600382101590816117b55782158093811561199b575b501561196c5761191a906001600160a01b03165f527f4b2dd303f68b99d244b702089c802b6e9ea1b5d4ef61fd436d6c41abb1178c7a60205260405f2090565b549060ff8260181c1615611944576117b55760ff911561193c5760081c161590565b60101c161590565b7f373f15fc000000000000000000000000000000000000000000000000000000005f5260045ffd5b50505060ff7f4b2dd303f68b99d244b702089c802b6e9ea1b5d4ef61fd436d6c41abb1178c755460a01c161590565b92505060015f92145f6118da565b6101c0810190811067ffffffffffffffff8211176119c657604052565b634e487b7160e01b5f52604160045260245ffd5b6040810190811067ffffffffffffffff8211176119c657604052565b90601f8019910116810190811067ffffffffffffffff8211176119c657604052565b67ffffffffffffffff81116119c65760051b60200190565b90611a3a82611a18565b611a4760405191826119f6565b8281528092611a58601f1991611a18565b0190602036910137565b7f4b2dd303f68b99d244b702089c802b6e9ea1b5d4ef61fd436d6c41abb1178c8154811015610641577f4b2dd303f68b99d244b702089c802b6e9ea1b5d4ef61fd436d6c41abb1178c815f5260205f2001905f90565b80518210156106415760209160051b010190565b90604051918281549182825260208201905f5260205f20925f905b806003830110611b8357611b1c945491818110611b68575b818110611b4a575b818110611b2c575b10611b1e575003836119f6565b565b60c01c81526020015f610965565b92602060019167ffffffffffffffff8560801c168152019301611b0f565b92602060019167ffffffffffffffff8560401c168152019301611b07565b92602060019167ffffffffffffffff85168152019301611aff565b9160049193506080600191865467ffffffffffffffff8116825267ffffffffffffffff8160401c16602083015267ffffffffffffffff81841c16604083015260c01c6060820152019401920185929391611ae7565b90604051918281549182825260208201905f5260205f20925f905b806003830110611c7b57611b1c945491818110611c67575b818110611c50575b818110611c39575b10611c28575003836119f6565b60c01d60070b81526020015f610965565b9260206001918460801c60070b8152019301611c1b565b9260206001918460401c60070b8152019301611c13565b9260206001918460070b8152019301611c0b565b916004919350608060019186548060070b82528060401c60070b602083015280831c60070b604083015260c01d60070b6060820152019401920185929391611bf3565b90604051915f8154908160011c9260018316928315611d7e575b602085108414611d6a578487528693908115611d485750600114611d04575b50611b1c925003836119f6565b90505f9291925260205f20905f915b818310611d2c575050906020611b1c928201015f611cf7565b6020919350806001915483858901015201910190918492611d13565b905060209250611b1c94915060ff191682840152151560051b8201015f611cf7565b634e487b7160e01b5f52602260045260245ffd5b93607f1693611cd8565b90604051918281549182825260208201905f5260205f20925f5b818110611db7575050611b1c925003836119f6565b84546001600160a01b0316835260019485019487945060209093019201611da2565b611e13906001600160a01b03165f527f4b2dd303f68b99d244b702089c802b6e9ea1b5d4ef61fd436d6c41abb1178c7a60205260405f2090565b60ff815416611e4a575060405190611e2c6020836119f6565b5f82525f3681375f9190604051611e446020826119f6565b5f815290565b6001916118c16008611e5e60078501611d88565b9301611cbe565b81810292918115918404141715610be557565b81156104d6570490565b600111156117b557565b604051907f4b2dd303f68b99d244b702089c802b6e9ea1b5d4ef61fd436d6c41abb1178c775480835282602081017f4b2dd303f68b99d244b702089c802b6e9ea1b5d4ef61fd436d6c41abb1178c775f5260205f20925f5b818110611ef9575050611b1c925003836119f6565b84546001600160a01b0316835260019485019487945060209093019201611ee4565b908160209103126101bd57516001600160a01b03811681036101bd5790565b51906001600160801b03821682036101bd57565b91908260409103126101bd576118c16020611f6884611f3a565b9301611f3a565b91908203918211610be557565b611f8590612499565b600a85949293969510156117b557600184146120315794611fc5939291611fbd876020806001600160801b039a518301019101611f4e565b97169361253a565b81939193670de0b6b3a76400009283820290828204851483151715610be5576001600160801b03168403848111610be5576120009084611e65565b11156120205750818402918483041484151715610be5576118c191611e78565b81909392931061202d5750565b9250565b5050505060406001600160a01b0361205484602080600497518301019101611f1b565b168151938480927f4cb44a760000000000000000000000000000000000000000000000000000000082525afa918215610727575f905f9361209457509190565b9250506040823d6040116120c2575b816120b0604093836119f6565b810103126101bd576020825192015190565b3d91506120a3565b6120d390612499565b600a859492939510156117b5576001841461212157906001600160801b03612108836020806121109996518301019101611f4e565b50169361253a565b81929192811061211d5750565b9150565b5050505060206001600160a01b03612143838380600496518301019101611f1b565b16604051928380927f5ade93550000000000000000000000000000000000000000000000000000000082525afa908115610727575f91612181575090565b90506020813d6020116121a8575b8161219c602093836119f6565b810103126101bd575190565b3d915061218f565b6121b990612499565b50909291600a8310156117b5576001830361222d5750505060206001600160a01b036121ef838380600496518301019101611f1b565b16604051928380927f6256f2c50000000000000000000000000000000000000000000000000000000082525afa908115610727575f91612181575090565b61224392939161223c91612849565b8093612c7f565b90670de0b6b3a7640000808202828104821483151715610be557818402848104831485151715610be5578082109283612287575b505050612282575090565b905090565b909192508383041483151715610be557105f8080612277565b81601f820112156101bd5780519067ffffffffffffffff82116119c657604051926122d5601f8401601f1916602001856119f6565b828452602083830101116101bd57815f9260208093018386015e8301015290565b51906001600160a01b03821682036101bd57565b805181016040828203126101bd5760208201519160018310156101bd5760408101519167ffffffffffffffff83116101bd5761234d9260208092019201016122a0565b9061235781611e82565b805f527f4b2dd303f68b99d244b702089c802b6e9ea1b5d4ef61fd436d6c41abb1178c7d60205260405f206001600160a01b0384165f5260205260405f20546124765781516123a8575b5050505f90565b6123b181611e82565b156123bd575b806123a1565b6020818051810103126101bd576123de60206001600160a01b0392016122f6565b169081156123b7576001600160a01b0360446020925f60405195869485937f65e4ad9e0000000000000000000000000000000000000000000000000000000085523060048601521660248401525af1908115610727575f9161243e575090565b90506020813d60201161246e575b81612459602093836119f6565b810103126101bd575180151581036101bd5790565b3d915061244c565b505050600190565b91908201809211610be557565b5f198114610be55760010190565b8051810160a082602083019203126101bd576020820151600a8110156101bd57604083015193600a8510156101bd57606084015167ffffffffffffffff81116101bd578360206124eb928701016122a0565b93608081015167ffffffffffffffff81116101bd5784602061250f928401016122a0565b9360a08201519167ffffffffffffffff83116101bd5761253292016020016122a0565b919493929190565b93949261254b906125529392612849565b8094612c7f565b9280670de0b6b3a764000003670de0b6b3a76400008111610be5576125779084611e65565b670de0b6b3a7640000850290858204670de0b6b3a76400001486151715610be557811191826125af575b50506125a957565b91508091565b909150670de0b6b3a76400000180670de0b6b3a764000011610be5576125d59084611e65565b115f806125a1565b9060ff8091169116039060ff8211610be557565b60ff16604d8111610be557600a0a90565b9060ff8116601281111561262e57509061262861262360126118c1946125dd565b6125f1565b90611e78565b6012111561264857906105cf6126236118c19360126125dd565b5090565b9060ff8116806012115f1461266e5750906126286126236118c19360126125dd565b6012101561264857906105cf61262360126118c1946125dd565b6060915f91805181016040828203126101bd5760208201519160018310156101bd5760408101519167ffffffffffffffff83116101bd576126d09260208092019201016122a0565b906126da81611e82565b156126e25750565b60209193508080935051810103126101bd5760200151906001600160a01b0382168092036101bd575f600492604051938480927f01e1d1140000000000000000000000000000000000000000000000000000000082525afa918215610727575f905f9361274e57509190565b9250503d805f843e61276081846119f6565b8201916040818403126101bd57805167ffffffffffffffff81116101bd5781019280601f850112156101bd57835161279781611a18565b946127a560405196876119f6565b81865260208087019260051b8201019283116101bd57602001905b8282106127d1575050506020015190565b81518152602091820191016127c0565b9080601f830112156101bd578151906127f982611a18565b9261280760405194856119f6565b82845260208085019360051b8201019182116101bd57602001915b81831061282f5750505090565b825160ff811681036101bd57815260209283019201612822565b600a8110156117b55780612a59575090815182019160a081602085019403126101bd57602081015167ffffffffffffffff81116101bd5781019280603f850112156101bd57602084015161289c81611a18565b946128aa60405196876119f6565b8186526020808088019360051b83010101908382116101bd57604001915b818310612a3957505050604082015167ffffffffffffffff81116101bd57820181603f820112156101bd57602081015161290181611a18565b9161290f60405193846119f6565b8183526020808085019360051b83010101908482116101bd57604001915b818310612a1c57505050606083015167ffffffffffffffff81116101bd5782602061295a928601016127e1565b91608084015167ffffffffffffffff81116101bd5760a0916020612980928701016127e1565b93015160028110156101bd57670de0b6b3a76400006129a3919694929596613090565b938351915f935b8385106129ba5750505050505090565b90919293949695612a0f6001916001600160a01b036129d9898c611ab8565b511660ff6129e78a87611ab8565b511660ff6129f58b89611ab8565b51169163ffffffff612a078c8b611ab8565b5116936130cf565b96979501939291906129aa565b825163ffffffff811681036101bd5781526020928301920161292d565b82516001600160a01b03811681036101bd578152602092830192016128c8565b60038103612a6f575050670de0b6b3a764000090565b60028103612a85575050670de0b6b3a764000090565b60048103612ad8575050604051630f451f7160e31b8152670de0b6b3a7640000600482015260208160248173ae7ab96520de3a18e5e111b5eaab095312d7fe845afa908115610727575f91612181575090565b60058103612b1d575050604051633ba0b9a960e01b815260208160048173be9895146f7af43049ca1c1ae358b0541ea497045afa908115610727575f91612181575090565b60068103612b625750506040516339aa885b60e21b815260208160048173ae78736cd615f374d3085123a210448e74fc63935afa908115610727575f91612181575090565b60078103612ba7575050604051634ca9858360e11b815260208160048173ac3e018457b222d93114458476f3e3416abbe38f5afa908115610727575f91612181575090565b60088103612bc85750602081519181808201938492010103126101bd575190565b600903612c72576040818051810103126101bd578060206040612bf4826001600160a01b0395016122f6565b920151916004604051809581937fa035b1fe000000000000000000000000000000000000000000000000000000008352165afa8015610727575f90612c3e575b6118c19250611e78565b506020823d602011612c6a575b81612c58602093836119f6565b810103126101bd576118c19151612c34565b3d9150612c4b565b50670de0b6b3a764000090565b92919092600a8110156117b55780612e5457508051810160a082602083019203126101bd57602082015167ffffffffffffffff81116101bd5782019381603f860112156101bd576020850151612cd481611a18565b95612ce260405197886119f6565b8187526020808089019360051b83010101908482116101bd57604001915b818310612e3457505050604083015167ffffffffffffffff81116101bd5783019082603f830112156101bd576020820151612d3a81611a18565b92612d4860405194856119f6565b8184526020808086019360051b83010101908582116101bd57604001915b818310612e1757505050606084015167ffffffffffffffff81116101bd57836020612d93928701016127e1565b92608085015167ffffffffffffffff81116101bd5760a0916020612db9928801016127e1565b9401519060028210156101bd57612dd4919694929596613090565b938351915f935b838510612deb5750505050505090565b90919293949695612e0a6001916001600160a01b036129d9898c611ab8565b9697950193929190612ddb565b825163ffffffff811681036101bd57815260209283019201612d66565b82516001600160a01b03811681036101bd57815260209283019201612d00565b9192909160038103612e6f57505050670de0b6b3a764000090565b60028103612e7d5750905090565b60048103612ed157505050604051630f451f7160e31b8152670de0b6b3a7640000600482015260208160248173ae7ab96520de3a18e5e111b5eaab095312d7fe845afa908115610727575f91612181575090565b60058103612f1757505050604051633ba0b9a960e01b815260208160048173be9895146f7af43049ca1c1ae358b0541ea497045afa908115610727575f91612181575090565b60068103612f5d575050506040516339aa885b60e21b815260208160048173ae78736cd615f374d3085123a210448e74fc63935afa908115610727575f91612181575090565b60078103612fa357505050604051634ca9858360e11b815260208160048173ac3e018457b222d93114458476f3e3416abbe38f5afa908115610727575f91612181575090565b60088103612fc5575050602081519181808201938492010103126101bd575190565b60090361228257506040818051810103126101bd578060206040612bf4826001600160a01b0395016122f6565b90915f198383099280830292838086109503948086039514613083578483111561306b5790829109815f0382168092046002816003021880820260020302808202600203028082026002030280820260020302808202600203028091026002030293600183805f03040190848311900302920304170290565b82634e487b715f52156003026011186020526024601cfd5b5050906118c19250611e78565b60028110156117b5576118c15750670de0b6b3a764000090565b519069ffffffffffffffffffff821682036101bd57565b604d8111610be557600a0a90565b91909360a06001600160a01b0394956004604051809781937ffeaf968c000000000000000000000000000000000000000000000000000000008352165afa908115610727575f945f926131aa575b505f85139182159261318e575b50506131665760ff166001036131515761314b6118c1939261262892611e65565b916130c1565b613161906105cf6118c1946130c1565b611e78565b7fae193563000000000000000000000000000000000000000000000000000000005f5260045ffd5b63ffffffff9192506131a09042611f6f565b9116105f8061312a565b9450905060a0843d60a0116131f8575b816131c760a093836119f6565b810103126101bd576131d8846130aa565b5060208401516131ef6080606087015196016130aa565b5093905f61311d565b3d91506131ba56fea264697066735822122039a64c56d2c569c406eadef98959db459cd883c2c59629e19aa94a8a8544f2ca64736f6c634300081c0033",
  "linkReferences": {},
  "deployedLinkReferences": {},
  "immutableReferences": {},
  "inputSourceName": "project/contracts/parallelizer/facets/Getters.sol",
  "devdoc": {
    "author": "Cooper Labs",
    "custom:contact": "security@cooperlabs.xyz",
    "details": "There may be duplicates in the info provided by the getters defined hereThis contract is an authorized fork of Angle's `Getters` contract https://github.com/AngleProtocol/angle-transmuter/blob/main/contracts/parallelizer/facets/Getters.sol",
    "errors": {
      "SafeCastOverflowedUintDowncast(uint8,uint256)": [
        {
          "details": "Value doesn't fit in an uint of `bits` size."
        }
      ]
    },
    "kind": "dev",
    "methods": {
      "getCollateralRatio()": {
        "details": "This function may revert and overflow if the collateral ratio is too big due to a too small amount of `stablecoinsIssued`. Due to this, it is recommended to initialize the system with a non negligible amount of `stablecoinsIssued` so DoS attacks on redemptions which use this function become economically impossible"
      },
      "getCollateralSurplus(address)": {
        "params": {
          "collateral": "The collateral address to compute the surplus of."
        },
        "returns": {
          "collateralSurplus": "The collateral surplus amount.",
          "stableSurplus": "The surplus in stable amount."
        }
      },
      "getOracle(address)": {
        "returns": {
          "oracleData": "Extra data needed to read the oracle. For Chainlink oracles, this data is supposed to give the addresses of the Chainlink feeds to read, the stale periods for each feed, ...",
          "oracleType": "Type of oracle (Chainlink, external smart contract, ...)",
          "targetData": "Extra data needed to read the target price of the asset",
          "targetType": "Type passed to read the value of the target price"
        }
      },
      "getOracleValues(address)": {
        "details": "This function is not optimized for gas consumption as for instance the `burn` value for collateral is computed twice: once in `readBurn` and once in `getBurnOracle`",
        "returns": {
          "burn": "Oracle value that will be used for `collateral` for a burn transaction. This value is then used along with oracle values for all other collateral assets to get a global burn value for the oracle",
          "minRatio": "Minimum ratio across all collateral assets between a collateral burn price and its target price. This value is independent of `collateral` and is used to normalize the burn oracle value for burn transactions.",
          "mint": "Oracle value to be used for a mint transaction with `collateral`",
          "ratio": "Ratio, in base `10**18` between the oracle value of the `collateral` and its target price. This value is 10**18 if the oracle is greater than the collateral price",
          "redemption": "Oracle value that would be used to price `collateral` when computing the collateral ratio during a redemption"
        }
      },
      "getSlippageTolerance(address)": {
        "details": "Maximum slippage tolerance is 1e9 (100%)"
      },
      "isConsumingScheduledOp()": {
        "details": "Returns true only in the context of a delayed restricted call, at the moment that the scheduled operation is being consumed. Prevents denial of service for delayed restricted calls in the case that the contract performs attacker controlled calls."
      },
      "isWhitelistedForCollateral(address,address)": {
        "details": "This function is non view as it may consult external non view functions from whitelist providers"
      },
      "isWhitelistedForType(uint8,address)": {
        "details": "Note that ultimately whitelisting may depend as well on external providers"
      }
    },
    "title": "Getters",
    "version": 1
  },
  "evm": {
    "gasEstimates": {
      "creation": {
        "codeDepositCost": "2570800",
        "executionCost": "2790",
        "totalCost": "2573590"
      },
      "external": {
        "accessManager()": "2882",
        "getCollateralBurnFees(address)": "infinite",
        "getCollateralDecimals(address)": "2975",
        "getCollateralInfo(address)": "infinite",
        "getCollateralList()": "infinite",
        "getCollateralMintFees(address)": "infinite",
        "getCollateralRatio()": "infinite",
        "getCollateralSurplus(address)": "infinite",
        "getCollateralWhitelistData(address)": "infinite",
        "getIssuedByCollateral(address)": "infinite",
        "getLastReleasedAt()": "2754",
        "getManagerData(address)": "infinite",
        "getOracle(address)": "infinite",
        "getOracleValues(address)": "infinite",
        "getPayees()": "infinite",
        "getRedemptionFees()": "infinite",
        "getShares(address)": "2985",
        "getSlippageTolerance(address)": "2398",
        "getStablecoinCap(address)": "2529",
        "getTotalIssued()": "2630",
        "getTotalShares()": "2776",
        "isConsumingScheduledOp()": "2583",
        "isPaused(address,uint8)": "2706",
        "isTrusted(address)": "2734",
        "isTrustedSeller(address)": "3039",
        "isValidSelector(bytes4)": "2566",
        "isWhitelistedCollateral(address)": "3025",
        "isWhitelistedForCollateral(address,address)": "infinite",
        "isWhitelistedForType(uint8,address)": "2900",
        "tokenP()": "2332"
      }
    }
  },
  "storageLayout": {
    "storage": [],
    "types": null
  },
  "userdoc": {
    "kind": "user",
    "methods": {
      "accessManager()": {
        "notice": "Returns the address of the `accessManager` contract"
      },
      "getCollateralBurnFees(address)": {
        "notice": "Returns the `xFee` and `yFee` arrays from which fees are computed when coming to burn for `collateral`"
      },
      "getCollateralDecimals(address)": {
        "notice": "Returns the decimals of a given `collateral`"
      },
      "getCollateralInfo(address)": {
        "notice": "Returns all the info in storage associated to a `collateral`"
      },
      "getCollateralList()": {
        "notice": "Returns the list of collateral assets supported by the system"
      },
      "getCollateralMintFees(address)": {
        "notice": "Returns the `xFee` and `yFee` arrays from which fees are computed when coming to mint with `collateral`"
      },
      "getCollateralRatio()": {
        "notice": "Returns the collateral ratio of Parallelizer in base `10**9` and a rounded version of the total amount of stablecoins issued"
      },
      "getCollateralSurplus(address)": {
        "notice": "Computes the surplus of a collateral."
      },
      "getCollateralWhitelistData(address)": {
        "notice": "Gets the data needed to deal with whitelists for `collateral`"
      },
      "getIssuedByCollateral(address)": {
        "notice": "Returns the amount of stablecoins issued from `collateral` and the total amount of stablecoins issued through Parallelizer"
      },
      "getLastReleasedAt()": {
        "notice": "Returns the last time the income was released to the payees"
      },
      "getManagerData(address)": {
        "notice": "Returns if a collateral is \"managed\" and the associated manager configuration"
      },
      "getOracle(address)": {
        "notice": "Returns the data used to compute oracle values for `collateral`"
      },
      "getOracleValues(address)": {
        "notice": "Returns the oracle values associated to `collateral`"
      },
      "getPayees()": {
        "notice": "Returns the payees and their shares"
      },
      "getRedemptionFees()": {
        "notice": "Returns the `xFee` and `yFee` arrays used to compute the penalty factor depending on the collateral ratio when users come to redeem"
      },
      "getShares(address)": {
        "notice": "Returns the shares of a payee"
      },
      "getSlippageTolerance(address)": {
        "notice": "Returns the slippage tolerance for a `collateral` for the surplus"
      },
      "getStablecoinCap(address)": {
        "notice": "Returns the stablecoin cap for `collateral`"
      },
      "getTotalIssued()": {
        "notice": "Returns the total amount of stablecoins issued through Parallelizer"
      },
      "getTotalShares()": {
        "notice": "Returns the total shares of the payees"
      },
      "isPaused(address,uint8)": {
        "notice": "Returns if the associated functionality is paused or not"
      },
      "isTrusted(address)": {
        "notice": "Returns if `sender` is trusted to update normalizers"
      },
      "isTrustedSeller(address)": {
        "notice": "Returns if `sender` is trusted to update sell rewards"
      },
      "isValidSelector(bytes4)": {
        "notice": "Checks whether a given `selector` is actually a valid selector corresponding to a function in one of the facets of the proxy"
      },
      "isWhitelistedCollateral(address)": {
        "notice": "Checks whether only whitelisted address can deal with `collateral` during burns and redemptions"
      },
      "isWhitelistedForCollateral(address,address)": {
        "notice": "Checks whether `sender` can deal with `collateral` during burns and redemptions"
      },
      "isWhitelistedForType(uint8,address)": {
        "notice": "Checks whether `sender` has a non null entry in the `isWhitelistedForType` storage mapping"
      },
      "tokenP()": {
        "notice": "Stablecoin minted by parallelizer"
      }
    },
    "version": 1
  },
  "argsData": "0x",
  "transaction": {
    "hash": "0xcf3feb12cab4d23e3bd9b614f14f179ddcb36e66bb197f418c9c14fad5f5908f",
    "nonce": "0xb0",
    "origin": "0x66ccec236bbce5f1bbd1b2fc0a4014e57a55ad02"
  }
}