{
  "address": "0x57770C1721Eb35509f38210A935c8b1911db7E0e",
  "abi": [
    {
      "inputs": [],
      "name": "InvalidChainlinkRate",
      "type": "error"
    },
    {
      "inputs": [],
      "name": "InvalidLengths",
      "type": "error"
    },
    {
      "inputs": [],
      "name": "NotTrusted",
      "type": "error"
    },
    {
      "inputs": [],
      "name": "NotWhitelisted",
      "type": "error"
    },
    {
      "inputs": [],
      "name": "Paused",
      "type": "error"
    },
    {
      "inputs": [],
      "name": "ReentrantCall",
      "type": "error"
    },
    {
      "inputs": [
        {
          "internalType": "uint8",
          "name": "bits",
          "type": "uint8"
        },
        {
          "internalType": "uint256",
          "name": "value",
          "type": "uint256"
        }
      ],
      "name": "SafeCastOverflowedUintDowncast",
      "type": "error"
    },
    {
      "inputs": [
        {
          "internalType": "address",
          "name": "token",
          "type": "address"
        }
      ],
      "name": "SafeERC20FailedOperation",
      "type": "error"
    },
    {
      "inputs": [],
      "name": "TooBigAmountIn",
      "type": "error"
    },
    {
      "inputs": [],
      "name": "TooLate",
      "type": "error"
    },
    {
      "inputs": [],
      "name": "TooSmallAmountOut",
      "type": "error"
    },
    {
      "anonymous": false,
      "inputs": [
        {
          "indexed": false,
          "internalType": "uint256",
          "name": "newNormalizerValue",
          "type": "uint256"
        }
      ],
      "name": "NormalizerUpdated",
      "type": "event"
    },
    {
      "anonymous": false,
      "inputs": [
        {
          "indexed": false,
          "internalType": "uint256",
          "name": "amount",
          "type": "uint256"
        },
        {
          "indexed": false,
          "internalType": "address[]",
          "name": "tokens",
          "type": "address[]"
        },
        {
          "indexed": false,
          "internalType": "uint256[]",
          "name": "amounts",
          "type": "uint256[]"
        },
        {
          "indexed": false,
          "internalType": "address[]",
          "name": "forfeitTokens",
          "type": "address[]"
        },
        {
          "indexed": true,
          "internalType": "address",
          "name": "from",
          "type": "address"
        },
        {
          "indexed": true,
          "internalType": "address",
          "name": "to",
          "type": "address"
        }
      ],
      "name": "Redeemed",
      "type": "event"
    },
    {
      "inputs": [
        {
          "internalType": "uint256",
          "name": "amount",
          "type": "uint256"
        }
      ],
      "name": "quoteRedemptionCurve",
      "outputs": [
        {
          "internalType": "address[]",
          "name": "tokens",
          "type": "address[]"
        },
        {
          "internalType": "uint256[]",
          "name": "amounts",
          "type": "uint256[]"
        }
      ],
      "stateMutability": "view",
      "type": "function"
    },
    {
      "inputs": [
        {
          "internalType": "uint256",
          "name": "amount",
          "type": "uint256"
        },
        {
          "internalType": "address",
          "name": "receiver",
          "type": "address"
        },
        {
          "internalType": "uint256",
          "name": "deadline",
          "type": "uint256"
        },
        {
          "internalType": "uint256[]",
          "name": "minAmountOuts",
          "type": "uint256[]"
        }
      ],
      "name": "redeem",
      "outputs": [
        {
          "internalType": "address[]",
          "name": "tokens",
          "type": "address[]"
        },
        {
          "internalType": "uint256[]",
          "name": "amounts",
          "type": "uint256[]"
        }
      ],
      "stateMutability": "nonpayable",
      "type": "function"
    },
    {
      "inputs": [
        {
          "internalType": "uint256",
          "name": "amount",
          "type": "uint256"
        },
        {
          "internalType": "address",
          "name": "receiver",
          "type": "address"
        },
        {
          "internalType": "uint256",
          "name": "deadline",
          "type": "uint256"
        },
        {
          "internalType": "uint256[]",
          "name": "minAmountOuts",
          "type": "uint256[]"
        },
        {
          "internalType": "address[]",
          "name": "forfeitTokens",
          "type": "address[]"
        }
      ],
      "name": "redeemWithForfeit",
      "outputs": [
        {
          "internalType": "address[]",
          "name": "tokens",
          "type": "address[]"
        },
        {
          "internalType": "uint256[]",
          "name": "amounts",
          "type": "uint256[]"
        }
      ],
      "stateMutability": "nonpayable",
      "type": "function"
    },
    {
      "inputs": [
        {
          "internalType": "uint256",
          "name": "amount",
          "type": "uint256"
        },
        {
          "internalType": "bool",
          "name": "increase",
          "type": "bool"
        }
      ],
      "name": "updateNormalizer",
      "outputs": [
        {
          "internalType": "uint256",
          "name": "",
          "type": "uint256"
        }
      ],
      "stateMutability": "nonpayable",
      "type": "function"
    }
  ],
  "transactionHash": "0x557f1906847afa4fa2b27e4d7d40910a23ad7af11ad4674f640f343aea773379",
  "args": [],
  "numDeployments": 1,
  "solcInputHash": "9d44d918681c9ad36f866ebee034a3d1",
  "bytecode": "0x60808060405234601557612cec908161001a8239f35b5f80fdfe60806040526004361015610011575f80fd5b5f3560e01c80632e7639bc1461041f578063815822c1146103b0578063d703a0cd1461037f5763fd7daaf814610045575f80fd5b3461037b57604036600319011261037b57602435600435811515820361037b5761006f3633611556565b1580610348575b610320575f516020612c975f395f51905f5254906001600160801b038260801c9216925f146102df576b033b2e3c9fd0803ce80000008102908082046b033b2e3c9fd0803ce800000014901517156102b2576100db926100d591610e15565b906117c8565b670de0b6b3a764000081118015906102c6575b610170575b806100ff602092611de2565b6001600160801b036fffffffffffffffffffffffffffffffff195f516020612c975f395f51905f52549260801b169116175f516020612c975f395f51905f52557fb4fde7403c001c7cdeafc0c3bb46e972111b7efac4e832398cbf9fabe1694ed982604051838152a1604051908152f35b610178610674565b9081515f915f5b8281106101dc575050506001600160801b039150166fffffffffffffffffffffffffffffffff195f516020612c975f395f51905f525416175f516020612c975f395f51905f525560206b033b2e3c9fd0803ce800000090506100f3565b61024c6b033b2e3c9fd0803ce80000006102468461023d6001600160a01b03610205878c610726565b51166001600160a01b03165f527f4b2dd303f68b99d244b702089c802b6e9ea1b5d4ef61fd436d6c41abb1178c7a60205260405f2090565b5460281c610e02565b04611de2565b936001600160801b03808616911601906001600160801b0382116102b257600191946102836001600160a01b03610205848a610726565b9064ffffffffff74ffffffffffffffffffffffffffffffff000000000083549260281b1691161790550161017f565b634e487b7160e01b5f52601160045260245ffd5b506ec097ce7bc90715b34b9f10000000008110156100ee565b6b033b2e3c9fd0803ce80000008102908082046b033b2e3c9fd0803ce800000014901517156102b25761031b9261031591610e15565b90610804565b6100db565b7fc22a648e000000000000000000000000000000000000000000000000000000005f5260045ffd5b50335f527f4b2dd303f68b99d244b702089c802b6e9ea1b5d4ef61fd436d6c41abb1178c7b60205260405f205415610076565b5f80fd5b3461037b57602036600319011261037b5761039b600435610e33565b50906103ac6040519283928361061a565b0390f35b3461037b57608036600319011261037b576103c96104ea565b6064359067ffffffffffffffff821161037b576103ed61040f92369060040161054e565b604051916103fc602084610500565b5f83525f3681376044359060043561081f565b906103ac6040519283928361061a565b3461037b5760a036600319011261037b576104386104ea565b60643567ffffffffffffffff811161037b5761045890369060040161054e565b6084359067ffffffffffffffff821161037b573660238301121561037b5781600401359261048584610536565b926104936040519485610500565b8484526024602085019560051b8201019036821161037b57602401945b8186106104ca57505061040f93506044359060043561081f565b85356001600160a01b038116810361037b578152602095860195016104b0565b602435906001600160a01b038216820361037b57565b90601f8019910116810190811067ffffffffffffffff82111761052257604052565b634e487b7160e01b5f52604160045260245ffd5b67ffffffffffffffff81116105225760051b60200190565b9080601f8301121561037b57813561056581610536565b926105736040519485610500565b81845260208085019260051b82010192831161037b57602001905b82821061059b5750505090565b813581526020918201910161058e565b90602080835192838152019201905f5b8181106105c85750505090565b82516001600160a01b03168452602093840193909201916001016105bb565b90602080835192838152019201905f5b8181106106045750505090565b82518452602093840193909201916001016105f7565b909161063161063f936040845260408401906105ab565b9160208184039101526105e7565b90565b9061064c82610536565b6106596040519182610500565b828152809261066a601f1991610536565b0190602036910137565b604051907f4b2dd303f68b99d244b702089c802b6e9ea1b5d4ef61fd436d6c41abb1178c775480835282602081017f4b2dd303f68b99d244b702089c802b6e9ea1b5d4ef61fd436d6c41abb1178c775f5260205f20925f5b8181106106e35750506106e192500383610500565b565b84546001600160a01b03168352600194850194879450602090930192016106cc565b8051156107125760200190565b634e487b7160e01b5f52603260045260245ffd5b80518210156107125760209160051b010190565b90604051915f8154908160011c92600183169283156107fa575b6020851084146107e65784875286939081156107c45750600114610780575b506106e192500383610500565b90505f9291925260205f20905f915b8183106107a85750509060206106e1928201015f610773565b602091935080600191548385890101520191019091849261078f565b9050602092506106e194915060ff191682840152151560051b8201015f610773565b634e487b7160e01b5f52602260045260245ffd5b93607f1693610754565b919082039182116102b257565b5f1981146102b25760010190565b5f516020612c775f395f51905f52545f969592939060a81c60ff16600214610db657750200000000000000000000000000000000000000000060ff60a81b195f516020612c775f395f51905f525416175f516020612c775f395f51905f525560ff5f516020612c775f395f51905f525460a01c1615610d8e574211610d66576108a781610e33565b9097919588519181518303610d3e576108bf856117d5565b506001600160a01b035f516020612c775f395f51905f525416803b1561037b575f80916044604051809481937f2b471d8e0000000000000000000000000000000000000000000000000000000083528b60048401523360248401525af18015610d3357610d1e575b50610930610674565b8492855b8c8682106109f35750505050505050507f3998bcf315dae4953d294b3ca6e1d0074c249adc136b50d1ff99b04753c73e7f9060405190815260806020820152806109af6001600160a01b0361099d61098f608085018a6105ab565b84810360408601528b6105e7565b968388036060850152169533956105ab565b0390a3750100000000000000000000000000000000000000000060ff60a81b195f516020612c775f395f51905f525416175f516020612c775f395f51905f52559190565b816109fd91610726565b51610a088284610726565b5111610cf6578a878a8f610a1d858092610726565b5115159384610ccd575b50505050610a7e575b610a3a8585610726565b515f198101908111610a6a57811015610a56575b600101610934565b93610a62600191610811565b949050610a4e565b602488634e487b7160e01b81526011600452fd5b610a936001600160a01b036102058786610726565b60ff815460201c16151580610cb1575b610c895780548e919083908e908b908f9060ff1615610bb75750506008610ae4836001600160a01b03610adc610af196610aec96610726565b511696610726565b51930161073a565b611e13565b90610afb81611a76565b15610b09575b505050610a30565b610b24816020806001600160a01b0394518301019101611c1e565b1690813b15610bb35760646001600160a01b03938b8f9394819560405197889687957f8bfb07c9000000000000000000000000000000000000000000000000000000008752600487015216602485015260448401525af18015610ba857908891610b8f575b80610b01565b81610b9991610500565b610ba457865f610b89565b8680fd5b6040513d8a823e3d90fd5b8980fd5b9160209450926001600160a01b03610bd382610bdb9496610726565b511695610726565b51604051906001600160a01b03858301937fa9059cbb000000000000000000000000000000000000000000000000000000008552166024830152604482015260448152610c29606482610500565b519082855af115610c7e5787513d610c755750803b155b610c4a5750610a30565b7f5274afe7000000000000000000000000000000000000000000000000000000008852600452602487fd5b60011415610c40565b6040513d89823e3d90fd5b6004887f584a7938000000000000000000000000000000000000000000000000000000008152fd5b50610cc78b610cc26006840161073a565b611ab5565b15610aa3565b610cec9394506001600160a01b0391610ce591610726565b51166119cd565b12878a838e610a27565b6004877fa1aabbe1000000000000000000000000000000000000000000000000000000008152fd5b610d2b9194505f90610500565b5f925f610927565b6040513d5f823e3d90fd5b7f1df89e8b000000000000000000000000000000000000000000000000000000005f5260045ffd5b7fecdd1c29000000000000000000000000000000000000000000000000000000005f5260045ffd5b7f9e87fac8000000000000000000000000000000000000000000000000000000005f5260045ffd5b7f37ed32e8000000000000000000000000000000000000000000000000000000005f5260045ffd5b90670de0b6b3a7640000820291808304670de0b6b3a764000014901517156102b257565b818102929181159184041417156102b257565b8115610e1f570490565b634e487b7160e01b5f52601260045260245ffd5b905f91610e3e610674565b918251905f92610e4d83610642565b945f5b8481106114ea5750610e6a610e6486610642565b95610642565b935f91825b8284106112f55750505050610ebc5f516020612c975f395f51905f52546b033b2e3c9fd0803ce80000006001600160801b0382169160801c610eb2828285612260565b92091515906117c8565b95861590816112e557610ed488633b9aca0083612260565b82610e1f5788633b9aca00610eec93091515906117c8565b67ffffffffffffffff81116112ce5767ffffffffffffffff16955b938590938884116112a65760405194858660207f4b2dd303f68b99d244b702089c802b6e9ea1b5d4ef61fd436d6c41abb1178c795492838152017f4b2dd303f68b99d244b702089c802b6e9ea1b5d4ef61fd436d6c41abb1178c795f5260205f20925f905b80600383011061126357610fa294549181811061124f575b818110611238575b818110611221575b10611210575b500387610500565b5f9267ffffffffffffffff8a1697633b9aca0089109a8b6110a4575b50929915925f5b8a51811015611095578a81861561104357610fe390610fea92610726565b5189610e02565b9089515f1981019081116102b25761103c8f6110368f93918f8f9061102a60019967ffffffffffffffff6110228b9861103096610726565b511690610e02565b92610e02565b90610e15565b92610726565b5201610fc5565b61105361105a9161106b93610726565b518a610e02565b67ffffffffffffffff881690610e02565b908d633b9aca008102908104633b9aca00148917156102b25761103c826110368f93600196610e15565b50985098965098505050505050565b6040517f4b2dd303f68b99d244b702089c802b6e9ea1b5d4ef61fd436d6c41abb1178c7880548083525f918252939750928a929060208301907fcc472d1522277c093c80208a319541556b1f96243621e0d69d76c670d24184205b8160038801106111b7579161114196859261113c94549181811061119c575b81811061117e575b818110611160575b10611152575b500383610500565b611c5f565b67ffffffffffffffff16935f610fbe565b60c01c81526020015f611134565b92602060019167ffffffffffffffff8560801c16815201930161112e565b92602060019167ffffffffffffffff8560401c168152019301611126565b92602060019167ffffffffffffffff8516815201930161111e565b93959294509060016080600492865467ffffffffffffffff8116825267ffffffffffffffff8160401c16602083015267ffffffffffffffff81841c16604083015260c01c606082015201940192019492908c94926110ff565b60c01d60070b81526020015f610f9a565b9260206001918460801c60070b8152019301610f94565b9260206001918460401c60070b8152019301610f8c565b9260206001918460070b8152019301610f84565b916004919350608060019186548060070b82528060401c60070b602083015280831c60070b604083015260c01d60070b6060820152019401920189929391610f6c565b7fa2b06574000000000000000000000000000000000000000000000000000000005f5260045ffd5b6306dfcc6560e41b5f52604060045260245260445ffd5b5067ffffffffffffffff95610f07565b9091929861130e6001600160a01b036102058c86610726565b805490928b60ff8316156113fc5750600784016113356113306008870161073a565b611e5a565b92908051925f908054915b8581106113a5575050505061139b9361138e6001969460ff61138361137e6005611376670de0b6b3a764000099611394996117c8565b9c5b0161073a565b611f70565b9360181c1690612137565b90610e02565b04906117c8565b9901929190610e6f565b82811015610712578f908f91600192845f526113db6001600160a01b038460205f20015416916113d5858b6117c8565b90610726565b526113f56113e98388610726565b51916113d5848a6117c8565b5201611340565b9360206001600160a01b0361141660249596949789610726565b5116604051948580927f70a082310000000000000000000000000000000000000000000000000000000082523060048301525afa8015610d33578d935f916114b6575b5080936114669088610726565b516001600160a01b031661147a878d610726565b5261148486610811565b9561148f908d610726565b5261139460019461138e61139b9560ff61138361137e6005670de0b6b3a764000098611378565b9350506020833d82116114e2575b816114d160209383610500565b8101031261037b578c92515f611459565b3d91506114c4565b9460019060ff6115076001600160a01b036102058a879a97610726565b541661152d5761151690610811565b955b86611523828a610726565b5201939093610e50565b6115509060076115486001600160a01b036102058b8b610726565b0154906117c8565b95611518565b6001600160a01b037fc8fcad8db84d3cc18b4c41d551ea0ee66dd599cde068d998e57d5e09332c131d5416918060041161037b575f5f905f80604051956001600160a01b0360208801917fb700961300000000000000000000000000000000000000000000000000000000835216968760248201523060448201527fffffffff00000000000000000000000000000000000000000000000000000000833516606482015260648152611609608482610500565b5190885afa3d156117c0573d9061161f82611a14565b9161162d6040519384610500565b82523d5f602084013e5b61174d575b501561164c575b50505050600190565b63ffffffff16156117465776010000000000000000000000000000000000000000000060ff60b01b195f516020612c775f395f51905f525416175f516020612c775f395f51905f5255823b1561037b576064925f92836040519586809581947f94c7d7ee0000000000000000000000000000000000000000000000000000000083526004830152604060248301528060448301528084848401378181018301849052601f01601f191681010301925af18015610d3357611736575b5060ff60b01b195f516020612c775f395f51905f5254165f516020612c775f395f51905f52555f808080611643565b5f61174091610500565b5f611707565b5050505f90565b80519092909160408310611789575050816040918101031261037b57611781604061177a60208401611aa8565b9201611dd1565b905b5f61163c565b91602081949294101561179e575b5050611783565b819250906020918101031261037b5760206117b99101611aa8565b5f80611797565b606090611637565b919082018092116102b257565b5f516020612c975f395f51905f52546b033b2e3c9fd0803ce80000008202918083046b033b2e3c9fd0803ce800000014901517156102b25761182461182d926001600160801b03831690610e15565b9060801c610804565b90670de0b6b3a764000082118015906119b4575b6118bb575b61184f82611de2565b6001600160801b036fffffffffffffffffffffffffffffffff195f516020612c975f395f51905f52549260801b169116175f516020612c975f395f51905f52557fb4fde7403c001c7cdeafc0c3bb46e972111b7efac4e832398cbf9fabe1694ed96020604051848152a1565b6118c3610674565b9182515f915f5b828110611925575050506001600160801b03919250166fffffffffffffffffffffffffffffffff195f516020612c975f395f51905f525416175f516020612c975f395f51905f52556b033b2e3c9fd0803ce800000090611846565b61194e6b033b2e3c9fd0803ce80000006102468461023d6001600160a01b03610205878d610726565b936001600160801b03808616911601906001600160801b0382116102b257600191946119856001600160a01b03610205848b610726565b9064ffffffffff74ffffffffffffffffffffffffffffffff000000000083549260281b169116179055016118ca565b506ec097ce7bc90715b34b9f1000000000821015611841565b8151915f5b8381106119e257505050505f1990565b6001600160a01b036119f48284610726565b51166001600160a01b03841614611a0d576001016119d2565b9250505090565b67ffffffffffffffff811161052257601f01601f191660200190565b81601f8201121561037b57805190611a4782611a14565b92611a556040519485610500565b8284526020838301011161037b57815f9260208093018386015e8301015290565b60011115611a8057565b634e487b7160e01b5f52602160045260245ffd5b51906001600160a01b038216820361037b57565b5190811515820361037b57565b8051810160408282031261037b57602082015191600183101561037b5760408101519167ffffffffffffffff831161037b57611af8926020809201920101611a30565b90611b0281611a76565b805f527f4b2dd303f68b99d244b702089c802b6e9ea1b5d4ef61fd436d6c41abb1178c7d6020526001600160a01b0360405f20931692835f5260205260405f2054611c16578151611b54575050505f90565b611b5d81611a76565b15611b69575b80611746565b60208180518101031261037b57611b8a60206001600160a01b039201611a94565b16908115611b63575f91604460209260405194859384927f65e4ad9e00000000000000000000000000000000000000000000000000000000845230600485015260248401525af1908115610d33575f91611be2575090565b90506020813d602011611c0e575b81611bfd60209383610500565b8101031261037b5761063f90611aa8565b3d9150611bf0565b505050600190565b9081602091031261037b57516001600160a01b038116810361037b5790565b9067ffffffffffffffff8091169116039067ffffffffffffffff82116102b257565b9190611c6b83826121a0565b801580611dab575b15611c8b575050611c849150610705565b5160070b90565b909182515f1981019081116102b2578214611d9357611caa8282610726565b5160070b9360018301918284116102b257611cd384611cc98584610726565b5160070b92610726565b5160070b900390677fffffffffffffff198212677fffffffffffffff8313176102b257611d1667ffffffffffffffff9182611d0e8789610726565b511690611c3d565b1660070b9060070b02928360070b9384036102b25767ffffffffffffffff611d0e819482611d47611d4f9686610726565b511693610726565b1660070b908115610e1f57677fffffffffffffff1981145f198314166102b2570560070b01677fffffffffffffff8113677fffffffffffffff198212176102b25790565b925050515f1981019081116102b257611c8491610726565b5067ffffffffffffffff611dbe83610705565b511667ffffffffffffffff851610611c73565b519063ffffffff8216820361037b57565b6001600160801b038111611dfc576001600160801b031690565b6306dfcc6560e41b5f52608060045260245260445ffd5b8051810160408282031261037b57602082015191600183101561037b5760408101519167ffffffffffffffff831161037b57611e56926020809201920101611a30565b9091565b606091611e675f92611e13565b90611e7181611a76565b15611e795750565b600493505f919250611e9c816020806001600160a01b0394518301019101611c1e565b16604051938480927f01e1d1140000000000000000000000000000000000000000000000000000000082525afa918215610d33575f905f93611edd57509190565b9250503d805f843e611eef8184610500565b82019160408184031261037b57805167ffffffffffffffff811161037b5781019280601f8501121561037b578351611f2681610536565b94611f346040519687610500565b81865260208087019260051b82010192831161037b57602001905b828210611f60575050506020015190565b8151815260209182019101611f4f565b8051810160a0826020830192031261037b57602082015190600a82101561037b576040830151600a81101561037b57606084015167ffffffffffffffff811161037b57826020611fc292870101611a30565b93608081015167ffffffffffffffff811161037b57836020611fe692840101611a30565b9260a08201519167ffffffffffffffff831161037b576120099201602001611a30565b50600183036120a85750505060208180518101031261037b57602001516001600160a01b03811680910361037b576020600491604051928380927f6256f2c50000000000000000000000000000000000000000000000000000000082525afa908115610d33575f91612079575090565b90506020813d6020116120a0575b8161209460209383610500565b8101031261037b575190565b3d9150612087565b6120be9293916120b791612365565b8093612797565b906120c881610dde565b670de0b6b3a7640000830290838204670de0b6b3a764000014841517156102b25781119081612100575b506120fb575090565b905090565b905061210b82610dde565b115f6120f2565b9060ff8091169116039060ff82116102b257565b60ff16604d81116102b257600a0a90565b9060ff8116601281111561215d575090611030612158601261063f94612112565b612126565b60121115612177579061138e61215861063f936012612112565b5090565b9067ffffffffffffffff8091169116029067ffffffffffffffff82169182036102b257565b8051918215611746576001925f1981018181116102b25767ffffffffffffffff92836121d887826121d1868a610726565b511661217b565b91169384911611801590612259575b61225157505b808410612205575050505f1981019081116102b25790565b61221681851860011c8286166117c8565b908267ffffffffffffffff6122316001826121d1878a610726565b16111561223e57506121ed565b9350600181018091116102b257926121ed565b935050505090565b505f6121e7565b91818302915f19818509938380861095039480860395146122f057848311156122d85790829109815f0382168092046002816003021880820260020302808202600203028082026002030280820260020302808202600203028091026002030293600183805f03040190848311900302920304170290565b82634e487b715f52156003026011186020526024601cfd5b50509061063f9250610e15565b9080601f8301121561037b5781519061231582610536565b926123236040519485610500565b82845260208085019360051b82010191821161037b57602001915b81831061234b5750505090565b825160ff8116810361037b5781526020928301920161233e565b600a811015611a805780612571575090815182019160a0816020850194031261037b57602081015167ffffffffffffffff811161037b5781019280603f8501121561037b5760208401516123b881610536565b946123c66040519687610500565b8186526020808088019360051b830101019083821161037b57604001915b81831061255157505050604082015167ffffffffffffffff811161037b57820181603f8201121561037b5760208101519061241e82610536565b9161242c6040519384610500565b8083526020808085019260051b840101019184831161037b57604001905b82821061253957505050606083015167ffffffffffffffff811161037b57826020612477928601016122fd565b91608084015167ffffffffffffffff811161037b5760a091602061249d928701016122fd565b930151600281101561037b57670de0b6b3a76400006124c0919694929596612b06565b938351915f935b8385106124d75750505050505090565b9091929394969561252c6001916001600160a01b036124f6898c610726565b511660ff6125048a87610726565b511660ff6125128b89610726565b51169163ffffffff6125248c8b610726565b511693612b45565b96979501939291906124c7565b6020809161254684611dd1565b81520191019061244a565b82516001600160a01b038116810361037b578152602092830192016123e4565b60038103612587575050670de0b6b3a764000090565b6002810361259d575050670de0b6b3a764000090565b600481036125f0575050604051630f451f7160e31b8152670de0b6b3a7640000600482015260208160248173ae7ab96520de3a18e5e111b5eaab095312d7fe845afa908115610d33575f91612079575090565b60058103612635575050604051633ba0b9a960e01b815260208160048173be9895146f7af43049ca1c1ae358b0541ea497045afa908115610d33575f91612079575090565b6006810361267a5750506040516339aa885b60e21b815260208160048173ae78736cd615f374d3085123a210448e74fc63935afa908115610d33575f91612079575090565b600781036126bf575050604051634ca9858360e11b815260208160048173ac3e018457b222d93114458476f3e3416abbe38f5afa908115610d33575f91612079575090565b600881036126e057506020815191818082019384920101031261037b575190565b60090361278a5760408180518101031261037b57806020604061270c826001600160a01b039501611a94565b920151916004604051809581937fa035b1fe000000000000000000000000000000000000000000000000000000008352165afa8015610d33575f90612756575b61063f9250610e15565b506020823d602011612782575b8161277060209383610500565b8101031261037b5761063f915161274c565b3d9150612763565b50670de0b6b3a764000090565b92919092600a811015611a80578061296857508051810160a0826020830192031261037b57602082015167ffffffffffffffff811161037b5782019381603f8601121561037b5760208501516127ec81610536565b956127fa6040519788610500565b8187526020808089019360051b830101019084821161037b57604001915b81831061294857505050604083015167ffffffffffffffff811161037b5783019082603f8301121561037b5760208201519161285383610536565b926128616040519485610500565b8084526020808086019260051b840101019185831161037b57604001905b82821061293057505050606084015167ffffffffffffffff811161037b578360206128ac928701016122fd565b92608085015167ffffffffffffffff811161037b5760a09160206128d2928801016122fd565b94015190600282101561037b576128ed919694929596612b06565b938351915f935b8385106129045750505050505090565b909192939496956129236001916001600160a01b036124f6898c610726565b96979501939291906128f4565b6020809161293d84611dd1565b81520191019061287f565b82516001600160a01b038116810361037b57815260209283019201612818565b919290916003810361298357505050670de0b6b3a764000090565b600281036129915750905090565b600481036129e557505050604051630f451f7160e31b8152670de0b6b3a7640000600482015260208160248173ae7ab96520de3a18e5e111b5eaab095312d7fe845afa908115610d33575f91612079575090565b60058103612a2b57505050604051633ba0b9a960e01b815260208160048173be9895146f7af43049ca1c1ae358b0541ea497045afa908115610d33575f91612079575090565b60068103612a71575050506040516339aa885b60e21b815260208160048173ae78736cd615f374d3085123a210448e74fc63935afa908115610d33575f91612079575090565b60078103612ab757505050604051634ca9858360e11b815260208160048173ac3e018457b222d93114458476f3e3416abbe38f5afa908115610d33575f91612079575090565b60088103612ad95750506020815191818082019384920101031261037b575190565b6009036120fb575060408180518101031261037b57806020604061270c826001600160a01b039501611a94565b6002811015611a805761063f5750670de0b6b3a764000090565b519069ffffffffffffffffffff8216820361037b57565b604d81116102b257600a0a90565b91909360a06001600160a01b0394956004604051809781937ffeaf968c000000000000000000000000000000000000000000000000000000008352165afa908115610d33575f945f92612c20575b505f851391821592612c04575b5050612bdc5760ff16600103612bc757612bc161063f939261103092610e02565b91612b37565b612bd79061138e61063f94612b37565b610e15565b7fae193563000000000000000000000000000000000000000000000000000000005f5260045ffd5b63ffffffff919250612c169042610804565b9116105f80612ba0565b9450905060a0843d60a011612c6e575b81612c3d60a09383610500565b8101031261037b57612c4e84612b20565b506020840151612c65608060608701519601612b20565b5093905f612b93565b3d9150612c3056fe4b2dd303f68b99d244b702089c802b6e9ea1b5d4ef61fd436d6c41abb1178c754b2dd303f68b99d244b702089c802b6e9ea1b5d4ef61fd436d6c41abb1178c76a2646970667358221220b1f47cc17d35d3146dcb17c16e275c76aba3713fe28c070c0eb7a4bb5870c54164736f6c634300081c0033",
  "devdoc": {
    "author": "Cooper Labs",
    "custom:contact": "security@cooperlabs.xyz",
    "details": "This contract is an authorized fork of Angle's `Redeemer` contract https://github.com/AngleProtocol/angle-transmuter/blob/main/contracts/parallelizer/facets/Redeemer.sol",
    "errors": {
      "SafeCastOverflowedUintDowncast(uint8,uint256)": [
        {
          "details": "Value doesn't fit in an uint of `bits` size."
        }
      ],
      "SafeERC20FailedOperation(address)": [
        {
          "details": "An operation with an ERC-20 token failed."
        }
      ]
    },
    "kind": "dev",
    "methods": {
      "quoteRedemptionCurve(uint256)": {
        "returns": {
          "amounts": "Amount that would be obtained for each token in the `tokens` array",
          "tokens": "List of tokens that would be given"
        }
      },
      "redeem(uint256,address,uint256,uint256[])": {
        "details": "The `minAmountOuts` list must reflect the amount of `tokens` returnedIn normal conditions, the amount of tokens outputted by this function should be the amount of collateral assets supported by the system, following their order in the `collateralList`.If one collateral has its liquidity managed through strategies, then it's possible that this asset has sub-collaterals with it. In this situation, these sub-collaterals may be sent during the redemption process and the `minAmountOuts` will be bigger than the `collateralList` length. If there are 3 collateral assets and the 2nd collateral asset in the list (at index 1) consists of 3 sub-collaterals, then the ordering of the token list will be as follows: `[collat 1, sub-collat 1 of collat 2, sub-collat 2 of collat 2, sub-collat 3 of collat 2, collat 3]`The list of tokens outputted (and hence the minimum length of the `minAmountOuts` list) can be obtained by calling the `quoteRedemptionCurve` functionTokens requiring a whitelist must be forfeited if the redemption is to an address that is not in the whitelist, otherwise this function revertsNo approval is needed before calling this function",
        "params": {
          "deadline": "Timestamp before which the redemption should have occured",
          "minAmountOuts": "Minimum amount of each token given back in the redemption to obtain",
          "receiver": "Address which should be receiving the output tokens"
        },
        "returns": {
          "amounts": "Amount given for each token in the `tokens` array",
          "tokens": "List of tokens returned"
        }
      },
      "redeemWithForfeit(uint256,address,uint256,uint256[],address[])": {
        "details": "Beware that if a token is given in the `forfeitTokens` list, the redemption will not try to send token even if it has enough immediately available to send the amount"
      },
      "updateNormalizer(uint256,bool)": {
        "details": "This function may be called by trusted addresses: these could be for instance savings contract minting stablecoins when they notice a profit"
      }
    },
    "title": "Redeemer",
    "version": 1
  },
  "userdoc": {
    "kind": "user",
    "methods": {
      "quoteRedemptionCurve(uint256)": {
        "notice": "Simulate the exact output that a redemption of `amount` of stablecoins would give at a given block"
      },
      "redeem(uint256,address,uint256,uint256[])": {
        "notice": "Redeems `amount` of stablecoins from the system"
      },
      "redeemWithForfeit(uint256,address,uint256,uint256[],address[])": {
        "notice": "Same as the redeem function above with the additional feature to specify a list of `forfeitTokens` for which the Parallelizer system will not try to do a transfer to `receiver`."
      },
      "updateNormalizer(uint256,bool)": {
        "notice": "Updates the normalizer variable by `amount`"
      }
    },
    "version": 1
  },
  "storageLayout": {
    "storage": [],
    "types": null
  }
}