{
  "address": "0x2c85d2e8ecfabc0710ce87ca2c5278ae26733a85",
  "abi": [
    {
      "inputs": [],
      "name": "InvalidSwap",
      "type": "error"
    },
    {
      "inputs": [],
      "name": "NotTrusted",
      "type": "error"
    },
    {
      "inputs": [],
      "name": "OdosSwapFailed",
      "type": "error"
    },
    {
      "inputs": [],
      "name": "ReentrantCall",
      "type": "error"
    },
    {
      "inputs": [
        {
          "internalType": "address",
          "name": "token",
          "type": "address"
        }
      ],
      "name": "SafeERC20FailedOperation",
      "type": "error"
    },
    {
      "inputs": [],
      "name": "TooSmallAmountOut",
      "type": "error"
    },
    {
      "anonymous": false,
      "inputs": [
        {
          "indexed": true,
          "internalType": "address",
          "name": "tokenObtained",
          "type": "address"
        },
        {
          "indexed": false,
          "internalType": "uint256",
          "name": "balanceUpdate",
          "type": "uint256"
        }
      ],
      "name": "RewardsSoldFor",
      "type": "event"
    },
    {
      "inputs": [
        {
          "internalType": "uint256",
          "name": "minAmountOut",
          "type": "uint256"
        },
        {
          "internalType": "bytes",
          "name": "payload",
          "type": "bytes"
        }
      ],
      "name": "sellRewards",
      "outputs": [
        {
          "internalType": "uint256",
          "name": "amountOut",
          "type": "uint256"
        }
      ],
      "stateMutability": "nonpayable",
      "type": "function"
    }
  ],
  "contractName": "RewardHandler",
  "sourceName": "contracts/parallelizer/facets/RewardHandler.sol",
  "bytecode": "0x60808060405234601557610bf8908161001a8239f35b5f80fdfe60806040526004361015610011575f80fd5b5f3560e01c6305b4193414610024575f80fd5b346104475760403660031901126104475760243567ffffffffffffffff81116104475736602382011215610447578060040135610060816107a0565b9061006e604051928361076a565b8082526020820192366024838301011161044757815f92602460209301863783010152600260ff7f4b2dd303f68b99d244b702089c802b6e9ea1b5d4ef61fd436d6c41abb1178c755460a81c161461074257750200000000000000000000000000000000000000000060ff60a81b197f4b2dd303f68b99d244b702089c802b6e9ea1b5d4ef61fd436d6c41abb1178c755416177f4b2dd303f68b99d244b702089c802b6e9ea1b5d4ef61fd436d6c41abb1178c755561012d36336108c8565b158061070f575b6106e75760405190818260207f4b2dd303f68b99d244b702089c802b6e9ea1b5d4ef61fd436d6c41abb1178c775492838152017f4b2dd303f68b99d244b702089c802b6e9ea1b5d4ef61fd436d6c41abb1178c775f5260205f20925f5b8181106106c55750506101a69250038361076a565b8151926101b2846107bc565b916101c0604051938461076a565b848352601f196101cf866107bc565b013660208501375f5b85811061063f57505f91829151908273cf5540fffcdc3d510b18bfca6d2b9987b07725595af13d15610637573d9061020f826107a0565b9161021d604051938461076a565b82523d5f602084013e5b15610602576020815191818082019384920101031261044757519260043584106105da575f915f935f5b8381106104a2575050505015610493576001600160a01b0316805f527f4b2dd303f68b99d244b702089c802b6e9ea1b5d4ef61fd436d6c41abb1178c7a60205260405f2060ff81541661030d575b602083750100000000000000000000000000000000000000000060ff60a81b197f4b2dd303f68b99d244b702089c802b6e9ea1b5d4ef61fd436d6c41abb1178c755416177f4b2dd303f68b99d244b702089c802b6e9ea1b5d4ef61fd436d6c41abb1178c7555604051908152f35b6008019060205f610325610320856107fc565b610afb565b6040516001600160a01b03848201927fa9059cbb0000000000000000000000000000000000000000000000000000000084521660248201528660448201526044815261037260648261076a565b519082855af11561043c575f513d61048a5750803b155b61045f575061039a61039f916107fc565b610b40565b90600181101561044b57156103b5575b8061029f565b6020818051810103126104475760200151906001600160a01b03821680920361044757813b15610447575f80926024604051809581937f2afcf4800000000000000000000000000000000000000000000000000000000083528660048401525af191821561043c5760209261042c575b50906103af565b5f6104369161076a565b5f610425565b6040513d5f823e3d90fd5b5f80fd5b634e487b7160e01b5f52602160045260245ffd5b7f5274afe7000000000000000000000000000000000000000000000000000000005f5260045260245ffd5b60011415610389565b631115766760e01b5f5260045ffd5b602460206001600160a01b036104b884866107d4565b5116604051928380926370a0823160e01b82523060048301525afa90811561043c575f916105a9575b506104ec82856107d4565b5181101561050357631115766760e01b5f5260045ffd5b61050d82856107d4565b51811161051e575b50600101610251565b945094506001936001600160a01b0361053787846107d4565b5116956001600160a01b0361054c82856107d4565b511661055882866107d4565b518303928311610595577fbe1da12e92b73d3ecd35edcc32270e8ffaa4ee9fe30f671989b3d2e88a2c2ea26020600194604051908152a290610515565b634e487b7160e01b5f52601160045260245ffd5b90506020813d82116105d2575b816105c36020938361076a565b8101031261044757515f6104e1565b3d91506105b6565b7fa1aabbe1000000000000000000000000000000000000000000000000000000005f5260045ffd5b80519081610632577f45d4013e000000000000000000000000000000000000000000000000000000005f5260045ffd5b602001fd5b606090610227565b8060206001600160a01b03610656602494896107d4565b5116604051938480926370a0823160e01b82523060048301525afa801561043c575f90610693575b6001925061068c82876107d4565b52016101d8565b506020823d82116106bd575b816106ac6020938361076a565b81010312610447576001915161067e565b3d915061069f565b84546001600160a01b0316835260019485019487945060209093019201610191565b7fc22a648e000000000000000000000000000000000000000000000000000000005f5260045ffd5b50335f527f4b2dd303f68b99d244b702089c802b6e9ea1b5d4ef61fd436d6c41abb1178c7c60205260405f205415610134565b7f37ed32e8000000000000000000000000000000000000000000000000000000005f5260045ffd5b90601f8019910116810190811067ffffffffffffffff82111761078c57604052565b634e487b7160e01b5f52604160045260245ffd5b67ffffffffffffffff811161078c57601f01601f191660200190565b67ffffffffffffffff811161078c5760051b60200190565b80518210156107e85760209160051b010190565b634e487b7160e01b5f52603260045260245ffd5b90604051915f8154908160011c92600183169283156108be575b6020851084146108aa5784875286939081156108885750600114610844575b506108429250038361076a565b565b90505f9291925260205f20905f915b81831061086c575050906020610842928201015f610835565b6020919350806001915483858901015201910190918492610853565b90506020925061084294915060ff191682840152151560051b8201015f610835565b634e487b7160e01b5f52602260045260245ffd5b93607f1693610816565b6001600160a01b037fc8fcad8db84d3cc18b4c41d551ea0ee66dd599cde068d998e57d5e09332c131d54169180600411610447575f5f9060405f8151956001600160a01b0360208801917fb700961300000000000000000000000000000000000000000000000000000000835216968760248201523060448201527fffffffff0000000000000000000000000000000000000000000000000000000083351660648201526064815261097b60848261076a565b828052826020525190885afa610ae8575b1561099b575b50505050600190565b63ffffffff1615610ae15776010000000000000000000000000000000000000000000060ff60b01b197f4b2dd303f68b99d244b702089c802b6e9ea1b5d4ef61fd436d6c41abb1178c755416177f4b2dd303f68b99d244b702089c802b6e9ea1b5d4ef61fd436d6c41abb1178c7555823b15610447576064925f92836040519586809581947f94c7d7ee0000000000000000000000000000000000000000000000000000000083526004830152604060248301528060448301528084848401378181018301849052601f01601f191681010301925af1801561043c57610ad1575b5060ff60b01b197f4b2dd303f68b99d244b702089c802b6e9ea1b5d4ef61fd436d6c41abb1178c7554167f4b2dd303f68b99d244b702089c802b6e9ea1b5d4ef61fd436d6c41abb1178c75555f808080610992565b5f610adb9161076a565b5f610a7c565b5050505f90565b50505f516020518060201c15029061098c565b610b0490610b40565b309291600181101561044b5715610b185750565b90915060208180518101031261044757602001516001600160a01b0381168091036104475790565b80518101604082602083019203126104475760208201519160018310156104475760408101519067ffffffffffffffff8211610447570181603f8201121561044757602081015190610b91826107a0565b92610b9f604051948561076a565b8284526040828401011161044757815f926040602093018386015e83010152909156fea26469706673582212206cc58ba842cda2ead842e9ea11e6a28efa75f095fa563a0c2d4fe313c30ffa9064736f6c634300081c0033",
  "linkReferences": {},
  "deployedLinkReferences": {},
  "immutableReferences": {},
  "inputSourceName": "project/contracts/parallelizer/facets/RewardHandler.sol",
  "devdoc": {
    "author": "Cooper Labs",
    "custom:contact": "security@cooperlabs.xyz",
    "details": "This contract is an authorized fork of Angle's `RewardHandler` contract https://github.com/AngleProtocol/angle-transmuter/blob/main/contracts/parallelizer/facets/RewardHandler.sol",
    "errors": {
      "SafeERC20FailedOperation(address)": [
        {
          "details": "An operation with an ERC-20 token failed."
        }
      ]
    },
    "kind": "dev",
    "methods": {
      "sellRewards(uint256,bytes)": {
        "details": "It is impossible to sell a token that is a collateral through this functionTrusted sellers and governance only may call this functionOnly governance can set which tokens can be swapped through this function by passing a prior approval transaction to Odos router for the token to be swapped"
      }
    },
    "title": "RewardHandler",
    "version": 1
  },
  "evm": {
    "gasEstimates": {
      "creation": {
        "codeDepositCost": "612800",
        "executionCost": "652",
        "totalCost": "613452"
      },
      "external": {
        "sellRewards(uint256,bytes)": "infinite"
      },
      "internal": {
        "_revertBytes(bytes memory)": "infinite"
      }
    }
  },
  "storageLayout": {
    "storage": [],
    "types": null
  },
  "userdoc": {
    "kind": "user",
    "methods": {
      "sellRewards(uint256,bytes)": {
        "notice": "IRewardHandler"
      }
    },
    "version": 1
  },
  "argsData": "0x",
  "transaction": {
    "hash": "0xb343dc044e467c418ab3aefaff65f57dd666f2e53639404b2355632374f888a6",
    "nonce": "0xb3",
    "origin": "0x66ccec236bbce5f1bbd1b2fc0a4014e57a55ad02"
  }
}