{
  "address": "0xb22f5edbc62adcc093307025b8fdf75a0aa00e24",
  "abi": [
    {
      "inputs": [
        {
          "internalType": "address",
          "name": "caller",
          "type": "address"
        }
      ],
      "name": "AccessManagedUnauthorized",
      "type": "error"
    },
    {
      "inputs": [],
      "name": "InvalidChainlinkRate",
      "type": "error"
    },
    {
      "inputs": [],
      "name": "InvalidLengths",
      "type": "error"
    },
    {
      "inputs": [],
      "name": "ReentrantCall",
      "type": "error"
    },
    {
      "inputs": [
        {
          "internalType": "address",
          "name": "token",
          "type": "address"
        }
      ],
      "name": "SafeERC20FailedOperation",
      "type": "error"
    },
    {
      "inputs": [],
      "name": "ZeroAmount",
      "type": "error"
    },
    {
      "anonymous": false,
      "inputs": [
        {
          "indexed": false,
          "internalType": "uint256",
          "name": "income",
          "type": "uint256"
        },
        {
          "indexed": false,
          "internalType": "uint256",
          "name": "releasedAt",
          "type": "uint256"
        }
      ],
      "name": "IncomeReleased",
      "type": "event"
    },
    {
      "anonymous": false,
      "inputs": [
        {
          "indexed": false,
          "internalType": "uint256",
          "name": "income",
          "type": "uint256"
        },
        {
          "indexed": false,
          "internalType": "address",
          "name": "payee",
          "type": "address"
        },
        {
          "indexed": false,
          "internalType": "uint256",
          "name": "releasedAt",
          "type": "uint256"
        }
      ],
      "name": "IncomeReleasedToPayee",
      "type": "event"
    },
    {
      "anonymous": false,
      "inputs": [
        {
          "indexed": false,
          "internalType": "uint256",
          "name": "collateralSurplus",
          "type": "uint256"
        },
        {
          "indexed": false,
          "internalType": "uint256",
          "name": "stableSurplus",
          "type": "uint256"
        },
        {
          "indexed": false,
          "internalType": "uint256",
          "name": "issuedAmount",
          "type": "uint256"
        }
      ],
      "name": "SurplusProcessed",
      "type": "event"
    },
    {
      "inputs": [
        {
          "internalType": "address",
          "name": "collateral",
          "type": "address"
        }
      ],
      "name": "processSurplus",
      "outputs": [
        {
          "internalType": "uint256",
          "name": "collateralSurplus",
          "type": "uint256"
        },
        {
          "internalType": "uint256",
          "name": "stableSurplus",
          "type": "uint256"
        },
        {
          "internalType": "uint256",
          "name": "issuedAmount",
          "type": "uint256"
        }
      ],
      "stateMutability": "nonpayable",
      "type": "function"
    },
    {
      "inputs": [],
      "name": "release",
      "outputs": [
        {
          "internalType": "address[]",
          "name": "payees",
          "type": "address[]"
        },
        {
          "internalType": "uint256[]",
          "name": "amounts",
          "type": "uint256[]"
        }
      ],
      "stateMutability": "nonpayable",
      "type": "function"
    }
  ],
  "contractName": "Surplus",
  "sourceName": "contracts/parallelizer/facets/Surplus.sol",
  "bytecode": "0x60808060405234601557611ab5908161001a8239f35b5f80fdfe60806040526004361015610011575f80fd5b5f3560e01c80636dc5063214610630576386d1a69f1461002f575f80fd5b34610328575f36600319011261032857600260ff5f516020611a605f395f51905f525460a81c161461060857750200000000000000000000000000000000000000000060ff60a81b195f516020611a605f395f51905f525416175f516020611a605f395f51905f52556100a23633610a5d565b156105dc57602460206001600160a01b035f516020611a605f395f51905f525416604051928380926370a0823160e01b82523060048301525afa90811561031d575f916105aa575b508015610582577f4b2dd303f68b99d244b702089c802b6e9ea1b5d4ef61fd436d6c41abb1178c8154801561055a576040516020818381520180927f4b2dd303f68b99d244b702089c802b6e9ea1b5d4ef61fd436d6c41abb1178c815f5260205f20905f5b81811061053b5750505081610165910382610a27565b427f4b2dd303f68b99d244b702089c802b6e9ea1b5d4ef61fd436d6c41abb1178c7f558051905f6101ae61019884610c82565b936101a66040519586610a27565b808552610c82565b602084019190601f19013683375b8251811015610426576001600160a01b036101d78285610c9a565b511690815f527f4b2dd303f68b99d244b702089c802b6e9ea1b5d4ef61fd436d6c41abb1178c8260205261023260405f20547f4b2dd303f68b99d244b702089c802b6e9ea1b5d4ef61fd436d6c41abb1178c8054908961100e565b8261032c576001600160a01b035f516020611a605f395f51905f525416803b15610328575f80916044604051809481937f2b471d8e0000000000000000000000000000000000000000000000000000000083528760048401523060248401525af1801561031d576001947f17265974e980c0c028871fefa3438a14d11f8008db1fe6da5d98c45bf64a64c89260609261030d575b505b7f4b2dd303f68b99d244b702089c802b6e9ea1b5d4ef61fd436d6c41abb1178c7f546040519185835260208301526040820152a16103068287610c9a565b52016101bc565b5f61031791610a27565b5f6102c6565b6040513d5f823e3d90fd5b5f80fd5b90916001600160a01b035f516020611a605f395f51905f52541660205f604051828101907fa9059cbb0000000000000000000000000000000000000000000000000000000082526103a98161039b898960248401602090939291936001600160a01b0360408201951681520152565b03601f198101835282610a27565b519082855af11561031d575f513d61041d5750803b155b6103f25750907f17265974e980c0c028871fefa3438a14d11f8008db1fe6da5d98c45bf64a64c86060600194936102c8565b7f5274afe7000000000000000000000000000000000000000000000000000000005f5260045260245ffd5b600114156103c0565b50908291847f141751092cf7f1b8dd572383f04983a12e1767842801592e3f37663cc7945ad56040887f4b2dd303f68b99d244b702089c802b6e9ea1b5d4ef61fd436d6c41abb1178c7f5482519182526020820152a1750100000000000000000000000000000000000000000060ff60a81b195f516020611a605f395f51905f525416175f516020611a605f395f51905f5255604051938493604085019060408652518091526060850192905f5b818110610519575050506020908483038286015251918281520191905f5b818110610500575050500390f35b82518452859450602093840193909201916001016104f2565b82516001600160a01b03168552879650602094850194909201916001016104d4565b82546001600160a01b031684526020909301926001928301920161014f565b7f1df89e8b000000000000000000000000000000000000000000000000000000005f5260045ffd5b7f1f2a2005000000000000000000000000000000000000000000000000000000005f5260045ffd5b90506020813d6020116105d4575b816105c560209383610a27565b8101031261032857515f6100ea565b3d91506105b8565b7f068ca9d8000000000000000000000000000000000000000000000000000000005f523360045260245ffd5b7f37ed32e8000000000000000000000000000000000000000000000000000000005f5260045ffd5b34610328576020366003190112610328576004356001600160a01b0381168091036103285761065f3633610a5d565b156105dc57604051906370a0823160e01b8252306004830152602082602481845afa91821561031d575f926109f3575b50805f527f4b2dd303f68b99d244b702089c802b6e9ea1b5d4ef61fd436d6c41abb1178c7a60205260405f209160058301604051905f908054908160011c916001811680156109e9575b6020841081146109d5578386529081156109ae5750600114610971575b50508161070b61071793610710930382610a27565b610cdf565b9182610c44565b92549260ff8460181c1693846012019160ff831161095d576107469261073c91610f29565b9060281c90610c57565b92670de0b6b3a76400008402848104670de0b6b3a7640000148515171561095d576107799261077491610c64565b610f7c565b90811561058257805f527f4b2dd303f68b99d244b702089c802b6e9ea1b5d4ef61fd436d6c41abb1178c7e60205260405f2054633b9aca0003633b9aca00811161095d576107cc633b9aca009185610c44565b6040517f095ea7b30000000000000000000000000000000000000000000000000000000081523060048201526024810185905291900491906020816044815f865af1801561031d57610926575b506001600160a01b035f516020611a605f395f51905f52541690604051927f3b6a1fe00000000000000000000000000000000000000000000000000000000084528460048501526024840152604483015260648201523060848201524260a482015260208160c4815f305af1801561031d575f906108f2575b60408051848152602081018690529081018290526108ee92507f109764b4a6a7cbb759e2179207bcaff38bc125f4eaa472691ffa74a9366f9c1c90606090a1604051938493846040919493926060820195825260208201520152565b0390f35b506020813d60201161091e575b8161090c60209383610a27565b81010312610328576108ee9051610892565b3d91506108ff565b6020813d602011610955575b8161093f60209383610a27565b8101031261032857518015158114610819575f80fd5b3d9150610932565b634e487b7160e01b5f52601160045260245ffd5b5f908152602081209092505b81831061099457505081016020018161070b6106f6565b60018160209294939454838588010152019101919061097d565b60ff191660208087019190915292151560051b8501909201925083915061070b90506106f6565b634e487b7160e01b5f52602260045260245ffd5b92607f16926106d9565b9091506020813d602011610a1f575b81610a0f60209383610a27565b810103126103285751908261068f565b3d9150610a02565b90601f8019910116810190811067ffffffffffffffff821117610a4957604052565b634e487b7160e01b5f52604160045260245ffd5b6001600160a01b037fc8fcad8db84d3cc18b4c41d551ea0ee66dd599cde068d998e57d5e09332c131d54169180600411610328575f5f9060405f8151956001600160a01b0360208801917fb700961300000000000000000000000000000000000000000000000000000000835216968760248201523060448201527fffffffff00000000000000000000000000000000000000000000000000000000833516606482015260648152610b10608482610a27565b828052826020525190885afa610c31575b15610b30575b50505050600190565b63ffffffff1615610c2a5776010000000000000000000000000000000000000000000060ff60b01b195f516020611a605f395f51905f525416175f516020611a605f395f51905f5255823b15610328576064925f92836040519586809581947f94c7d7ee0000000000000000000000000000000000000000000000000000000083526004830152604060248301528060448301528084848401378181018301849052601f01601f191681010301925af1801561031d57610c1a575b5060ff60b01b195f516020611a605f395f51905f5254165f516020611a605f395f51905f52555f808080610b27565b5f610c2491610a27565b5f610beb565b5050505f90565b50505f516020518060201c150290610b21565b8181029291811591840414171561095d57565b9190820391821161095d57565b8115610c6e570490565b634e487b7160e01b5f52601260045260245ffd5b67ffffffffffffffff8111610a495760051b60200190565b8051821015610cae5760209160051b010190565b634e487b7160e01b5f52603260045260245ffd5b51906fffffffffffffffffffffffffffffffff8216820361032857565b908151820160a0836020830192031261032857602083015190600a82101561032857604084015193600a85101561032857606081015167ffffffffffffffff811161032857826020610d3392840101610fb8565b90608081015167ffffffffffffffff811161032857836020610d5792840101610fb8565b9260a08201519167ffffffffffffffff831161032857610d7a9201602001610fb8565b60018414610e695760408180518101031261032857610dcf926fffffffffffffffffffffffffffffffff82610dc06040610db96020610dc89701610cc2565b9201610cc2565b501696611114565b8093611546565b9280670de0b6b3a764000003670de0b6b3a7640000811161095d57610df49083610c44565b670de0b6b3a7640000850290858204670de0b6b3a7640000148615171561095d5781119182610e3b575b5050610e33575b828110610e2f5750565b9150565b915081610e25565b909150670de0b6b3a76400000180670de0b6b3a76400001161095d57610e619083610c44565b115f80610e1e565b508093945060209250809150518101031261032857602001516001600160a01b038116809103610328576020600491604051928380927f5ade93550000000000000000000000000000000000000000000000000000000082525afa90811561031d575f91610ed5575090565b90506020813d602011610efc575b81610ef060209383610a27565b81010312610328575190565b3d9150610ee3565b9060ff8091169116039060ff821161095d57565b60ff16604d811161095d57600a0a90565b9060ff81166012811115610f58575090610f4f610f4a6012610f5594610f04565b610f18565b90610c64565b90565b60121115610f785790610f72610f4a610f55936012610f04565b90610c44565b5090565b9060ff8116806012115f14610f9e575090610f4f610f4a610f55936012610f04565b60121015610f785790610f72610f4a6012610f5594610f04565b81601f820112156103285780519067ffffffffffffffff8211610a495760405192610fed601f8401601f191660200185610a27565b8284526020838301011161032857815f9260208093018386015e8301015290565b90915f19838309928083029283808610950394808603951461109f57848311156110875790829109815f0382168092046002816003021880820260020302808202600203028082026002030280820260020302808202600203028091026002030293600183805f03040190848311900302920304170290565b82634e487b715f52156003026011186020526024601cfd5b505090610f559250610c64565b9080601f83011215610328578151906110c482610c82565b926110d26040519485610a27565b82845260208085019360051b82010191821161032857602001915b8183106110fa5750505090565b825160ff81168103610328578152602092830192016110ed565b600a8110156115325780611324575090815182019160a0816020850194031261032857602081015167ffffffffffffffff81116103285781019280603f8501121561032857602084015161116781610c82565b946111756040519687610a27565b8186526020808088019360051b830101019083821161032857604001915b81831061130457505050604082015167ffffffffffffffff811161032857820181603f820112156103285760208101516111cc81610c82565b916111da6040519384610a27565b8183526020808085019360051b830101019084821161032857604001915b8183106112e757505050606083015167ffffffffffffffff811161032857826020611225928601016110ac565b91608084015167ffffffffffffffff81116103285760a091602061124b928701016110ac565b930151600281101561032857670de0b6b3a764000061126e9196949295966118ef565b938351915f935b8385106112855750505050505090565b909192939496956112da6001916001600160a01b036112a4898c610c9a565b511660ff6112b28a87610c9a565b511660ff6112c08b89610c9a565b51169163ffffffff6112d28c8b610c9a565b51169361192e565b9697950193929190611275565b825163ffffffff81168103610328578152602092830192016111f8565b82516001600160a01b038116810361032857815260209283019201611193565b6003810361133a575050670de0b6b3a764000090565b60028103611350575050670de0b6b3a764000090565b600481036113a3575050604051630f451f7160e31b8152670de0b6b3a7640000600482015260208160248173ae7ab96520de3a18e5e111b5eaab095312d7fe845afa90811561031d575f91610ed5575090565b600581036113e8575050604051633ba0b9a960e01b815260208160048173be9895146f7af43049ca1c1ae358b0541ea497045afa90811561031d575f91610ed5575090565b6006810361142d5750506040516339aa885b60e21b815260208160048173ae78736cd615f374d3085123a210448e74fc63935afa90811561031d575f91610ed5575090565b60078103611472575050604051634ca9858360e11b815260208160048173ac3e018457b222d93114458476f3e3416abbe38f5afa90811561031d575f91610ed5575090565b60088103611493575060208151918180820193849201010312610328575190565b600903611525576040818051810103126103285760208101516001600160a01b03811680910361032857602060406004930151916040519384809263501ad8ff60e11b82525afa801561031d575f906114f1575b610f559250610c64565b506020823d60201161151d575b8161150b60209383610a27565b8101031261032857610f5591516114e7565b3d91506114fe565b50670de0b6b3a764000090565b634e487b7160e01b5f52602160045260245ffd5b92919092600a811015611532578061171b57508051810160a0826020830192031261032857602082015167ffffffffffffffff81116103285782019381603f8601121561032857602085015161159b81610c82565b956115a96040519788610a27565b8187526020808089019360051b830101019084821161032857604001915b8183106116fb57505050604083015167ffffffffffffffff81116103285783019082603f8301121561032857602082015161160181610c82565b9261160f6040519485610a27565b8184526020808086019360051b830101019085821161032857604001915b8183106116de57505050606084015167ffffffffffffffff81116103285783602061165a928701016110ac565b92608085015167ffffffffffffffff81116103285760a0916020611680928801016110ac565b9401519060028210156103285761169b9196949295966118ef565b938351915f935b8385106116b25750505050505090565b909192939496956116d16001916001600160a01b036112a4898c610c9a565b96979501939291906116a2565b825163ffffffff811681036103285781526020928301920161162d565b82516001600160a01b0381168103610328578152602092830192016115c7565b919290916003810361173657505050670de0b6b3a764000090565b600281036117445750905090565b6004810361179857505050604051630f451f7160e31b8152670de0b6b3a7640000600482015260208160248173ae7ab96520de3a18e5e111b5eaab095312d7fe845afa90811561031d575f91610ed5575090565b600581036117de57505050604051633ba0b9a960e01b815260208160048173be9895146f7af43049ca1c1ae358b0541ea497045afa90811561031d575f91610ed5575090565b60068103611824575050506040516339aa885b60e21b815260208160048173ae78736cd615f374d3085123a210448e74fc63935afa90811561031d575f91610ed5575090565b6007810361186a57505050604051634ca9858360e11b815260208160048173ac3e018457b222d93114458476f3e3416abbe38f5afa90811561031d575f91610ed5575090565b6008810361188c57505060208151918180820193849201010312610328575190565b6009036118ea57506040818051810103126103285760208101516001600160a01b03811680910361032857602060406004930151916040519384809263501ad8ff60e11b82525afa801561031d575f906114f157610f559250610c64565b905090565b600281101561153257610f555750670de0b6b3a764000090565b519069ffffffffffffffffffff8216820361032857565b604d811161095d57600a0a90565b91909360a06001600160a01b0394956004604051809781937ffeaf968c000000000000000000000000000000000000000000000000000000008352165afa90811561031d575f945f92611a09575b505f8513918215926119ed575b50506119c55760ff166001036119b0576119aa610f559392610f4f92610c44565b91611920565b6119c090610f72610f5594611920565b610c64565b7fae193563000000000000000000000000000000000000000000000000000000005f5260045ffd5b63ffffffff9192506119ff9042610c57565b9116105f80611989565b9450905060a0843d60a011611a57575b81611a2660a09383610a27565b8101031261032857611a3784611909565b506020840151611a4e608060608701519601611909565b5093905f61197c565b3d9150611a1956fe4b2dd303f68b99d244b702089c802b6e9ea1b5d4ef61fd436d6c41abb1178c75a26469706673582212206a91bf3b2fff98fe51107e20b96f7e90fd3a225d7ba5240e7b6d0adaaf7225b564736f6c634300081c0033",
  "linkReferences": {},
  "deployedLinkReferences": {},
  "immutableReferences": {},
  "inputSourceName": "project/contracts/parallelizer/facets/Surplus.sol",
  "devdoc": {
    "author": "Cooper Labs",
    "custom:contact": "security@cooperlabs.xyz",
    "errors": {
      "SafeERC20FailedOperation(address)": [
        {
          "details": "An operation with an ERC-20 token failed."
        }
      ]
    },
    "kind": "dev",
    "methods": {
      "processSurplus(address)": {
        "details": "This function will swap the surplus of a collateral for the stable asset link to the protocol.",
        "params": {
          "collateral": "The collateral address to process the surplus of."
        },
        "returns": {
          "collateralSurplus": "The surplus of the collateral.",
          "issuedAmount": "The amount of newly issued stablecoins from the collateral swapped",
          "stableSurplus": "The surplus amount in stable calculated from the collateral surplus."
        }
      },
      "release()": {
        "returns": {
          "amounts": "The amounts released to the payees",
          "payees": "The addresses of the payees"
        }
      }
    },
    "title": "Surplus",
    "version": 1
  },
  "evm": {
    "gasEstimates": {
      "creation": {
        "codeDepositCost": "1367400",
        "executionCost": "1433",
        "totalCost": "1368833"
      },
      "external": {
        "processSurplus(address)": "infinite",
        "release()": "infinite"
      }
    }
  },
  "storageLayout": {
    "storage": [],
    "types": null
  },
  "userdoc": {
    "kind": "user",
    "methods": {
      "release()": {
        "notice": "Releases the income to the payees"
      }
    },
    "version": 1
  },
  "argsData": "0x",
  "transaction": {
    "hash": "0x58a467a89b9147ee2d59934ad5f729b150f2fdd4c03bad65ce308487de276c90",
    "nonce": "0xaa",
    "origin": "0x66ccec236bbce5f1bbd1b2fc0a4014e57a55ad02"
  }
}