{
  "address": "0x41d58951cbd12D4Ef49b0437897677bbF5547C80",
  "abi": [
    {
      "inputs": [
        {
          "internalType": "address",
          "name": "authority",
          "type": "address"
        }
      ],
      "name": "AccessManagedInvalidAuthority",
      "type": "error"
    },
    {
      "inputs": [
        {
          "internalType": "address",
          "name": "caller",
          "type": "address"
        },
        {
          "internalType": "uint32",
          "name": "delay",
          "type": "uint32"
        }
      ],
      "name": "AccessManagedRequiredDelay",
      "type": "error"
    },
    {
      "inputs": [
        {
          "internalType": "address",
          "name": "caller",
          "type": "address"
        }
      ],
      "name": "AccessManagedUnauthorized",
      "type": "error"
    },
    {
      "inputs": [
        {
          "internalType": "address",
          "name": "target",
          "type": "address"
        }
      ],
      "name": "AddressEmptyCode",
      "type": "error"
    },
    {
      "inputs": [
        {
          "internalType": "address",
          "name": "implementation",
          "type": "address"
        }
      ],
      "name": "ERC1967InvalidImplementation",
      "type": "error"
    },
    {
      "inputs": [],
      "name": "ERC1967NonPayable",
      "type": "error"
    },
    {
      "inputs": [
        {
          "internalType": "address",
          "name": "spender",
          "type": "address"
        },
        {
          "internalType": "uint256",
          "name": "allowance",
          "type": "uint256"
        },
        {
          "internalType": "uint256",
          "name": "needed",
          "type": "uint256"
        }
      ],
      "name": "ERC20InsufficientAllowance",
      "type": "error"
    },
    {
      "inputs": [
        {
          "internalType": "address",
          "name": "sender",
          "type": "address"
        },
        {
          "internalType": "uint256",
          "name": "balance",
          "type": "uint256"
        },
        {
          "internalType": "uint256",
          "name": "needed",
          "type": "uint256"
        }
      ],
      "name": "ERC20InsufficientBalance",
      "type": "error"
    },
    {
      "inputs": [
        {
          "internalType": "address",
          "name": "approver",
          "type": "address"
        }
      ],
      "name": "ERC20InvalidApprover",
      "type": "error"
    },
    {
      "inputs": [
        {
          "internalType": "address",
          "name": "receiver",
          "type": "address"
        }
      ],
      "name": "ERC20InvalidReceiver",
      "type": "error"
    },
    {
      "inputs": [
        {
          "internalType": "address",
          "name": "sender",
          "type": "address"
        }
      ],
      "name": "ERC20InvalidSender",
      "type": "error"
    },
    {
      "inputs": [
        {
          "internalType": "address",
          "name": "spender",
          "type": "address"
        }
      ],
      "name": "ERC20InvalidSpender",
      "type": "error"
    },
    {
      "inputs": [
        {
          "internalType": "address",
          "name": "receiver",
          "type": "address"
        },
        {
          "internalType": "uint256",
          "name": "assets",
          "type": "uint256"
        },
        {
          "internalType": "uint256",
          "name": "max",
          "type": "uint256"
        }
      ],
      "name": "ERC4626ExceededMaxDeposit",
      "type": "error"
    },
    {
      "inputs": [
        {
          "internalType": "address",
          "name": "receiver",
          "type": "address"
        },
        {
          "internalType": "uint256",
          "name": "shares",
          "type": "uint256"
        },
        {
          "internalType": "uint256",
          "name": "max",
          "type": "uint256"
        }
      ],
      "name": "ERC4626ExceededMaxMint",
      "type": "error"
    },
    {
      "inputs": [
        {
          "internalType": "address",
          "name": "owner",
          "type": "address"
        },
        {
          "internalType": "uint256",
          "name": "shares",
          "type": "uint256"
        },
        {
          "internalType": "uint256",
          "name": "max",
          "type": "uint256"
        }
      ],
      "name": "ERC4626ExceededMaxRedeem",
      "type": "error"
    },
    {
      "inputs": [
        {
          "internalType": "address",
          "name": "owner",
          "type": "address"
        },
        {
          "internalType": "uint256",
          "name": "assets",
          "type": "uint256"
        },
        {
          "internalType": "uint256",
          "name": "max",
          "type": "uint256"
        }
      ],
      "name": "ERC4626ExceededMaxWithdraw",
      "type": "error"
    },
    {
      "inputs": [],
      "name": "FailedCall",
      "type": "error"
    },
    {
      "inputs": [],
      "name": "InvalidInitialization",
      "type": "error"
    },
    {
      "inputs": [],
      "name": "InvalidRate",
      "type": "error"
    },
    {
      "inputs": [],
      "name": "NotInitializing",
      "type": "error"
    },
    {
      "inputs": [],
      "name": "NotTrusted",
      "type": "error"
    },
    {
      "inputs": [],
      "name": "Paused",
      "type": "error"
    },
    {
      "inputs": [
        {
          "internalType": "address",
          "name": "token",
          "type": "address"
        }
      ],
      "name": "SafeERC20FailedOperation",
      "type": "error"
    },
    {
      "inputs": [],
      "name": "UUPSUnauthorizedCallContext",
      "type": "error"
    },
    {
      "inputs": [
        {
          "internalType": "bytes32",
          "name": "slot",
          "type": "bytes32"
        }
      ],
      "name": "UUPSUnsupportedProxiableUUID",
      "type": "error"
    },
    {
      "inputs": [],
      "name": "ZeroAddress",
      "type": "error"
    },
    {
      "anonymous": false,
      "inputs": [
        {
          "indexed": false,
          "internalType": "uint256",
          "name": "interest",
          "type": "uint256"
        }
      ],
      "name": "Accrued",
      "type": "event"
    },
    {
      "anonymous": false,
      "inputs": [
        {
          "indexed": true,
          "internalType": "address",
          "name": "owner",
          "type": "address"
        },
        {
          "indexed": true,
          "internalType": "address",
          "name": "spender",
          "type": "address"
        },
        {
          "indexed": false,
          "internalType": "uint256",
          "name": "value",
          "type": "uint256"
        }
      ],
      "name": "Approval",
      "type": "event"
    },
    {
      "anonymous": false,
      "inputs": [
        {
          "indexed": false,
          "internalType": "address",
          "name": "authority",
          "type": "address"
        }
      ],
      "name": "AuthorityUpdated",
      "type": "event"
    },
    {
      "anonymous": false,
      "inputs": [
        {
          "indexed": true,
          "internalType": "address",
          "name": "sender",
          "type": "address"
        },
        {
          "indexed": true,
          "internalType": "address",
          "name": "owner",
          "type": "address"
        },
        {
          "indexed": false,
          "internalType": "uint256",
          "name": "assets",
          "type": "uint256"
        },
        {
          "indexed": false,
          "internalType": "uint256",
          "name": "shares",
          "type": "uint256"
        }
      ],
      "name": "Deposit",
      "type": "event"
    },
    {
      "anonymous": false,
      "inputs": [
        {
          "indexed": false,
          "internalType": "uint64",
          "name": "version",
          "type": "uint64"
        }
      ],
      "name": "Initialized",
      "type": "event"
    },
    {
      "anonymous": false,
      "inputs": [
        {
          "indexed": false,
          "internalType": "uint256",
          "name": "newMaxRate",
          "type": "uint256"
        }
      ],
      "name": "MaxRateUpdated",
      "type": "event"
    },
    {
      "anonymous": false,
      "inputs": [
        {
          "indexed": false,
          "internalType": "uint256",
          "name": "newRate",
          "type": "uint256"
        }
      ],
      "name": "RateUpdated",
      "type": "event"
    },
    {
      "anonymous": false,
      "inputs": [
        {
          "indexed": false,
          "internalType": "uint128",
          "name": "pauseStatus",
          "type": "uint128"
        }
      ],
      "name": "ToggledPause",
      "type": "event"
    },
    {
      "anonymous": false,
      "inputs": [
        {
          "indexed": true,
          "internalType": "address",
          "name": "trustedAddress",
          "type": "address"
        },
        {
          "indexed": false,
          "internalType": "uint256",
          "name": "trustedStatus",
          "type": "uint256"
        }
      ],
      "name": "ToggledTrusted",
      "type": "event"
    },
    {
      "anonymous": false,
      "inputs": [
        {
          "indexed": true,
          "internalType": "address",
          "name": "from",
          "type": "address"
        },
        {
          "indexed": true,
          "internalType": "address",
          "name": "to",
          "type": "address"
        },
        {
          "indexed": false,
          "internalType": "uint256",
          "name": "value",
          "type": "uint256"
        }
      ],
      "name": "Transfer",
      "type": "event"
    },
    {
      "anonymous": false,
      "inputs": [
        {
          "indexed": true,
          "internalType": "address",
          "name": "implementation",
          "type": "address"
        }
      ],
      "name": "Upgraded",
      "type": "event"
    },
    {
      "anonymous": false,
      "inputs": [
        {
          "indexed": true,
          "internalType": "address",
          "name": "sender",
          "type": "address"
        },
        {
          "indexed": true,
          "internalType": "address",
          "name": "receiver",
          "type": "address"
        },
        {
          "indexed": true,
          "internalType": "address",
          "name": "owner",
          "type": "address"
        },
        {
          "indexed": false,
          "internalType": "uint256",
          "name": "assets",
          "type": "uint256"
        },
        {
          "indexed": false,
          "internalType": "uint256",
          "name": "shares",
          "type": "uint256"
        }
      ],
      "name": "Withdraw",
      "type": "event"
    },
    {
      "inputs": [],
      "name": "UPGRADE_INTERFACE_VERSION",
      "outputs": [
        {
          "internalType": "string",
          "name": "",
          "type": "string"
        }
      ],
      "stateMutability": "view",
      "type": "function"
    },
    {
      "inputs": [
        {
          "internalType": "address",
          "name": "owner",
          "type": "address"
        },
        {
          "internalType": "address",
          "name": "spender",
          "type": "address"
        }
      ],
      "name": "allowance",
      "outputs": [
        {
          "internalType": "uint256",
          "name": "",
          "type": "uint256"
        }
      ],
      "stateMutability": "view",
      "type": "function"
    },
    {
      "inputs": [
        {
          "internalType": "address",
          "name": "spender",
          "type": "address"
        },
        {
          "internalType": "uint256",
          "name": "value",
          "type": "uint256"
        }
      ],
      "name": "approve",
      "outputs": [
        {
          "internalType": "bool",
          "name": "",
          "type": "bool"
        }
      ],
      "stateMutability": "nonpayable",
      "type": "function"
    },
    {
      "inputs": [],
      "name": "asset",
      "outputs": [
        {
          "internalType": "address",
          "name": "",
          "type": "address"
        }
      ],
      "stateMutability": "view",
      "type": "function"
    },
    {
      "inputs": [],
      "name": "authority",
      "outputs": [
        {
          "internalType": "address",
          "name": "",
          "type": "address"
        }
      ],
      "stateMutability": "view",
      "type": "function"
    },
    {
      "inputs": [
        {
          "internalType": "address",
          "name": "account",
          "type": "address"
        }
      ],
      "name": "balanceOf",
      "outputs": [
        {
          "internalType": "uint256",
          "name": "",
          "type": "uint256"
        }
      ],
      "stateMutability": "view",
      "type": "function"
    },
    {
      "inputs": [
        {
          "internalType": "uint256",
          "name": "_totalAssets",
          "type": "uint256"
        },
        {
          "internalType": "uint256",
          "name": "exp",
          "type": "uint256"
        }
      ],
      "name": "computeUpdatedAssets",
      "outputs": [
        {
          "internalType": "uint256",
          "name": "",
          "type": "uint256"
        }
      ],
      "stateMutability": "view",
      "type": "function"
    },
    {
      "inputs": [
        {
          "internalType": "uint256",
          "name": "shares",
          "type": "uint256"
        }
      ],
      "name": "convertToAssets",
      "outputs": [
        {
          "internalType": "uint256",
          "name": "",
          "type": "uint256"
        }
      ],
      "stateMutability": "view",
      "type": "function"
    },
    {
      "inputs": [
        {
          "internalType": "uint256",
          "name": "assets",
          "type": "uint256"
        }
      ],
      "name": "convertToShares",
      "outputs": [
        {
          "internalType": "uint256",
          "name": "",
          "type": "uint256"
        }
      ],
      "stateMutability": "view",
      "type": "function"
    },
    {
      "inputs": [],
      "name": "decimals",
      "outputs": [
        {
          "internalType": "uint8",
          "name": "",
          "type": "uint8"
        }
      ],
      "stateMutability": "view",
      "type": "function"
    },
    {
      "inputs": [
        {
          "internalType": "uint256",
          "name": "assets",
          "type": "uint256"
        },
        {
          "internalType": "address",
          "name": "receiver",
          "type": "address"
        }
      ],
      "name": "deposit",
      "outputs": [
        {
          "internalType": "uint256",
          "name": "shares",
          "type": "uint256"
        }
      ],
      "stateMutability": "nonpayable",
      "type": "function"
    },
    {
      "inputs": [],
      "name": "estimatedAPR",
      "outputs": [
        {
          "internalType": "uint256",
          "name": "apr",
          "type": "uint256"
        }
      ],
      "stateMutability": "view",
      "type": "function"
    },
    {
      "inputs": [
        {
          "internalType": "address",
          "name": "_authority",
          "type": "address"
        },
        {
          "internalType": "contract IERC20Metadata",
          "name": "asset_",
          "type": "address"
        },
        {
          "internalType": "string",
          "name": "name_",
          "type": "string"
        },
        {
          "internalType": "string",
          "name": "symbol_",
          "type": "string"
        },
        {
          "internalType": "uint256",
          "name": "divizer",
          "type": "uint256"
        }
      ],
      "name": "initialize",
      "outputs": [],
      "stateMutability": "nonpayable",
      "type": "function"
    },
    {
      "inputs": [],
      "name": "isConsumingScheduledOp",
      "outputs": [
        {
          "internalType": "bytes4",
          "name": "",
          "type": "bytes4"
        }
      ],
      "stateMutability": "view",
      "type": "function"
    },
    {
      "inputs": [
        {
          "internalType": "address",
          "name": "",
          "type": "address"
        }
      ],
      "name": "isTrustedUpdater",
      "outputs": [
        {
          "internalType": "uint256",
          "name": "",
          "type": "uint256"
        }
      ],
      "stateMutability": "view",
      "type": "function"
    },
    {
      "inputs": [],
      "name": "lastUpdate",
      "outputs": [
        {
          "internalType": "uint40",
          "name": "",
          "type": "uint40"
        }
      ],
      "stateMutability": "view",
      "type": "function"
    },
    {
      "inputs": [
        {
          "internalType": "address",
          "name": "",
          "type": "address"
        }
      ],
      "name": "maxDeposit",
      "outputs": [
        {
          "internalType": "uint256",
          "name": "",
          "type": "uint256"
        }
      ],
      "stateMutability": "view",
      "type": "function"
    },
    {
      "inputs": [
        {
          "internalType": "address",
          "name": "",
          "type": "address"
        }
      ],
      "name": "maxMint",
      "outputs": [
        {
          "internalType": "uint256",
          "name": "",
          "type": "uint256"
        }
      ],
      "stateMutability": "view",
      "type": "function"
    },
    {
      "inputs": [],
      "name": "maxRate",
      "outputs": [
        {
          "internalType": "uint256",
          "name": "",
          "type": "uint256"
        }
      ],
      "stateMutability": "view",
      "type": "function"
    },
    {
      "inputs": [
        {
          "internalType": "address",
          "name": "owner",
          "type": "address"
        }
      ],
      "name": "maxRedeem",
      "outputs": [
        {
          "internalType": "uint256",
          "name": "",
          "type": "uint256"
        }
      ],
      "stateMutability": "view",
      "type": "function"
    },
    {
      "inputs": [
        {
          "internalType": "address",
          "name": "owner",
          "type": "address"
        }
      ],
      "name": "maxWithdraw",
      "outputs": [
        {
          "internalType": "uint256",
          "name": "",
          "type": "uint256"
        }
      ],
      "stateMutability": "view",
      "type": "function"
    },
    {
      "inputs": [
        {
          "internalType": "uint256",
          "name": "shares",
          "type": "uint256"
        },
        {
          "internalType": "address",
          "name": "receiver",
          "type": "address"
        }
      ],
      "name": "mint",
      "outputs": [
        {
          "internalType": "uint256",
          "name": "assets",
          "type": "uint256"
        }
      ],
      "stateMutability": "nonpayable",
      "type": "function"
    },
    {
      "inputs": [],
      "name": "name",
      "outputs": [
        {
          "internalType": "string",
          "name": "",
          "type": "string"
        }
      ],
      "stateMutability": "view",
      "type": "function"
    },
    {
      "inputs": [],
      "name": "paused",
      "outputs": [
        {
          "internalType": "uint8",
          "name": "",
          "type": "uint8"
        }
      ],
      "stateMutability": "view",
      "type": "function"
    },
    {
      "inputs": [
        {
          "internalType": "uint256",
          "name": "assets",
          "type": "uint256"
        }
      ],
      "name": "previewDeposit",
      "outputs": [
        {
          "internalType": "uint256",
          "name": "",
          "type": "uint256"
        }
      ],
      "stateMutability": "view",
      "type": "function"
    },
    {
      "inputs": [
        {
          "internalType": "uint256",
          "name": "shares",
          "type": "uint256"
        }
      ],
      "name": "previewMint",
      "outputs": [
        {
          "internalType": "uint256",
          "name": "",
          "type": "uint256"
        }
      ],
      "stateMutability": "view",
      "type": "function"
    },
    {
      "inputs": [
        {
          "internalType": "uint256",
          "name": "shares",
          "type": "uint256"
        }
      ],
      "name": "previewRedeem",
      "outputs": [
        {
          "internalType": "uint256",
          "name": "",
          "type": "uint256"
        }
      ],
      "stateMutability": "view",
      "type": "function"
    },
    {
      "inputs": [
        {
          "internalType": "uint256",
          "name": "assets",
          "type": "uint256"
        }
      ],
      "name": "previewWithdraw",
      "outputs": [
        {
          "internalType": "uint256",
          "name": "",
          "type": "uint256"
        }
      ],
      "stateMutability": "view",
      "type": "function"
    },
    {
      "inputs": [],
      "name": "proxiableUUID",
      "outputs": [
        {
          "internalType": "bytes32",
          "name": "",
          "type": "bytes32"
        }
      ],
      "stateMutability": "view",
      "type": "function"
    },
    {
      "inputs": [],
      "name": "rate",
      "outputs": [
        {
          "internalType": "uint208",
          "name": "",
          "type": "uint208"
        }
      ],
      "stateMutability": "view",
      "type": "function"
    },
    {
      "inputs": [
        {
          "internalType": "uint256",
          "name": "shares",
          "type": "uint256"
        },
        {
          "internalType": "address",
          "name": "receiver",
          "type": "address"
        },
        {
          "internalType": "address",
          "name": "owner",
          "type": "address"
        }
      ],
      "name": "redeem",
      "outputs": [
        {
          "internalType": "uint256",
          "name": "assets",
          "type": "uint256"
        }
      ],
      "stateMutability": "nonpayable",
      "type": "function"
    },
    {
      "inputs": [
        {
          "internalType": "address",
          "name": "newAuthority",
          "type": "address"
        }
      ],
      "name": "setAuthority",
      "outputs": [],
      "stateMutability": "nonpayable",
      "type": "function"
    },
    {
      "inputs": [
        {
          "internalType": "uint256",
          "name": "newMaxRate",
          "type": "uint256"
        }
      ],
      "name": "setMaxRate",
      "outputs": [],
      "stateMutability": "nonpayable",
      "type": "function"
    },
    {
      "inputs": [
        {
          "internalType": "string",
          "name": "newName",
          "type": "string"
        },
        {
          "internalType": "string",
          "name": "newSymbol",
          "type": "string"
        }
      ],
      "name": "setNameAndSymbol",
      "outputs": [],
      "stateMutability": "nonpayable",
      "type": "function"
    },
    {
      "inputs": [
        {
          "internalType": "uint208",
          "name": "newRate",
          "type": "uint208"
        }
      ],
      "name": "setRate",
      "outputs": [],
      "stateMutability": "nonpayable",
      "type": "function"
    },
    {
      "inputs": [],
      "name": "symbol",
      "outputs": [
        {
          "internalType": "string",
          "name": "",
          "type": "string"
        }
      ],
      "stateMutability": "view",
      "type": "function"
    },
    {
      "inputs": [],
      "name": "togglePause",
      "outputs": [],
      "stateMutability": "nonpayable",
      "type": "function"
    },
    {
      "inputs": [
        {
          "internalType": "address",
          "name": "trustedAddress",
          "type": "address"
        }
      ],
      "name": "toggleTrusted",
      "outputs": [],
      "stateMutability": "nonpayable",
      "type": "function"
    },
    {
      "inputs": [],
      "name": "totalAssets",
      "outputs": [
        {
          "internalType": "uint256",
          "name": "",
          "type": "uint256"
        }
      ],
      "stateMutability": "view",
      "type": "function"
    },
    {
      "inputs": [],
      "name": "totalSupply",
      "outputs": [
        {
          "internalType": "uint256",
          "name": "",
          "type": "uint256"
        }
      ],
      "stateMutability": "view",
      "type": "function"
    },
    {
      "inputs": [
        {
          "internalType": "address",
          "name": "to",
          "type": "address"
        },
        {
          "internalType": "uint256",
          "name": "value",
          "type": "uint256"
        }
      ],
      "name": "transfer",
      "outputs": [
        {
          "internalType": "bool",
          "name": "",
          "type": "bool"
        }
      ],
      "stateMutability": "nonpayable",
      "type": "function"
    },
    {
      "inputs": [
        {
          "internalType": "address",
          "name": "from",
          "type": "address"
        },
        {
          "internalType": "address",
          "name": "to",
          "type": "address"
        },
        {
          "internalType": "uint256",
          "name": "value",
          "type": "uint256"
        }
      ],
      "name": "transferFrom",
      "outputs": [
        {
          "internalType": "bool",
          "name": "",
          "type": "bool"
        }
      ],
      "stateMutability": "nonpayable",
      "type": "function"
    },
    {
      "inputs": [
        {
          "internalType": "address",
          "name": "newImplementation",
          "type": "address"
        },
        {
          "internalType": "bytes",
          "name": "data",
          "type": "bytes"
        }
      ],
      "name": "upgradeToAndCall",
      "outputs": [],
      "stateMutability": "payable",
      "type": "function"
    },
    {
      "inputs": [
        {
          "internalType": "uint256",
          "name": "assets",
          "type": "uint256"
        },
        {
          "internalType": "address",
          "name": "receiver",
          "type": "address"
        },
        {
          "internalType": "address",
          "name": "owner",
          "type": "address"
        }
      ],
      "name": "withdraw",
      "outputs": [
        {
          "internalType": "uint256",
          "name": "shares",
          "type": "uint256"
        }
      ],
      "stateMutability": "nonpayable",
      "type": "function"
    }
  ],
  "transactionHash": "0x20f120bfae196e81ba7f5b8f935b40718d299dec3cddc08acc603a2accc98143",
  "args": [],
  "numDeployments": 1,
  "solcInputHash": "b5440b110cfc405704aa877772c18389",
  "bytecode": "0x60a080604052346100c257306080525f5160206131dd5f395f51905f525460ff8160401c166100b3576002600160401b03196001600160401b03821601610060575b60405161311690816100c7823960805181818161128001526113470152f35b6001600160401b0319166001600160401b039081175f5160206131dd5f395f51905f525581527fc7f505b2f371ae2175ee4913f4499e1f2633a7b5936321eed1cdaeb6115181d290602090a15f80610041565b63f92ee8a960e01b5f5260045ffd5b5f80fdfe60806040526004361015610011575f80fd5b5f3560e01c806301e1d1141461189257806306fdde03146117ed57806307a2d13a146115c4578063095ea7b3146116f25780630a28a477146116cc57806318160ddd1461169057806323b872dd146116585780632c4e722e14611633578063313ce567146115fb57806338d52e0f146115c9578063402d267d1461037a5780634cdad506146115c45780634d0046d51461158c5780634f1ef286146112f857806352d1902d146112665780635a446215146112025780635a5cd45e146111cc5780635c975abb146111ad5780636e553f651461116757806370a08231146102c5578063763e9023146110625780637a9e5e4b14610fbf5780637ee8434914610f3d5780638fb3603714610eaa57806393d239231461076857806394bf804d1461072457806395d89b411461064e578063a9059cbb1461061d578063aa4abe7f146105cb578063ad3cb1cc14610570578063b3d7f6b91461054a578063b460af9414610510578063ba087652146104af578063bf7e214f1461046a578063c046371114610444578063c4ae31681461037f578063c63d75b61461037a578063c6e6f5921461022a578063ce96cb771461031a578063d905777e146102c5578063dd62ed3e1461024c578063ece1d6e51461022f578063ef8b30f71461022a5763f4f9b040146101fd575f80fd5b3461022657604036600319011261022657602061021e602435600435611ce9565b604051908152f35b5f80fd5b611a19565b34610226575f366003190112610226576020600154604051908152f35b34610226576040366003190112610226576102656118fc565b6001600160a01b036102af610278611912565b926001600160a01b03165f527f52c63247e1f47db19d5ce0460030c497f067ca4cebf71ba98eeadabe20bace0160205260405f2090565b91165f52602052602060405f2054604051908152f35b3461022657602036600319011261022657602061021e6102e36118fc565b6001600160a01b03165f527f52c63247e1f47db19d5ce0460030c497f067ca4cebf71ba98eeadabe20bace0060205260405f205490565b34610226576020366003190112610226576001600160a01b0361033b6118fc565b165f527f52c63247e1f47db19d5ce0460030c497f067ca4cebf71ba98eeadabe20bace00602052602061021e60405f2054610374611a4c565b90612ade565b611928565b34610226575f366003190112610226576103a23361039d3633612082565b611aaa565b5f548060f81c6001039060ff821161043057816020917effffffffffffffffffffffffffffffffffffffffffffffffffffffffffffff7fff000000000000000000000000000000000000000000000000000000000000007f1e47f7115d10ca14b574b88c5c0bb005076141cea47318c3a8a7fe177142e8a29560f81b169116175f5560ff60405191168152a1005b634e487b7160e01b5f52601160045260245ffd5b34610226575f36600319011261022657602064ffffffffff5f5460d01c16604051908152f35b34610226575f3660031901126102265760206001600160a01b037ff3177357ab46d8af007ab3fdb9af81da189e1068fefdc0073dca88a2cab40a005416604051908152f35b34610226576104bd366119df565b905f5460f81c6104e85760209261021e916104df6104d96125fd565b83612ade565b93849133612b53565b7f9e87fac8000000000000000000000000000000000000000000000000000000005f5260045ffd5b346102265761051e366119df565b90915f5460f81c6104e85760209261021e9161054161053b6125fd565b8261272f565b93849233612b53565b3461022657602036600319011261022657602061021e610568611a4c565b600435612a62565b34610226575f366003190112610226576105c760405161059160408261194d565b600581527f352e302e300000000000000000000000000000000000000000000000000000006020820152604051918291826118ac565b0390f35b34610226576020366003190112610226577fcdfe38c4a8f52b3ca6577340cfb5046c68d9854c712200f932e420775132f0b960206004356106103361039d3633612082565b80600155604051908152a1005b34610226576040366003190112610226576106436106396118fc565b6024359033611f33565b602060405160018152f35b34610226575f366003190112610226576040515f60345461066e81611a72565b808452906001811690811561070057506001146106a2575b6105c7836106968185038261194d565b604051918291826118ac565b91905060345f527f46bddb1178e94d7f2892ff5f366840eb658911794f2c3a44c450aa2c505186c1915f905b8082106106e657509091508101602001610696610686565b9192600181602092548385880101520191019092916106ce565b60ff191660208086019190915291151560051b840190910191506106969050610686565b3461022657604036600319011261022657600435610740611912565b5f5460f81c6104e85761021e60209261076061075a6125fd565b82612a62565b80933361287a565b346102265760a0366003190112610226576107816118fc565b6024356001600160a01b0381168091036102265760443567ffffffffffffffff8111610226576107b59036906004016119c1565b9060643567ffffffffffffffff8111610226576107d69036906004016119c1565b90608435917ff0c57e16840df040f15088dc2f81fe391c3923bec73e23a9662efc9c229c6a00549360ff8560401c16159467ffffffffffffffff811680159081610ea2575b6001149081610e98575b159081610e8f575b50610e675767ffffffffffffffff1981166001177ff0c57e16840df040f15088dc2f81fe391c3923bec73e23a9662efc9c229c6a005585610e28575b506001600160a01b03861615610e0057610881612e54565b610889612e54565b8261089381612fb5565b9015610df8575b7fffffffffffffffffffffff00000000000000000000000000000000000000000074ff00000000000000000000000000000000000000005f5160206130c15f395f51905f52549260a01b16911617175f5160206130c15f395f51905f5255610900612e54565b610908612e54565b805167ffffffffffffffff8111610cb5576109437f52c63247e1f47db19d5ce0460030c497f067ca4cebf71ba98eeadabe20bace0354611a72565b601f8111610d76575b50806020601f8211600114610cd4575f91610cc9575b508160011b915f199060031b1c1916177f52c63247e1f47db19d5ce0460030c497f067ca4cebf71ba98eeadabe20bace03555b81519567ffffffffffffffff8711610cb5576109d17f52c63247e1f47db19d5ce0460030c497f067ca4cebf71ba98eeadabe20bace0454611a72565b601f8111610c33575b50602096601f8111600114610b845791610a53602095949284610a58956004999a9b5f91610b79575b508160011b915f199060031b1c1916177f52c63247e1f47db19d5ce0460030c497f067ca4cebf71ba98eeadabe20bace04555b610a3e612e54565b610a46612e54565b610a4e612e54565b6129cf565b6122ff565b6040519283809263313ce56760e01b82525afa8015610b6e57610a878391610a8c935f91610b3f575b50611ae6565b611af7565b8115610b2b57610aa891670de0b6b3a76400000490303361287a565b610aae57005b68ff0000000000000000197ff0c57e16840df040f15088dc2f81fe391c3923bec73e23a9662efc9c229c6a0054167ff0c57e16840df040f15088dc2f81fe391c3923bec73e23a9662efc9c229c6a00557fc7f505b2f371ae2175ee4913f4499e1f2633a7b5936321eed1cdaeb6115181d2602060405160018152a1005b634e487b7160e01b5f52601260045260245ffd5b610b61915060203d602011610b67575b610b59818361194d565b810190611acd565b86610a81565b503d610b4f565b6040513d5f823e3d90fd5b90508501518c610a03565b601f1981167f52c63247e1f47db19d5ce0460030c497f067ca4cebf71ba98eeadabe20bace045f52885f20905f5b818110610c1b575092600183610a539360049a9b9c610a58989660209b9a9810610c03575b5050811b017f52c63247e1f47db19d5ce0460030c497f067ca4cebf71ba98eeadabe20bace0455610a36565b8701515f1960f88460031b161c191690558c80610bd7565b868b0151835560209a8b019a60019093019201610bb2565b7f52c63247e1f47db19d5ce0460030c497f067ca4cebf71ba98eeadabe20bace045f527f46a2803e59a4de4e7a4c574b1243f25977ac4c77d5a1a4a609b5394cebb4a2aa601f890160051c81019160208a10610cab575b601f0160051c01905b818110610ca057506109da565b5f8155600101610c93565b9091508190610c8a565b634e487b7160e01b5f52604160045260245ffd5b905082015188610962565b7f52c63247e1f47db19d5ce0460030c497f067ca4cebf71ba98eeadabe20bace035f9081528181209250601f198416905b818110610d5e57509083600194939210610d46575b5050811b017f52c63247e1f47db19d5ce0460030c497f067ca4cebf71ba98eeadabe20bace0355610995565b8401515f1960f88460031b161c191690558880610d1a565b91926020600181928689015181550194019201610d05565b7f52c63247e1f47db19d5ce0460030c497f067ca4cebf71ba98eeadabe20bace035f527f2ae08a8e29253f69ac5d979a101956ab8f8d9d7ded63fa7a83b16fc47648eab0601f830160051c81019160208410610dee575b601f0160051c01905b818110610de3575061094c565b5f8155600101610dd6565b9091508190610dcd565b50601261089a565b7fd92e233d000000000000000000000000000000000000000000000000000000005f5260045ffd5b68ffffffffffffffffff191668010000000000000001177ff0c57e16840df040f15088dc2f81fe391c3923bec73e23a9662efc9c229c6a005586610869565b7ff92ee8a9000000000000000000000000000000000000000000000000000000005f5260045ffd5b9050158861082d565b303b159150610825565b87915061081b565b34610226575f366003190112610226577ff3177357ab46d8af007ab3fdb9af81da189e1068fefdc0073dca88a2cab40a005460a01c60ff1615610f355760207f8fb36037000000000000000000000000000000000000000000000000000000005b7fffffffff0000000000000000000000000000000000000000000000000000000060405191168152f35b60205f610f0b565b34610226576020366003190112610226576001600160a01b03610f5e6118fc565b610f6c3361039d3633612082565b16805f52600260205260405f2054600103600181116104305760207fb4e4c17380256b9cc49fc909cfd80b70b57e922b2ada0ff351665e1da6493bd591835f52600282528060405f2055604051908152a2005b3461022657602036600319011261022657610fd86118fc565b6001600160a01b037ff3177357ab46d8af007ab3fdb9af81da189e1068fefdc0073dca88a2cab40a005416330361105057803b1561101b57611019906129cf565b005b6001600160a01b03907fc2f31e5e000000000000000000000000000000000000000000000000000000005f521660045260245ffd5b62d1953b60e31b5f523360045260245ffd5b34610226576020366003190112610226576004356001600160d01b03811680910361022657335f52600260205260405f20541580611156575b61112e5760015481116111065760207fe65c987b2e4668e09ba867026921588005b2b2063607a1e7e7d91683c8f91b7b916110d46125fd565b50807fffffffffffff00000000000000000000000000000000000000000000000000005f5416175f55604051908152a1005b7f6a43f8d1000000000000000000000000000000000000000000000000000000005f5260045ffd5b7fc22a648e000000000000000000000000000000000000000000000000000000005f5260045ffd5b506111613633612082565b1561109b565b3461022657604036600319011261022657600435611183611912565b905f5460f81c6104e85761021e6020926111a461119e6125fd565b846127e8565b9283913361287a565b34610226575f3660031901126102265760205f5460f81c604051908152f35b34610226575f366003190112610226576111e4611baf565b670de0b6b3a763ffff19810190811161043057602090604051908152f35b346102265760403660031901126102265760043567ffffffffffffffff8111610226576112339036906004016119c1565b6024359067ffffffffffffffff8211610226576112576110199236906004016119c1565b90610a533361039d3633612082565b34610226575f366003190112610226576001600160a01b037f00000000000000000000000000000000000000000000000000000000000000001630036112d05760206040517f360894a13ba1a3210667c828492db98dca3e2076cc3735a920a3ca505d382bbc8152f35b7fe07c8dba000000000000000000000000000000000000000000000000000000005f5260045ffd5b60403660031901126102265761130c6118fc565b60243567ffffffffffffffff811161022657366023820112156102265761133d90369060248160040135910161198b565b6001600160a01b037f000000000000000000000000000000000000000000000000000000000000000016803014908115611557575b506112d0576113853361039d3633612082565b6001600160a01b038216916040517f52d1902d000000000000000000000000000000000000000000000000000000008152602081600481875afa5f9181611523575b506113df5783634c9c8ce360e01b5f5260045260245ffd5b807f360894a13ba1a3210667c828492db98dca3e2076cc3735a920a3ca505d382bbc8592036114f85750813b156114e6578073ffffffffffffffffffffffffffffffffffffffff197f360894a13ba1a3210667c828492db98dca3e2076cc3735a920a3ca505d382bbc5416177f360894a13ba1a3210667c828492db98dca3e2076cc3735a920a3ca505d382bbc557fbc7cd75a20ee27fd9adebab32041f755214dbc6bffa90cc0225b39da2e5c2d3b5f80a28151156114b5575f8083602061101995519101845af46114af612d16565b91613034565b5050346114be57005b7fb398979f000000000000000000000000000000000000000000000000000000005f5260045ffd5b634c9c8ce360e01b5f5260045260245ffd5b7faa1d49a4000000000000000000000000000000000000000000000000000000005f5260045260245ffd5b9091506020813d60201161154f575b8161153f6020938361194d565b81010312610226575190856113c7565b3d9150611532565b90506001600160a01b037f360894a13ba1a3210667c828492db98dca3e2076cc3735a920a3ca505d382bbc5416141583611372565b34610226576020366003190112610226576001600160a01b036115ad6118fc565b165f526002602052602060405f2054604051908152f35b6118d6565b34610226575f3660031901126102265760206001600160a01b035f5160206130c15f395f51905f525416604051908152f35b34610226575f3660031901126102265760ff5f5160206130c15f395f51905f525460a01c1660ff811161043057602090604051908152f35b34610226575f3660031901126102265760206001600160d01b035f5416604051908152f35b34610226576060366003190112610226576106436116746118fc565b61167c611912565b6044359161168b833383611e17565b611f33565b34610226575f3660031901126102265760207f52c63247e1f47db19d5ce0460030c497f067ca4cebf71ba98eeadabe20bace0254604051908152f35b3461022657602036600319011261022657602061021e6116ea611a4c565b60043561272f565b346102265760403660031901126102265761170b6118fc565b6024359033156117c1576001600160a01b031690811561179557335f9081527f52c63247e1f47db19d5ce0460030c497f067ca4cebf71ba98eeadabe20bace0160205260409020825f526020528060405f20556040519081527f8c5be1e5ebec7d5bd14f71427d1e84f3dd0314c0f7b2291e5b200ac8c7c3b92560203392a3602060405160018152f35b7f94280d62000000000000000000000000000000000000000000000000000000005f525f60045260245ffd5b7fe602df05000000000000000000000000000000000000000000000000000000005f525f60045260245ffd5b34610226575f366003190112610226576040515f60335461180d81611a72565b80845290600181169081156107005750600114611834576105c7836106968185038261194d565b91905060335f527f82a75bdeeae8604d839476ae9efd8b0e15aa447e21bfd7f41283bb54e22c9a82915f905b80821061187857509091508101602001610696610686565b919260018160209254838588010152019101909291611860565b34610226575f36600319011261022657602061021e611a4c565b602060409281835280519182918282860152018484015e5f828201840152601f01601f1916010190565b3461022657602036600319011261022657602061021e6118f4611a4c565b600435612ade565b600435906001600160a01b038216820361022657565b602435906001600160a01b038216820361022657565b34610226576020366003190112610226576119416118fc565b5060206040515f198152f35b90601f8019910116810190811067ffffffffffffffff821117610cb557604052565b67ffffffffffffffff8111610cb557601f01601f191660200190565b9291926119978261196f565b916119a5604051938461194d565b829481845281830111610226578281602093845f960137010152565b9080601f83011215610226578160206119dc9335910161198b565b90565b606090600319011261022657600435906024356001600160a01b038116810361022657906044356001600160a01b03811681036102265790565b3461022657602036600319011261022657602061021e611a37611a4c565b6004356127e8565b9190820391821161043057565b6119dc611a57611b01565b611a6c64ffffffffff5f5460d01c1642611a3f565b90611ce9565b90600182811c92168015611aa0575b6020831014611a8c57565b634e487b7160e01b5f52602260045260245ffd5b91607f1691611a81565b15611ab25750565b6001600160a01b039062d1953b60e31b5f521660045260245ffd5b90816020910312610226575160ff811681036102265790565b60ff16604d811161043057600a0a90565b8115610b2b570490565b602460206001600160a01b035f5160206130c15f395f51905f525416604051928380927f70a082310000000000000000000000000000000000000000000000000000000082523060048301525afa908115610b6e575f91611b60575090565b90506020813d602011611b87575b81611b7b6020938361194d565b81010312610226575190565b3d9150611b6e565b8181029291811591840414171561043057565b9190820180921161043057565b6001600160d01b035f5416801580611cdb576301e1337e91611bd18180611b8f565b6b019d971e4fe8401e740000008101809111610430576b033b2e3c9fd0803ce8000000900491611c018284611b8f565b936b019d971e4fe8401e740000008501809511610430576301e1337f946301e1338094660388828f7b0c8090611c379082611b8f565b60011c96868204148615171561043057828102928184041490151715610430576006916b033b2e3c9fd0803ce8000000611c72920490611b8f565b0492808302928304141715610430576b033b2e3c9fd0803ce800000001806b033b2e3c9fd0803ce80000001161043057611cb492611caf91611ba2565b611ba2565b670de0b6b3a76400008181029190820403610430576b033b2e3c9fd0803ce8000000900490565b5050670de0b6b3a764000090565b906001600160d01b035f54169181158015611e0f575b611e09575f198201828111610430576002831115611e0257600119830183811161043057925b611d2f8580611b8f565b6b019d971e4fe8401e740000008101809111610430576b033b2e3c9fd0803ce80000009004611d5e8682611b8f565b946b019d971e4fe8401e7400000086018096116104305783611da0611db192611da06b033b2e3c9fd0803ce8000000611da5600697611da0611db89b8b611b8f565b611b8f565b60011c9a049387611b8f565b0494611b8f565b6b033b2e3c9fd0803ce80000000191826b033b2e3c9fd0803ce800000011610430576b033b2e3c9fd0803ce800000093611caf611df892611dfe95611ba2565b90611b8f565b0490565b5f92611d25565b91505090565b508215611cff565b9190611e53836001600160a01b03165f527f52c63247e1f47db19d5ce0460030c497f067ca4cebf71ba98eeadabe20bace0160205260405f2090565b6001600160a01b0382165f5260205260405f2054925f198410611e77575b50505050565b828410611ef6576001600160a01b038116156117c1576001600160a01b0382161561179557611ede6001600160a01b03916001600160a01b03165f527f52c63247e1f47db19d5ce0460030c497f067ca4cebf71ba98eeadabe20bace0160205260405f2090565b91165f5260205260405f20910390555f808080611e71565b506001600160a01b0383917ffb8f41b2000000000000000000000000000000000000000000000000000000005f521660045260245260445260645ffd5b6001600160a01b0316908115612056576001600160a01b031691821561202a57815f527f52c63247e1f47db19d5ce0460030c497f067ca4cebf71ba98eeadabe20bace0060205260405f205481811061201157817fddf252ad1be2c89b69c2b068fc378daa952ba7f163c4a11628f55a4df523b3ef92602092855f527f52c63247e1f47db19d5ce0460030c497f067ca4cebf71ba98eeadabe20bace0084520360405f2055845f527f52c63247e1f47db19d5ce0460030c497f067ca4cebf71ba98eeadabe20bace00825260405f20818154019055604051908152a3565b8263391434e360e21b5f5260045260245260445260645ffd5b7fec442f05000000000000000000000000000000000000000000000000000000005f525f60045260245ffd5b7f96c6fd1e000000000000000000000000000000000000000000000000000000005f525f60045260245ffd5b7ff3177357ab46d8af007ab3fdb9af81da189e1068fefdc0073dca88a2cab40a0054916001600160a01b0383169281600411610226575f5f905f80604051966001600160a01b0360208901917fb700961300000000000000000000000000000000000000000000000000000000835216978860248201523060448201527fffffffff0000000000000000000000000000000000000000000000000000000083351660648201526064815261213760848261194d565b5190895afa612144612d16565b90612286575b501561215b575b5050505050600190565b63ffffffff161561227e5760ff60a01b191674010000000000000000000000000000000000000000177ff3177357ab46d8af007ab3fdb9af81da189e1068fefdc0073dca88a2cab40a0055823b15610226576064925f92836040519586809581947f94c7d7ee0000000000000000000000000000000000000000000000000000000083526004830152604060248301528060448301528084848401378181018301849052601f01601f191681010301925af18015610b6e5761226e575b5060ff60a01b197ff3177357ab46d8af007ab3fdb9af81da189e1068fefdc0073dca88a2cab40a0054167ff3177357ab46d8af007ab3fdb9af81da189e1068fefdc0073dca88a2cab40a00555f80808080612151565b5f6122789161194d565b5f612218565b505050505f90565b805190929091604083106122c857505081604091810103126102265760406122b060208301612d45565b91015163ffffffff8116810361022657905b5f61214a565b9160208194929410156122dd575b50506122c2565b81925090602091810103126102265760206122f89101612d45565b5f806122d6565b91825167ffffffffffffffff8111610cb55761231c603354611a72565b601f811161255c575b506020601f82116001146124db57819293945f926124d0575b50508160011b915f199060031b1c1916176033555b815167ffffffffffffffff8111610cb55761236f603454611a72565b601f811161242f575b50602092601f82116001146123b357928192935f926123a8575b50508160011b915f199060031b1c191617603455565b015190505f80612392565b601f1982169360345f527f46bddb1178e94d7f2892ff5f366840eb658911794f2c3a44c450aa2c505186c1915f5b86811061241757508360019596106123ff575b505050811b01603455565b01515f1960f88460031b161c191690555f80806123f4565b919260206001819286850151815501940192016123e1565b60345f52601f820160051c7f46bddb1178e94d7f2892ff5f366840eb658911794f2c3a44c450aa2c505186c10190602083106124a8575b601f0160051c7f46bddb1178e94d7f2892ff5f366840eb658911794f2c3a44c450aa2c505186c101905b81811061249d5750612378565b5f8155600101612490565b7f46bddb1178e94d7f2892ff5f366840eb658911794f2c3a44c450aa2c505186c19150612466565b015190505f8061233e565b601f1982169060335f527f82a75bdeeae8604d839476ae9efd8b0e15aa447e21bfd7f41283bb54e22c9a82915f5b8181106125445750958360019596971061252c575b505050811b01603355612353565b01515f1960f88460031b161c191690555f808061251e565b9192602060018192868b015181550194019201612509565b60335f52601f820160051c7f82a75bdeeae8604d839476ae9efd8b0e15aa447e21bfd7f41283bb54e22c9a820190602083106125d5575b601f0160051c7f82a75bdeeae8604d839476ae9efd8b0e15aa447e21bfd7f41283bb54e22c9a8201905b8181106125ca5750612325565b5f81556001016125bd565b7f82a75bdeeae8604d839476ae9efd8b0e15aa447e21bfd7f41283bb54e22c9a829150612593565b612605611b01565b9061267b5f549261262961262364ffffffffff8660d01c1642611a3f565b82611ce9565b937fff0000000000ffffffffffffffffffffffffffffffffffffffffffffffffffff7effffffffff00000000000000000000000000000000000000000000000000004260d01b169116175f5583611a3f565b806126835750565b6001600160a01b035f5160206130c15f395f51905f52541690813b15610226576040517f40c10f1900000000000000000000000000000000000000000000000000000000815230600482015260248101829052915f908390604490829084905af1908115610b6e577ff3486c8be7415104f077b000d812e60c482b6824642b7673b3f73d6faeca29a69260209261271f575b50604051908152a1565b5f6127299161194d565b5f612715565b7f52c63247e1f47db19d5ce0460030c497f067ca4cebf71ba98eeadabe20bace025491811580156127e0575b156127d457506004915060206001600160a01b035f5160206130c15f395f51905f5254166040519384809263313ce56760e01b82525afa908115610b6e576127af6001926119dc945f916127b55750611ae6565b90612d52565b6127ce915060203d602011610b6757610b59818361194d565b5f610a81565b6119dc92600192612e0a565b50821561275b565b7f52c63247e1f47db19d5ce0460030c497f067ca4cebf71ba98eeadabe20bace02549181158015612872575b1561286757506004915060206001600160a01b035f5160206130c15f395f51905f5254166040519384809263313ce56760e01b82525afa908115610b6e576127af5f926119dc9484916127b55750611ae6565b6119dc925f92612e0a565b508215612814565b91906001600160a01b03906128ed825f5160206130c15f395f51905f5254169483604051917f23b872dd0000000000000000000000000000000000000000000000000000000060208401521695866024830152306044830152856064830152606482526128e860848361194d565b612f48565b1692831561202a577fdcbc1c05240f31ff3ad067ef1ee35ce4997762752e3a095284754544f4c709d791816129456040937f52c63247e1f47db19d5ce0460030c497f067ca4cebf71ba98eeadabe20bace0254611ba2565b7f52c63247e1f47db19d5ce0460030c497f067ca4cebf71ba98eeadabe20bace0255855f527f52c63247e1f47db19d5ce0460030c497f067ca4cebf71ba98eeadabe20bace00602052825f20818154019055855f7fddf252ad1be2c89b69c2b068fc378daa952ba7f163c4a11628f55a4df523b3ef60208651858152a382519182526020820152a3565b60206001600160a01b037f2f658b440c35314f52658ea8a740e05b284cdc84dc9ae01e891f21b8933e7cad92168073ffffffffffffffffffffffffffffffffffffffff197ff3177357ab46d8af007ab3fdb9af81da189e1068fefdc0073dca88a2cab40a005416177ff3177357ab46d8af007ab3fdb9af81da189e1068fefdc0073dca88a2cab40a0055604051908152a1565b7f52c63247e1f47db19d5ce0460030c497f067ca4cebf71ba98eeadabe20bace0254806127d457506004915060206001600160a01b035f5160206130c15f395f51905f5254166040519384809263313ce56760e01b82525afa908115610b6e57612ad86001926119dc945f916127b55750611ae6565b90612dbe565b7f52c63247e1f47db19d5ce0460030c497f067ca4cebf71ba98eeadabe20bace02548061286757506004915060206001600160a01b035f5160206130c15f395f51905f5254166040519384809263313ce56760e01b82525afa908115610b6e57612ad85f926119dc9484916127b55750611ae6565b91936001600160a01b03851694816001600160a01b03851694878603612d05575b505050841561205657845f527f52c63247e1f47db19d5ce0460030c497f067ca4cebf71ba98eeadabe20bace0060205260405f2054818110612cec577ffbde797d201c681b91056529119e0b02407c7bb96a4a2c75c01fc9667232c8db92826040936001600160a01b0393895f527f52c63247e1f47db19d5ce0460030c497f067ca4cebf71ba98eeadabe20bace0060205203845f2055807f52c63247e1f47db19d5ce0460030c497f067ca4cebf71ba98eeadabe20bace0254037f52c63247e1f47db19d5ce0460030c497f067ca4cebf71ba98eeadabe20bace02555f887fddf252ad1be2c89b69c2b068fc378daa952ba7f163c4a11628f55a4df523b3ef60208751858152a35f5160206130c15f395f51905f525484517fa9059cbb0000000000000000000000000000000000000000000000000000000060208201526001600160a01b038416602482015260448082018a90528152612cdd9185166128e860648361194d565b835196875260208701521693a4565b8563391434e360e21b5f5260045260245260445260645ffd5b612d0e92611e17565b5f8181612b74565b3d15612d40573d90612d278261196f565b91612d35604051938461194d565b82523d5f602084013e565b606090565b5190811515820361022657565b9190612d6781670de0b6b3a764000085612eab565b916004811015612daa576001809116149081612d8c575b506119dc9250151590611ba2565b80915015610b2b57670de0b6b3a76400006119dc930915155f612d7e565b634e487b7160e01b5f52602160045260245ffd5b612dd1670de0b6b3a76400008383612eab565b916004841015612daa576001806119dc9516149182612df5575b5050151590611ba2565b670de0b6b3a764000092500915155f80612deb565b9291612e17818386612eab565b926004811015612daa576001809116149182612e3d575b50506119dc9250151590611ba2565b9080925015610b2b576119dc930915155f80612e2e565b60ff7ff0c57e16840df040f15088dc2f81fe391c3923bec73e23a9662efc9c229c6a005460401c1615612e8357565b7fd7e6bcf8000000000000000000000000000000000000000000000000000000005f5260045ffd5b91818302915f1981850993838086109503948086039514612f3b5784831115612f235790829109815f0382168092046002816003021880820260020302808202600203028082026002030280820260020302808202600203028091026002030293600183805f03040190848311900302920304170290565b82634e487b715f52156003026011186020526024601cfd5b5050906119dc9250611af7565b905f602091828151910182855af115610b6e575f513d612fac57506001600160a01b0381163b155b612f775750565b6001600160a01b03907f5274afe7000000000000000000000000000000000000000000000000000000005f521660045260245ffd5b60011415612f70565b5f80916040516001600160a01b03602082019163313ce56760e01b835260048152612fe160248261194d565b5192165afa612fee612d16565b9080613028575b613001575b505f905f90565b60208151918180820193849201010312610226575160ff8111612ffa579060ff6001921690565b50602081511015612ff5565b90613071575080511561304957805190602001fd5b7fd6bda275000000000000000000000000000000000000000000000000000000005f5260045ffd5b815115806130b7575b613082575090565b6001600160a01b03907f9996b315000000000000000000000000000000000000000000000000000000005f521660045260245ffd5b50803b1561307a56fe0773e532dfede91f04b12a73d3d2acd361424f41f76b4fb79f090161e36b4e00a2646970667358221220da7a9d500499d99d97308dd20fd2bf43b6eae3c99d1e00ce47e7db55705f44bc64736f6c634300081c0033f0c57e16840df040f15088dc2f81fe391c3923bec73e23a9662efc9c229c6a00",
  "devdoc": {
    "author": "Cooper Labs",
    "custom:contact": "security@cooperlabs.xyz",
    "details": "This contract is an authorized fork of Angle's SavingsNameable contract: https://github.com/AngleProtocol/angle-transmuter/blob/main/contracts/savings/nameable/SavingsNameable.sol",
    "errors": {
      "AddressEmptyCode(address)": [
        {
          "details": "There's no code at `target` (it is not a contract)."
        }
      ],
      "ERC1967InvalidImplementation(address)": [
        {
          "details": "The `implementation` of the proxy is invalid."
        }
      ],
      "ERC1967NonPayable()": [
        {
          "details": "An upgrade function sees `msg.value > 0` that may be lost."
        }
      ],
      "ERC20InsufficientAllowance(address,uint256,uint256)": [
        {
          "details": "Indicates a failure with the `spender`s `allowance`. Used in transfers.",
          "params": {
            "allowance": "Amount of tokens a `spender` is allowed to operate with.",
            "needed": "Minimum amount required to perform a transfer.",
            "spender": "Address that may be allowed to operate on tokens without being their owner."
          }
        }
      ],
      "ERC20InsufficientBalance(address,uint256,uint256)": [
        {
          "details": "Indicates an error related to the current `balance` of a `sender`. Used in transfers.",
          "params": {
            "balance": "Current balance for the interacting account.",
            "needed": "Minimum amount required to perform a transfer.",
            "sender": "Address whose tokens are being transferred."
          }
        }
      ],
      "ERC20InvalidApprover(address)": [
        {
          "details": "Indicates a failure with the `approver` of a token to be approved. Used in approvals.",
          "params": {
            "approver": "Address initiating an approval operation."
          }
        }
      ],
      "ERC20InvalidReceiver(address)": [
        {
          "details": "Indicates a failure with the token `receiver`. Used in transfers.",
          "params": {
            "receiver": "Address to which tokens are being transferred."
          }
        }
      ],
      "ERC20InvalidSender(address)": [
        {
          "details": "Indicates a failure with the token `sender`. Used in transfers.",
          "params": {
            "sender": "Address whose tokens are being transferred."
          }
        }
      ],
      "ERC20InvalidSpender(address)": [
        {
          "details": "Indicates a failure with the `spender` to be approved. Used in approvals.",
          "params": {
            "spender": "Address that may be allowed to operate on tokens without being their owner."
          }
        }
      ],
      "ERC4626ExceededMaxDeposit(address,uint256,uint256)": [
        {
          "details": "Attempted to deposit more assets than the max amount for `receiver`."
        }
      ],
      "ERC4626ExceededMaxMint(address,uint256,uint256)": [
        {
          "details": "Attempted to mint more shares than the max amount for `receiver`."
        }
      ],
      "ERC4626ExceededMaxRedeem(address,uint256,uint256)": [
        {
          "details": "Attempted to redeem more shares than the max amount for `receiver`."
        }
      ],
      "ERC4626ExceededMaxWithdraw(address,uint256,uint256)": [
        {
          "details": "Attempted to withdraw more assets than the max amount for `receiver`."
        }
      ],
      "FailedCall()": [
        {
          "details": "A call to an address target failed. The target may have reverted."
        }
      ],
      "InvalidInitialization()": [
        {
          "details": "The contract is already initialized."
        }
      ],
      "NotInitializing()": [
        {
          "details": "The contract is not initializing."
        }
      ],
      "SafeERC20FailedOperation(address)": [
        {
          "details": "An operation with an ERC-20 token failed."
        }
      ],
      "UUPSUnauthorizedCallContext()": [
        {
          "details": "The call is from an unauthorized context."
        }
      ],
      "UUPSUnsupportedProxiableUUID(bytes32)": [
        {
          "details": "The storage `slot` is unsupported as a UUID."
        }
      ]
    },
    "events": {
      "Approval(address,address,uint256)": {
        "details": "Emitted when the allowance of a `spender` for an `owner` is set by a call to {approve}. `value` is the new allowance."
      },
      "AuthorityUpdated(address)": {
        "details": "Authority that manages this contract was updated."
      },
      "Initialized(uint64)": {
        "details": "Triggered when the contract has been initialized or reinitialized."
      },
      "Transfer(address,address,uint256)": {
        "details": "Emitted when `value` tokens are moved from one account (`from`) to another (`to`). Note that `value` may be zero."
      },
      "Upgraded(address)": {
        "details": "Emitted when the implementation is upgraded."
      }
    },
    "kind": "dev",
    "methods": {
      "allowance(address,address)": {
        "details": "See {IERC20-allowance}."
      },
      "approve(address,uint256)": {
        "details": "See {IERC20-approve}. NOTE: If `value` is the maximum `uint256`, the allowance is not updated on `transferFrom`. This is semantically equivalent to an infinite approval. Requirements: - `spender` cannot be the zero address."
      },
      "asset()": {
        "details": "See {IERC4626-asset}. "
      },
      "authority()": {
        "details": "Returns the current authority."
      },
      "balanceOf(address)": {
        "details": "See {IERC20-balanceOf}."
      },
      "convertToAssets(uint256)": {
        "details": "See {IERC4626-convertToAssets}. "
      },
      "convertToShares(uint256)": {
        "details": "See {IERC4626-convertToShares}. "
      },
      "decimals()": {
        "details": "Decimals are computed by adding the decimal offset on top of the underlying asset's decimals. This \"original\" value is cached during construction of the vault contract. If this read operation fails (e.g., the asset has not been created yet), a default of 18 is used to represent the underlying asset's decimals. See {IERC20Metadata-decimals}."
      },
      "deposit(uint256,address)": {
        "details": "See {IERC4626-deposit}. "
      },
      "initialize(address,address,string,string,uint256)": {
        "details": "A first deposit is done at initialization to protect for the classical issue of ERC4626 contracts where the the first user of the contract tries to steal everyone else's tokens",
        "params": {
          "_authority": "Reference to the `AccessManagerContract` contract",
          "divizer": "Quantifies the first initial deposit (should be typically 1 for tokens like agEUR)",
          "name_": "Name of the savings contract",
          "symbol_": "Symbol of the savings contract"
        }
      },
      "isConsumingScheduledOp()": {
        "details": "Returns true only in the context of a delayed restricted call, at the moment that the scheduled operation is being consumed. Prevents denial of service for delayed restricted calls in the case that the contract performs attacker controlled calls."
      },
      "maxDeposit(address)": {
        "details": "See {IERC4626-maxDeposit}. "
      },
      "maxMint(address)": {
        "details": "See {IERC4626-maxMint}. "
      },
      "maxRedeem(address)": {
        "details": "See {IERC4626-maxRedeem}. "
      },
      "maxWithdraw(address)": {
        "details": "See {IERC4626-maxWithdraw}. "
      },
      "mint(uint256,address)": {
        "details": "See {IERC4626-mint}. "
      },
      "name()": {
        "details": "Returns the name of the token."
      },
      "previewDeposit(uint256)": {
        "details": "See {IERC4626-previewDeposit}. "
      },
      "previewMint(uint256)": {
        "details": "See {IERC4626-previewMint}. "
      },
      "previewRedeem(uint256)": {
        "details": "See {IERC4626-previewRedeem}. "
      },
      "previewWithdraw(uint256)": {
        "details": "See {IERC4626-previewWithdraw}. "
      },
      "proxiableUUID()": {
        "details": "Implementation of the ERC-1822 {proxiableUUID} function. This returns the storage slot used by the implementation. It is used to validate the implementation's compatibility when performing an upgrade. IMPORTANT: A proxy pointing at a proxiable contract should not be considered proxiable itself, because this risks bricking a proxy that upgrades to it, by delegating to itself until out of gas. Thus it is critical that this function revert if invoked through a proxy. This is guaranteed by the `notDelegated` modifier."
      },
      "redeem(uint256,address,address)": {
        "details": "See {IERC4626-redeem}. "
      },
      "setAuthority(address)": {
        "details": "Transfers control to a new authority. The caller must be the current authority."
      },
      "setRate(uint208)": {
        "details": "Any `rate` can be set by the guardian or by a trusted address provided that it is inferior to the `maxRate` settable by a governor address"
      },
      "symbol()": {
        "details": "Returns the symbol of the token, usually a shorter version of the name."
      },
      "totalAssets()": {
        "details": "See {IERC4626-totalAssets}. "
      },
      "totalSupply()": {
        "details": "See {IERC20-totalSupply}."
      },
      "transfer(address,uint256)": {
        "details": "See {IERC20-transfer}. Requirements: - `to` cannot be the zero address. - the caller must have a balance of at least `value`."
      },
      "transferFrom(address,address,uint256)": {
        "details": "See {IERC20-transferFrom}. Skips emitting an {Approval} event indicating an allowance update. This is not required by the ERC. See {xref-ERC20-_approve-address-address-uint256-bool-}[_approve]. NOTE: Does not update the allowance if the current allowance is the maximum `uint256`. Requirements: - `from` and `to` cannot be the zero address. - `from` must have a balance of at least `value`. - the caller must have allowance for ``from``'s tokens of at least `value`."
      },
      "upgradeToAndCall(address,bytes)": {
        "custom:oz-upgrades-unsafe-allow-reachable": "delegatecall",
        "details": "Upgrade the implementation of the proxy to `newImplementation`, and subsequently execute the function call encoded in `data`. Calls {_authorizeUpgrade}. Emits an {Upgraded} event."
      },
      "withdraw(uint256,address,address)": {
        "details": "See {IERC4626-withdraw}. "
      }
    },
    "title": "SavingsNameable",
    "version": 1
  },
  "userdoc": {
    "kind": "user",
    "methods": {
      "computeUpdatedAssets(uint256,uint256)": {
        "notice": "Wrapper on top of the `computeUpdatedAssets` function"
      },
      "estimatedAPR()": {
        "notice": "Provides an estimated Annual Percentage Rate for base depositors on this contract"
      },
      "initialize(address,address,string,string,uint256)": {
        "notice": "Initializes the contract"
      },
      "isTrustedUpdater(address)": {
        "notice": "Checks whether the address is trusted to set the rate"
      },
      "lastUpdate()": {
        "notice": "Last time rewards were accrued"
      },
      "maxRate()": {
        "notice": "Maximum inflation rate"
      },
      "paused()": {
        "notice": "Whether the contract is paused or not"
      },
      "rate()": {
        "notice": "Inflation rate (per second) in BASE_27"
      },
      "setMaxRate(uint256)": {
        "notice": "Updates the maximum rate settable"
      },
      "setNameAndSymbol(string,string)": {
        "notice": "Updates the name and symbol of the token"
      },
      "setRate(uint208)": {
        "notice": "Updates the inflation rate for depositing `asset` in this contract"
      },
      "togglePause()": {
        "notice": "Pauses the contract"
      },
      "toggleTrusted(address)": {
        "notice": "Toggles an address"
      }
    },
    "version": 1
  },
  "storageLayout": {
    "storage": [
      {
        "astId": 22159,
        "contract": "contracts/savings/nameable/SavingsNameable.sol:SavingsNameable",
        "label": "rate",
        "offset": 0,
        "slot": "0",
        "type": "t_uint208"
      },
      {
        "astId": 22162,
        "contract": "contracts/savings/nameable/SavingsNameable.sol:SavingsNameable",
        "label": "lastUpdate",
        "offset": 26,
        "slot": "0",
        "type": "t_uint40"
      },
      {
        "astId": 22165,
        "contract": "contracts/savings/nameable/SavingsNameable.sol:SavingsNameable",
        "label": "paused",
        "offset": 31,
        "slot": "0",
        "type": "t_uint8"
      },
      {
        "astId": 22168,
        "contract": "contracts/savings/nameable/SavingsNameable.sol:SavingsNameable",
        "label": "maxRate",
        "offset": 0,
        "slot": "1",
        "type": "t_uint256"
      },
      {
        "astId": 22173,
        "contract": "contracts/savings/nameable/SavingsNameable.sol:SavingsNameable",
        "label": "isTrustedUpdater",
        "offset": 0,
        "slot": "2",
        "type": "t_mapping(t_address,t_uint256)"
      },
      {
        "astId": 22177,
        "contract": "contracts/savings/nameable/SavingsNameable.sol:SavingsNameable",
        "label": "__gap",
        "offset": 0,
        "slot": "3",
        "type": "t_array(t_uint256)48_storage"
      },
      {
        "astId": 22915,
        "contract": "contracts/savings/nameable/SavingsNameable.sol:SavingsNameable",
        "label": "__name",
        "offset": 0,
        "slot": "51",
        "type": "t_string_storage"
      },
      {
        "astId": 22917,
        "contract": "contracts/savings/nameable/SavingsNameable.sol:SavingsNameable",
        "label": "__symbol",
        "offset": 0,
        "slot": "52",
        "type": "t_string_storage"
      },
      {
        "astId": 22921,
        "contract": "contracts/savings/nameable/SavingsNameable.sol:SavingsNameable",
        "label": "__gapNameable",
        "offset": 0,
        "slot": "53",
        "type": "t_array(t_uint256)48_storage"
      }
    ],
    "types": {
      "t_address": {
        "encoding": "inplace",
        "label": "address",
        "numberOfBytes": "20"
      },
      "t_array(t_uint256)48_storage": {
        "base": "t_uint256",
        "encoding": "inplace",
        "label": "uint256[48]",
        "numberOfBytes": "1536"
      },
      "t_mapping(t_address,t_uint256)": {
        "encoding": "mapping",
        "key": "t_address",
        "label": "mapping(address => uint256)",
        "numberOfBytes": "32",
        "value": "t_uint256"
      },
      "t_string_storage": {
        "encoding": "bytes",
        "label": "string",
        "numberOfBytes": "32"
      },
      "t_uint208": {
        "encoding": "inplace",
        "label": "uint208",
        "numberOfBytes": "26"
      },
      "t_uint256": {
        "encoding": "inplace",
        "label": "uint256",
        "numberOfBytes": "32"
      },
      "t_uint40": {
        "encoding": "inplace",
        "label": "uint40",
        "numberOfBytes": "5"
      },
      "t_uint8": {
        "encoding": "inplace",
        "label": "uint8",
        "numberOfBytes": "1"
      }
    }
  }
}